{
  "contractName": "BtcToken",
  "abi": [
    {
      "inputs": [
        {
          "internalType": "uint256",
          "name": "_initialSupply",
          "type": "uint256"
        }
      ],
      "stateMutability": "nonpayable",
      "type": "constructor"
    },
    {
      "anonymous": false,
      "inputs": [
        {
          "indexed": true,
          "internalType": "address",
          "name": "owner",
          "type": "address"
        },
        {
          "indexed": true,
          "internalType": "address",
          "name": "spender",
          "type": "address"
        },
        {
          "indexed": false,
          "internalType": "uint256",
          "name": "value",
          "type": "uint256"
        }
      ],
      "name": "Approval",
      "type": "event"
    },
    {
      "anonymous": false,
      "inputs": [
        {
          "indexed": true,
          "internalType": "address",
          "name": "previousOwner",
          "type": "address"
        },
        {
          "indexed": true,
          "internalType": "address",
          "name": "newOwner",
          "type": "address"
        }
      ],
      "name": "OwnershipTransferred",
      "type": "event"
    },
    {
      "anonymous": false,
      "inputs": [
        {
          "indexed": false,
          "internalType": "address",
          "name": "_buyer",
          "type": "address"
        },
        {
          "indexed": false,
          "internalType": "uint256",
          "name": "_amount",
          "type": "uint256"
        }
      ],
      "name": "Sell",
      "type": "event"
    },
    {
      "anonymous": false,
      "inputs": [],
      "name": "StartSelling",
      "type": "event"
    },
    {
      "anonymous": false,
      "inputs": [],
      "name": "StopSelling",
      "type": "event"
    },
    {
      "anonymous": false,
      "inputs": [
        {
          "indexed": true,
          "internalType": "address",
          "name": "from",
          "type": "address"
        },
        {
          "indexed": true,
          "internalType": "address",
          "name": "to",
          "type": "address"
        },
        {
          "indexed": false,
          "internalType": "uint256",
          "name": "value",
          "type": "uint256"
        }
      ],
      "name": "Transfer",
      "type": "event"
    },
    {
      "inputs": [
        {
          "internalType": "address",
          "name": "owner",
          "type": "address"
        },
        {
          "internalType": "address",
          "name": "spender",
          "type": "address"
        }
      ],
      "name": "allowance",
      "outputs": [
        {
          "internalType": "uint256",
          "name": "",
          "type": "uint256"
        }
      ],
      "stateMutability": "view",
      "type": "function",
      "constant": true
    },
    {
      "inputs": [
        {
          "internalType": "address",
          "name": "spender",
          "type": "address"
        },
        {
          "internalType": "uint256",
          "name": "amount",
          "type": "uint256"
        }
      ],
      "name": "approve",
      "outputs": [
        {
          "internalType": "bool",
          "name": "",
          "type": "bool"
        }
      ],
      "stateMutability": "nonpayable",
      "type": "function"
    },
    {
      "inputs": [
        {
          "internalType": "address",
          "name": "account",
          "type": "address"
        }
      ],
      "name": "balanceOf",
      "outputs": [
        {
          "internalType": "uint256",
          "name": "",
          "type": "uint256"
        }
      ],
      "stateMutability": "view",
      "type": "function",
      "constant": true
    },
    {
      "inputs": [],
      "name": "decimals",
      "outputs": [
        {
          "internalType": "uint8",
          "name": "",
          "type": "uint8"
        }
      ],
      "stateMutability": "view",
      "type": "function",
      "constant": true
    },
    {
      "inputs": [
        {
          "internalType": "address",
          "name": "spender",
          "type": "address"
        },
        {
          "internalType": "uint256",
          "name": "subtractedValue",
          "type": "uint256"
        }
      ],
      "name": "decreaseAllowance",
      "outputs": [
        {
          "internalType": "bool",
          "name": "",
          "type": "bool"
        }
      ],
      "stateMutability": "nonpayable",
      "type": "function"
    },
    {
      "inputs": [
        {
          "internalType": "address",
          "name": "spender",
          "type": "address"
        },
        {
          "internalType": "uint256",
          "name": "addedValue",
          "type": "uint256"
        }
      ],
      "name": "increaseAllowance",
      "outputs": [
        {
          "internalType": "bool",
          "name": "",
          "type": "bool"
        }
      ],
      "stateMutability": "nonpayable",
      "type": "function"
    },
    {
      "inputs": [],
      "name": "name",
      "outputs": [
        {
          "internalType": "string",
          "name": "",
          "type": "string"
        }
      ],
      "stateMutability": "view",
      "type": "function",
      "constant": true
    },
    {
      "inputs": [],
      "name": "onSale",
      "outputs": [
        {
          "internalType": "bool",
          "name": "",
          "type": "bool"
        }
      ],
      "stateMutability": "view",
      "type": "function",
      "constant": true
    },
    {
      "inputs": [],
      "name": "owner",
      "outputs": [
        {
          "internalType": "address",
          "name": "",
          "type": "address"
        }
      ],
      "stateMutability": "view",
      "type": "function",
      "constant": true
    },
    {
      "inputs": [],
      "name": "renounceOwnership",
      "outputs": [],
      "stateMutability": "nonpayable",
      "type": "function"
    },
    {
      "inputs": [],
      "name": "startSale",
      "outputs": [],
      "stateMutability": "nonpayable",
      "type": "function"
    },
    {
      "inputs": [],
      "name": "stopSale",
      "outputs": [],
      "stateMutability": "nonpayable",
      "type": "function"
    },
    {
      "inputs": [],
      "name": "symbol",
      "outputs": [
        {
          "internalType": "string",
          "name": "",
          "type": "string"
        }
      ],
      "stateMutability": "view",
      "type": "function",
      "constant": true
    },
    {
      "inputs": [],
      "name": "tokensSold",
      "outputs": [
        {
          "internalType": "uint256",
          "name": "",
          "type": "uint256"
        }
      ],
      "stateMutability": "view",
      "type": "function",
      "constant": true
    },
    {
      "inputs": [],
      "name": "totalSupply",
      "outputs": [
        {
          "internalType": "uint256",
          "name": "",
          "type": "uint256"
        }
      ],
      "stateMutability": "view",
      "type": "function",
      "constant": true
    },
    {
      "inputs": [
        {
          "internalType": "address",
          "name": "recipient",
          "type": "address"
        },
        {
          "internalType": "uint256",
          "name": "amount",
          "type": "uint256"
        }
      ],
      "name": "transfer",
      "outputs": [
        {
          "internalType": "bool",
          "name": "",
          "type": "bool"
        }
      ],
      "stateMutability": "nonpayable",
      "type": "function"
    },
    {
      "inputs": [
        {
          "internalType": "address",
          "name": "sender",
          "type": "address"
        },
        {
          "internalType": "address",
          "name": "recipient",
          "type": "address"
        },
        {
          "internalType": "uint256",
          "name": "amount",
          "type": "uint256"
        }
      ],
      "name": "transferFrom",
      "outputs": [
        {
          "internalType": "bool",
          "name": "",
          "type": "bool"
        }
      ],
      "stateMutability": "nonpayable",
      "type": "function"
    },
    {
      "inputs": [
        {
          "internalType": "address",
          "name": "newOwner",
          "type": "address"
        }
      ],
      "name": "transferOwnership",
      "outputs": [],
      "stateMutability": "nonpayable",
      "type": "function"
    },
    {
      "inputs": [],
      "name": "currentPrice",
      "outputs": [
        {
          "internalType": "uint256",
          "name": "",
          "type": "uint256"
        }
      ],
      "stateMutability": "view",
      "type": "function",
      "constant": true
    },
    {
      "inputs": [
        {
          "internalType": "uint256",
          "name": "_numberOfTokens",
          "type": "uint256"
        }
      ],
      "name": "buyTokens",
      "outputs": [
        {
          "internalType": "bool",
          "name": "",
          "type": "bool"
        }
      ],
      "stateMutability": "payable",
      "type": "function",
      "payable": true
    }
  ],
  "bytecode": "0x60806040526001600560146101000a81548160ff0219169083151502179055503480156200002c57600080fd5b506040516200243d3803806200243d8339818101604052810190620000529190620002c3565b6040518060400160405280600d81526020017f426974636f696e20546f6b656e000000000000000000000000000000000000008152506040518060400160405280600381526020017f42544300000000000000000000000000000000000000000000000000000000008152508160039080519060200190620000d6929190620001fc565b508060049080519060200190620000ef929190620001fc565b505050600062000104620001f460201b60201c565b905080600560006101000a81548173ffffffffffffffffffffffffffffffffffffffff021916908373ffffffffffffffffffffffffffffffffffffffff1602179055508073ffffffffffffffffffffffffffffffffffffffff16600073ffffffffffffffffffffffffffffffffffffffff167f8be0079c531659141344cd1fd0a4f28419497f9722a3daafe3b4186f6b6457e060405160405180910390a350806000803373ffffffffffffffffffffffffffffffffffffffff1673ffffffffffffffffffffffffffffffffffffffff16815260200190815260200160002081905550806002819055505062000378565b600033905090565b8280546200020a90620002f9565b90600052602060002090601f0160209004810192826200022e57600085556200027a565b82601f106200024957805160ff19168380011785556200027a565b828001600101855582156200027a579182015b82811115620002795782518255916020019190600101906200025c565b5b5090506200028991906200028d565b5090565b5b80821115620002a85760008160009055506001016200028e565b5090565b600081519050620002bd816200035e565b92915050565b600060208284031215620002d657600080fd5b6000620002e684828501620002ac565b91505092915050565b6000819050919050565b600060028204905060018216806200031257607f821691505b602082108114156200032957620003286200032f565b5b50919050565b7f4e487b7100000000000000000000000000000000000000000000000000000000600052602260045260246000fd5b6200036981620002ef565b81146200037557600080fd5b50565b6120b580620003886000396000f3fe60806040526004361061011f5760003560e01c8063715018a6116100a0578063a9059cbb11610064578063a9059cbb146103f4578063b66a0e5d14610431578063dd62ed3e14610448578063e36b0b3714610485578063f2fde38b1461049c5761011f565b8063715018a61461031f5780638da5cb5b1461033657806395d89b41146103615780639d1b464a1461038c578063a457c2d7146103b75761011f565b8063326687b9116100e7578063326687b91461021f5780633610724e1461024a578063395093511461027a578063518ab2a8146102b757806370a08231146102e25761011f565b806306fdde0314610124578063095ea7b31461014f57806318160ddd1461018c57806323b872dd146101b7578063313ce567146101f4575b600080fd5b34801561013057600080fd5b506101396104c5565b60405161014691906117e8565b60405180910390f35b34801561015b57600080fd5b5061017660048036038101906101719190611551565b610557565b60405161018391906117cd565b60405180910390f35b34801561019857600080fd5b506101a1610575565b6040516101ae919061194a565b60405180910390f35b3480156101c357600080fd5b506101de60048036038101906101d99190611502565b61057f565b6040516101eb91906117cd565b60405180910390f35b34801561020057600080fd5b50610209610680565b6040516102169190611965565b60405180910390f35b34801561022b57600080fd5b50610234610689565b60405161024191906117cd565b60405180910390f35b610264600480360381019061025f919061158d565b61069c565b60405161027191906117cd565b60405180910390f35b34801561028657600080fd5b506102a1600480360381019061029c9190611551565b6107c2565b6040516102ae91906117cd565b60405180910390f35b3480156102c357600080fd5b506102cc61086e565b6040516102d9919061194a565b60405180910390f35b3480156102ee57600080fd5b506103096004803603810190610304919061149d565b610874565b604051610316919061194a565b60405180910390f35b34801561032b57600080fd5b506103346108bc565b005b34801561034257600080fd5b5061034b6109f9565b6040516103589190611789565b60405180910390f35b34801561036d57600080fd5b50610376610a23565b60405161038391906117e8565b60405180910390f35b34801561039857600080fd5b506103a1610ab5565b6040516103ae919061194a565b60405180910390f35b3480156103c357600080fd5b506103de60048036038101906103d99190611551565b610ae4565b6040516103eb91906117cd565b60405180910390f35b34801561040057600080fd5b5061041b60048036038101906104169190611551565b610bd8565b60405161042891906117cd565b60405180910390f35b34801561043d57600080fd5b50610446610bf6565b005b34801561045457600080fd5b5061046f600480360381019061046a91906114c6565b610cbb565b60405161047c919061194a565b60405180910390f35b34801561049157600080fd5b5061049a610d42565b005b3480156104a857600080fd5b506104c360048036038101906104be919061149d565b610e07565b005b6060600380546104d490611caa565b80601f016020809104026020016040519081016040528092919081815260200182805461050090611caa565b801561054d5780601f106105225761010080835404028352916020019161054d565b820191906000526020600020905b81548152906001019060200180831161053057829003601f168201915b5050505050905090565b600061056b610564610fb3565b8484610fbb565b6001905092915050565b6000600254905090565b600061058c848484611186565b6000600160008673ffffffffffffffffffffffffffffffffffffffff1673ffffffffffffffffffffffffffffffffffffffff16815260200190815260200160002060006105d7610fb3565b73ffffffffffffffffffffffffffffffffffffffff1673ffffffffffffffffffffffffffffffffffffffff16815260200190815260200160002054905082811015610657576040517f08c379a000000000000000000000000000000000000000000000000000000000815260040161064e9061188a565b60405180910390fd5b61067485610663610fb3565b858461066f9190611bee565b610fbb565b60019150509392505050565b60006012905090565b600560149054906101000a900460ff1681565b6000600560149054906101000a900460ff166106b757600080fd5b6106d16106c2610ab5565b8361140590919063ffffffff16565b3414610712576040517f08c379a0000000000000000000000000000000000000000000000000000000008152600401610709906118ea565b60405180910390fd5b816000803373ffffffffffffffffffffffffffffffffffffffff1673ffffffffffffffffffffffffffffffffffffffff1681526020019081526020016000206000828254610760919061199c565b925050819055508160066000828254610779919061199c565b925050819055507f5e5e995ce3133561afceaa51a9a154d5db228cd7525d34df5185582c18d3df0933836040516107b19291906117a4565b60405180910390a160019050919050565b60006108646107cf610fb3565b8484600160006107dd610fb3565b73ffffffffffffffffffffffffffffffffffffffff1673ffffffffffffffffffffffffffffffffffffffff16815260200190815260200160002060008873ffffffffffffffffffffffffffffffffffffffff1673ffffffffffffffffffffffffffffffffffffffff1681526020019081526020016000205461085f919061199c565b610fbb565b6001905092915050565b60065481565b60008060008373ffffffffffffffffffffffffffffffffffffffff1673ffffffffffffffffffffffffffffffffffffffff168152602001908152602001600020549050919050565b6108c4610fb3565b73ffffffffffffffffffffffffffffffffffffffff166108e26109f9565b73ffffffffffffffffffffffffffffffffffffffff1614610938576040517f08c379a000000000000000000000000000000000000000000000000000000000815260040161092f906118aa565b60405180910390fd5b600073ffffffffffffffffffffffffffffffffffffffff16600560009054906101000a900473ffffffffffffffffffffffffffffffffffffffff1673ffffffffffffffffffffffffffffffffffffffff167f8be0079c531659141344cd1fd0a4f28419497f9722a3daafe3b4186f6b6457e060405160405180910390a36000600560006101000a81548173ffffffffffffffffffffffffffffffffffffffff021916908373ffffffffffffffffffffffffffffffffffffffff160217905550565b6000600560009054906101000a900473ffffffffffffffffffffffffffffffffffffffff16905090565b606060048054610a3290611caa565b80601f0160208091040260200160405190810160405280929190818152602001828054610a5e90611caa565b8015610aab5780601f10610a8057610100808354040283529160200191610aab565b820191906000526020600020905b815481529060010190602001808311610a8e57829003601f168201915b5050505050905090565b60006001612710600654610ac991906119f2565b610ad3919061199c565b6064610adf9190611a76565b905090565b60008060016000610af3610fb3565b73ffffffffffffffffffffffffffffffffffffffff1673ffffffffffffffffffffffffffffffffffffffff16815260200190815260200160002060008573ffffffffffffffffffffffffffffffffffffffff1673ffffffffffffffffffffffffffffffffffffffff16815260200190815260200160002054905082811015610bb0576040517f08c379a0000000000000000000000000000000000000000000000000000000008152600401610ba79061192a565b60405180910390fd5b610bcd610bbb610fb3565b858584610bc89190611bee565b610fbb565b600191505092915050565b6000610bec610be5610fb3565b8484611186565b6001905092915050565b610bfe610fb3565b73ffffffffffffffffffffffffffffffffffffffff16610c1c6109f9565b73ffffffffffffffffffffffffffffffffffffffff1614610c72576040517f08c379a0000000000000000000000000000000000000000000000000000000008152600401610c69906118aa565b60405180910390fd5b6001600560146101000a81548160ff0219169083151502179055507f2970f486ad806233ea3b1e73f4ddd8c09c6051509aec326fb4ea2cad7dacce9c60405160405180910390a1565b6000600160008473ffffffffffffffffffffffffffffffffffffffff1673ffffffffffffffffffffffffffffffffffffffff16815260200190815260200160002060008373ffffffffffffffffffffffffffffffffffffffff1673ffffffffffffffffffffffffffffffffffffffff16815260200190815260200160002054905092915050565b610d4a610fb3565b73ffffffffffffffffffffffffffffffffffffffff16610d686109f9565b73ffffffffffffffffffffffffffffffffffffffff1614610dbe576040517f08c379a0000000000000000000000000000000000000000000000000000000008152600401610db5906118aa565b60405180910390fd5b6000600560146101000a81548160ff0219169083151502179055507f8838583ad4691f61e626167788a96d8d37104b56c175347b02da48a7a3a9882860405160405180910390a1565b610e0f610fb3565b73ffffffffffffffffffffffffffffffffffffffff16610e2d6109f9565b73ffffffffffffffffffffffffffffffffffffffff1614610e83576040517f08c379a0000000000000000000000000000000000000000000000000000000008152600401610e7a906118aa565b60405180910390fd5b600073ffffffffffffffffffffffffffffffffffffffff168173ffffffffffffffffffffffffffffffffffffffff161415610ef3576040517f08c379a0000000000000000000000000000000000000000000000000000000008152600401610eea9061182a565b60405180910390fd5b8073ffffffffffffffffffffffffffffffffffffffff16600560009054906101000a900473ffffffffffffffffffffffffffffffffffffffff1673ffffffffffffffffffffffffffffffffffffffff167f8be0079c531659141344cd1fd0a4f28419497f9722a3daafe3b4186f6b6457e060405160405180910390a380600560006101000a81548173ffffffffffffffffffffffffffffffffffffffff021916908373ffffffffffffffffffffffffffffffffffffffff16021790555050565b600033905090565b600073ffffffffffffffffffffffffffffffffffffffff168373ffffffffffffffffffffffffffffffffffffffff16141561102b576040517f08c379a00000000000000000000000000000000000000000000000000000000081526004016110229061190a565b60405180910390fd5b600073ffffffffffffffffffffffffffffffffffffffff168273ffffffffffffffffffffffffffffffffffffffff16141561109b576040517f08c379a00000000000000000000000000000000000000000000000000000000081526004016110929061184a565b60405180910390fd5b80600160008573ffffffffffffffffffffffffffffffffffffffff1673ffffffffffffffffffffffffffffffffffffffff16815260200190815260200160002060008473ffffffffffffffffffffffffffffffffffffffff1673ffffffffffffffffffffffffffffffffffffffff168152602001908152602001600020819055508173ffffffffffffffffffffffffffffffffffffffff168373ffffffffffffffffffffffffffffffffffffffff167f8c5be1e5ebec7d5bd14f71427d1e84f3dd0314c0f7b2291e5b200ac8c7c3b92583604051611179919061194a565b60405180910390a3505050565b600073ffffffffffffffffffffffffffffffffffffffff168373ffffffffffffffffffffffffffffffffffffffff1614156111f6576040517f08c379a00000000000000000000000000000000000000000000000000000000081526004016111ed906118ca565b60405180910390fd5b600073ffffffffffffffffffffffffffffffffffffffff168273ffffffffffffffffffffffffffffffffffffffff161415611266576040517f08c379a000000000000000000000000000000000000000000000000000000000815260040161125d9061180a565b60405180910390fd5b61127183838361146e565b60008060008573ffffffffffffffffffffffffffffffffffffffff1673ffffffffffffffffffffffffffffffffffffffff168152602001908152602001600020549050818110156112f7576040517f08c379a00000000000000000000000000000000000000000000000000000000081526004016112ee9061186a565b60405180910390fd5b81816113039190611bee565b6000808673ffffffffffffffffffffffffffffffffffffffff1673ffffffffffffffffffffffffffffffffffffffff16815260200190815260200160002081905550816000808573ffffffffffffffffffffffffffffffffffffffff1673ffffffffffffffffffffffffffffffffffffffff1681526020019081526020016000206000828254611393919061199c565b925050819055508273ffffffffffffffffffffffffffffffffffffffff168473ffffffffffffffffffffffffffffffffffffffff167fddf252ad1be2c89b69c2b068fc378daa952ba7f163c4a11628f55a4df523b3ef846040516113f7919061194a565b60405180910390a350505050565b6000808314156114185760009050611468565b81836114249190611b94565b905081838261143391906119f2565b14611467577f4e487b7100000000000000000000000000000000000000000000000000000000600052600160045260246000fd5b5b92915050565b505050565b60008135905061148281612051565b92915050565b60008135905061149781612068565b92915050565b6000602082840312156114af57600080fd5b60006114bd84828501611473565b91505092915050565b600080604083850312156114d957600080fd5b60006114e785828601611473565b92505060206114f885828601611473565b9150509250929050565b60008060006060848603121561151757600080fd5b600061152586828701611473565b935050602061153686828701611473565b925050604061154786828701611488565b9150509250925092565b6000806040838503121561156457600080fd5b600061157285828601611473565b925050602061158385828601611488565b9150509250929050565b60006020828403121561159f57600080fd5b60006115ad84828501611488565b91505092915050565b6115bf81611c22565b82525050565b6115ce81611c34565b82525050565b60006115df82611980565b6115e9818561198b565b93506115f9818560208601611c77565b61160281611d69565b840191505092915050565b600061161a60238361198b565b915061162582611d87565b604082019050919050565b600061163d60268361198b565b915061164882611dd6565b604082019050919050565b600061166060228361198b565b915061166b82611e25565b604082019050919050565b600061168360268361198b565b915061168e82611e74565b604082019050919050565b60006116a660288361198b565b91506116b182611ec3565b604082019050919050565b60006116c960208361198b565b91506116d482611f12565b602082019050919050565b60006116ec60258361198b565b91506116f782611f3b565b604082019050919050565b600061170f60178361198b565b915061171a82611f8a565b602082019050919050565b600061173260248361198b565b915061173d82611fb3565b604082019050919050565b600061175560258361198b565b915061176082612002565b604082019050919050565b61177481611c60565b82525050565b61178381611c6a565b82525050565b600060208201905061179e60008301846115b6565b92915050565b60006040820190506117b960008301856115b6565b6117c6602083018461176b565b9392505050565b60006020820190506117e260008301846115c5565b92915050565b6000602082019050818103600083015261180281846115d4565b905092915050565b600060208201905081810360008301526118238161160d565b9050919050565b6000602082019050818103600083015261184381611630565b9050919050565b6000602082019050818103600083015261186381611653565b9050919050565b6000602082019050818103600083015261188381611676565b9050919050565b600060208201905081810360008301526118a381611699565b9050919050565b600060208201905081810360008301526118c3816116bc565b9050919050565b600060208201905081810360008301526118e3816116df565b9050919050565b6000602082019050818103600083015261190381611702565b9050919050565b6000602082019050818103600083015261192381611725565b9050919050565b6000602082019050818103600083015261194381611748565b9050919050565b600060208201905061195f600083018461176b565b92915050565b600060208201905061197a600083018461177a565b92915050565b600081519050919050565b600082825260208201905092915050565b60006119a782611c60565b91506119b283611c60565b9250827fffffffffffffffffffffffffffffffffffffffffffffffffffffffffffffffff038211156119e7576119e6611cdc565b5b828201905092915050565b60006119fd82611c60565b9150611a0883611c60565b925082611a1857611a17611d0b565b5b828204905092915050565b6000808291508390505b6001851115611a6d57808604811115611a4957611a48611cdc565b5b6001851615611a585780820291505b8081029050611a6685611d7a565b9450611a2d565b94509492505050565b6000611a8182611c60565b9150611a8c83611c60565b9250611ab97fffffffffffffffffffffffffffffffffffffffffffffffffffffffffffffffff8484611ac1565b905092915050565b600082611ad15760019050611b8d565b81611adf5760009050611b8d565b8160018114611af55760028114611aff57611b2e565b6001915050611b8d565b60ff841115611b1157611b10611cdc565b5b8360020a915084821115611b2857611b27611cdc565b5b50611b8d565b5060208310610133831016604e8410600b8410161715611b635782820a905083811115611b5e57611b5d611cdc565b5b611b8d565b611b708484846001611a23565b92509050818404811115611b8757611b86611cdc565b5b81810290505b9392505050565b6000611b9f82611c60565b9150611baa83611c60565b9250817fffffffffffffffffffffffffffffffffffffffffffffffffffffffffffffffff0483118215151615611be357611be2611cdc565b5b828202905092915050565b6000611bf982611c60565b9150611c0483611c60565b925082821015611c1757611c16611cdc565b5b828203905092915050565b6000611c2d82611c40565b9050919050565b60008115159050919050565b600073ffffffffffffffffffffffffffffffffffffffff82169050919050565b6000819050919050565b600060ff82169050919050565b60005b83811015611c95578082015181840152602081019050611c7a565b83811115611ca4576000848401525b50505050565b60006002820490506001821680611cc257607f821691505b60208210811415611cd657611cd5611d3a565b5b50919050565b7f4e487b7100000000000000000000000000000000000000000000000000000000600052601160045260246000fd5b7f4e487b7100000000000000000000000000000000000000000000000000000000600052601260045260246000fd5b7f4e487b7100000000000000000000000000000000000000000000000000000000600052602260045260246000fd5b6000601f19601f8301169050919050565b60008160011c9050919050565b7f45524332303a207472616e7366657220746f20746865207a65726f206164647260008201527f6573730000000000000000000000000000000000000000000000000000000000602082015250565b7f4f776e61626c653a206e6577206f776e657220697320746865207a65726f206160008201527f6464726573730000000000000000000000000000000000000000000000000000602082015250565b7f45524332303a20617070726f766520746f20746865207a65726f20616464726560008201527f7373000000000000000000000000000000000000000000000000000000000000602082015250565b7f45524332303a207472616e7366657220616d6f756e742065786365656473206260008201527f616c616e63650000000000000000000000000000000000000000000000000000602082015250565b7f45524332303a207472616e7366657220616d6f756e742065786365656473206160008201527f6c6c6f77616e6365000000000000000000000000000000000000000000000000602082015250565b7f4f776e61626c653a2063616c6c6572206973206e6f7420746865206f776e6572600082015250565b7f45524332303a207472616e736665722066726f6d20746865207a65726f20616460008201527f6472657373000000000000000000000000000000000000000000000000000000602082015250565b7f446f6e2774206861766520656e6f7567682076616c7565000000000000000000600082015250565b7f45524332303a20617070726f76652066726f6d20746865207a65726f2061646460008201527f7265737300000000000000000000000000000000000000000000000000000000602082015250565b7f45524332303a2064656372656173656420616c6c6f77616e63652062656c6f7760008201527f207a65726f000000000000000000000000000000000000000000000000000000602082015250565b61205a81611c22565b811461206557600080fd5b50565b61207181611c60565b811461207c57600080fd5b5056fea264697066735822122091559d57e5e5df340129ada1ddce9fd3ef8d8347e261b114e44b318e079d33a864736f6c63430008040033",
  "immutableReferences": {},
  "source": "pragma solidity ^0.8.4;\r\n\r\nimport \"./utils/Safemath.sol\";\r\nimport \"./extensions/Ownable.sol\";\r\nimport \"./extensions/ERC20.sol\";\r\nimport \"./extensions/Saleable.sol\";\r\n\r\n\r\ncontract BtcToken is ERC20, Ownable, Saleable {\r\n    using SafeMath for uint256;\r\n\r\n    uint8 constant exp = 3;\r\n\r\n    constructor(uint256 _initialSupply) ERC20('Bitcoin Token', 'BTC') {\r\n        _balances[msg.sender] = _initialSupply;\r\n        _totalSupply = _initialSupply;\r\n    }\r\n\r\n    function currentPrice() public view returns (uint256){\r\n        return 100 ** (tokensSold / 10000 + 1);\r\n    }\r\n\r\n    function buyTokens(uint256 _numberOfTokens) public payable returns (bool){\r\n        //Check Tokens re on the sale\r\n        require(onSale);\r\n\r\n        //Require that value is equal to tokens\r\n        require(msg.value == _numberOfTokens.mul(currentPrice()),\"Don't have enough value\");\r\n\r\n        //Send tokens\r\n        _balances[msg.sender] += _numberOfTokens;\r\n\r\n        //Require that a transfer is successful\r\n        tokensSold += _numberOfTokens;\r\n\r\n        //Trigger Sell event\r\n        emit Sell(msg.sender, _numberOfTokens);\r\n        return true;\r\n    }\r\n\r\n}\r\n",
  "sourcePath": "C:\\Users\\Yunis\\WebstormProjects\\untitled\\contracts\\BtcToken.sol",
  "compiler": {
    "name": "solc",
    "version": "0.8.4+commit.c7e474f2.Emscripten.clang"
  },
  "schemaVersion": "3.4.0",
  "updatedAt": "2021-05-03T11:10:25.213Z",
  "networkType": "ethereum",
  "devdoc": {
    "kind": "dev",
    "methods": {
      "allowance(address,address)": {
        "details": "See {IERC20-allowance}."
      },
      "approve(address,uint256)": {
        "details": "See {IERC20-approve}. Requirements: - `spender` cannot be the zero address."
      },
      "balanceOf(address)": {
        "details": "See {IERC20-balanceOf}."
      },
      "decimals()": {
        "details": "Returns the number of decimals used to get its user representation. For example, if `decimals` equals `2`, a balance of `505` tokens should be displayed to a user as `5,05` (`505 / 10 ** 2`). Tokens usually opt for a value of 18, imitating the relationship between Ether and Wei. This is the value {ERC20} uses, unless this function is overridden; NOTE: This information is only used for _display_ purposes: it in no way affects any of the arithmetic of the contract, including {IERC20-balanceOf} and {IERC20-transfer}."
      },
      "decreaseAllowance(address,uint256)": {
        "details": "Atomically decreases the allowance granted to `spender` by the caller. This is an alternative to {approve} that can be used as a mitigation for problems described in {IERC20-approve}. Emits an {Approval} event indicating the updated allowance. Requirements: - `spender` cannot be the zero address. - `spender` must have allowance for the caller of at least `subtractedValue`."
      },
      "increaseAllowance(address,uint256)": {
        "details": "Atomically increases the allowance granted to `spender` by the caller. This is an alternative to {approve} that can be used as a mitigation for problems described in {IERC20-approve}. Emits an {Approval} event indicating the updated allowance. Requirements: - `spender` cannot be the zero address."
      },
      "name()": {
        "details": "Returns the name of the token."
      },
      "owner()": {
        "details": "Returns the address of the current owner."
      },
      "renounceOwnership()": {
        "details": "Leaves the contract without owner. It will not be possible to call `onlyOwner` functions anymore. Can only be called by the current owner. NOTE: Renouncing ownership will leave the contract without an owner, thereby removing any functionality that is only available to the owner."
      },
      "symbol()": {
        "details": "Returns the symbol of the token, usually a shorter version of the name."
      },
      "totalSupply()": {
        "details": "See {IERC20-totalSupply}."
      },
      "transfer(address,uint256)": {
        "details": "See {IERC20-transfer}. Requirements: - `recipient` cannot be the zero address. - the caller must have a balance of at least `amount`."
      },
      "transferFrom(address,address,uint256)": {
        "details": "See {IERC20-transferFrom}. Emits an {Approval} event indicating the updated allowance. This is not required by the EIP. See the note at the beginning of {ERC20}. Requirements: - `sender` and `recipient` cannot be the zero address. - `sender` must have a balance of at least `amount`. - the caller must have allowance for ``sender``'s tokens of at least `amount`."
      },
      "transferOwnership(address)": {
        "details": "Transfers ownership of the contract to a new account (`newOwner`). Can only be called by the current owner."
      }
    },
    "version": 1
  },
  "userdoc": {
    "kind": "user",
    "methods": {},
    "version": 1
  }
}