{
  "contractName": "BtcToken",
  "abi": [
    {
      "inputs": [
        {
          "internalType": "uint256",
          "name": "_initialSupply",
          "type": "uint256"
        }
      ],
      "stateMutability": "nonpayable",
      "type": "constructor"
    },
    {
      "anonymous": false,
      "inputs": [
        {
          "indexed": true,
          "internalType": "address",
          "name": "owner",
          "type": "address"
        },
        {
          "indexed": true,
          "internalType": "address",
          "name": "spender",
          "type": "address"
        },
        {
          "indexed": false,
          "internalType": "uint256",
          "name": "value",
          "type": "uint256"
        }
      ],
      "name": "Approval",
      "type": "event"
    },
    {
      "anonymous": false,
      "inputs": [
        {
          "indexed": true,
          "internalType": "address",
          "name": "previousOwner",
          "type": "address"
        },
        {
          "indexed": true,
          "internalType": "address",
          "name": "newOwner",
          "type": "address"
        }
      ],
      "name": "OwnershipTransferred",
      "type": "event"
    },
    {
      "anonymous": false,
      "inputs": [
        {
          "indexed": false,
          "internalType": "address",
          "name": "_buyer",
          "type": "address"
        },
        {
          "indexed": false,
          "internalType": "uint256",
          "name": "_amount",
          "type": "uint256"
        }
      ],
      "name": "Sell",
      "type": "event"
    },
    {
      "anonymous": false,
      "inputs": [],
      "name": "StartSelling",
      "type": "event"
    },
    {
      "anonymous": false,
      "inputs": [],
      "name": "StopSelling",
      "type": "event"
    },
    {
      "anonymous": false,
      "inputs": [
        {
          "indexed": true,
          "internalType": "address",
          "name": "from",
          "type": "address"
        },
        {
          "indexed": true,
          "internalType": "address",
          "name": "to",
          "type": "address"
        },
        {
          "indexed": false,
          "internalType": "uint256",
          "name": "value",
          "type": "uint256"
        }
      ],
      "name": "Transfer",
      "type": "event"
    },
    {
      "inputs": [
        {
          "internalType": "address",
          "name": "owner",
          "type": "address"
        },
        {
          "internalType": "address",
          "name": "spender",
          "type": "address"
        }
      ],
      "name": "allowance",
      "outputs": [
        {
          "internalType": "uint256",
          "name": "",
          "type": "uint256"
        }
      ],
      "stateMutability": "view",
      "type": "function",
      "constant": true
    },
    {
      "inputs": [
        {
          "internalType": "address",
          "name": "spender",
          "type": "address"
        },
        {
          "internalType": "uint256",
          "name": "amount",
          "type": "uint256"
        }
      ],
      "name": "approve",
      "outputs": [
        {
          "internalType": "bool",
          "name": "",
          "type": "bool"
        }
      ],
      "stateMutability": "nonpayable",
      "type": "function"
    },
    {
      "inputs": [
        {
          "internalType": "address",
          "name": "account",
          "type": "address"
        }
      ],
      "name": "balanceOf",
      "outputs": [
        {
          "internalType": "uint256",
          "name": "",
          "type": "uint256"
        }
      ],
      "stateMutability": "view",
      "type": "function",
      "constant": true
    },
    {
      "inputs": [],
      "name": "decimals",
      "outputs": [
        {
          "internalType": "uint8",
          "name": "",
          "type": "uint8"
        }
      ],
      "stateMutability": "view",
      "type": "function",
      "constant": true
    },
    {
      "inputs": [
        {
          "internalType": "address",
          "name": "spender",
          "type": "address"
        },
        {
          "internalType": "uint256",
          "name": "subtractedValue",
          "type": "uint256"
        }
      ],
      "name": "decreaseAllowance",
      "outputs": [
        {
          "internalType": "bool",
          "name": "",
          "type": "bool"
        }
      ],
      "stateMutability": "nonpayable",
      "type": "function"
    },
    {
      "inputs": [
        {
          "internalType": "address",
          "name": "spender",
          "type": "address"
        },
        {
          "internalType": "uint256",
          "name": "addedValue",
          "type": "uint256"
        }
      ],
      "name": "increaseAllowance",
      "outputs": [
        {
          "internalType": "bool",
          "name": "",
          "type": "bool"
        }
      ],
      "stateMutability": "nonpayable",
      "type": "function"
    },
    {
      "inputs": [],
      "name": "name",
      "outputs": [
        {
          "internalType": "string",
          "name": "",
          "type": "string"
        }
      ],
      "stateMutability": "view",
      "type": "function",
      "constant": true
    },
    {
      "inputs": [],
      "name": "onSale",
      "outputs": [
        {
          "internalType": "bool",
          "name": "",
          "type": "bool"
        }
      ],
      "stateMutability": "view",
      "type": "function",
      "constant": true
    },
    {
      "inputs": [],
      "name": "owner",
      "outputs": [
        {
          "internalType": "address",
          "name": "",
          "type": "address"
        }
      ],
      "stateMutability": "view",
      "type": "function",
      "constant": true
    },
    {
      "inputs": [],
      "name": "renounceOwnership",
      "outputs": [],
      "stateMutability": "nonpayable",
      "type": "function"
    },
    {
      "inputs": [],
      "name": "startSale",
      "outputs": [],
      "stateMutability": "nonpayable",
      "type": "function"
    },
    {
      "inputs": [],
      "name": "stopSale",
      "outputs": [],
      "stateMutability": "nonpayable",
      "type": "function"
    },
    {
      "inputs": [],
      "name": "symbol",
      "outputs": [
        {
          "internalType": "string",
          "name": "",
          "type": "string"
        }
      ],
      "stateMutability": "view",
      "type": "function",
      "constant": true
    },
    {
      "inputs": [],
      "name": "tokensSold",
      "outputs": [
        {
          "internalType": "uint256",
          "name": "",
          "type": "uint256"
        }
      ],
      "stateMutability": "view",
      "type": "function",
      "constant": true
    },
    {
      "inputs": [],
      "name": "totalSupply",
      "outputs": [
        {
          "internalType": "uint256",
          "name": "",
          "type": "uint256"
        }
      ],
      "stateMutability": "view",
      "type": "function",
      "constant": true
    },
    {
      "inputs": [
        {
          "internalType": "address",
          "name": "recipient",
          "type": "address"
        },
        {
          "internalType": "uint256",
          "name": "amount",
          "type": "uint256"
        }
      ],
      "name": "transfer",
      "outputs": [
        {
          "internalType": "bool",
          "name": "",
          "type": "bool"
        }
      ],
      "stateMutability": "nonpayable",
      "type": "function"
    },
    {
      "inputs": [
        {
          "internalType": "address",
          "name": "sender",
          "type": "address"
        },
        {
          "internalType": "address",
          "name": "recipient",
          "type": "address"
        },
        {
          "internalType": "uint256",
          "name": "amount",
          "type": "uint256"
        }
      ],
      "name": "transferFrom",
      "outputs": [
        {
          "internalType": "bool",
          "name": "",
          "type": "bool"
        }
      ],
      "stateMutability": "nonpayable",
      "type": "function"
    },
    {
      "inputs": [
        {
          "internalType": "address",
          "name": "newOwner",
          "type": "address"
        }
      ],
      "name": "transferOwnership",
      "outputs": [],
      "stateMutability": "nonpayable",
      "type": "function"
    },
    {
      "inputs": [],
      "name": "currentPrice",
      "outputs": [
        {
          "internalType": "uint256",
          "name": "",
          "type": "uint256"
        }
      ],
      "stateMutability": "view",
      "type": "function",
      "constant": true
    },
    {
      "inputs": [
        {
          "internalType": "uint256",
          "name": "_numberOfTokens",
          "type": "uint256"
        }
      ],
      "name": "buyTokens",
      "outputs": [
        {
          "internalType": "bool",
          "name": "",
          "type": "bool"
        }
      ],
      "stateMutability": "payable",
      "type": "function",
      "payable": true
    }
  ],
  "bytecode": "0x60806040526001600560146101000a81548160ff0219169083151502179055503480156200002c57600080fd5b506040516200239a3803806200239a8339818101604052810190620000529190620002c3565b6040518060400160405280600d81526020017f426974636f696e20546f6b656e000000000000000000000000000000000000008152506040518060400160405280600381526020017f42544300000000000000000000000000000000000000000000000000000000008152508160039080519060200190620000d6929190620001fc565b508060049080519060200190620000ef929190620001fc565b505050600062000104620001f460201b60201c565b905080600560006101000a81548173ffffffffffffffffffffffffffffffffffffffff021916908373ffffffffffffffffffffffffffffffffffffffff1602179055508073ffffffffffffffffffffffffffffffffffffffff16600073ffffffffffffffffffffffffffffffffffffffff167f8be0079c531659141344cd1fd0a4f28419497f9722a3daafe3b4186f6b6457e060405160405180910390a350806000803373ffffffffffffffffffffffffffffffffffffffff1673ffffffffffffffffffffffffffffffffffffffff16815260200190815260200160002081905550806002819055505062000378565b600033905090565b8280546200020a90620002f9565b90600052602060002090601f0160209004810192826200022e57600085556200027a565b82601f106200024957805160ff19168380011785556200027a565b828001600101855582156200027a579182015b82811115620002795782518255916020019190600101906200025c565b5b5090506200028991906200028d565b5090565b5b80821115620002a85760008160009055506001016200028e565b5090565b600081519050620002bd816200035e565b92915050565b600060208284031215620002d657600080fd5b6000620002e684828501620002ac565b91505092915050565b6000819050919050565b600060028204905060018216806200031257607f821691505b602082108114156200032957620003286200032f565b5b50919050565b7f4e487b7100000000000000000000000000000000000000000000000000000000600052602260045260246000fd5b6200036981620002ef565b81146200037557600080fd5b50565b61201280620003886000396000f3fe60806040526004361061011f5760003560e01c8063715018a6116100a0578063a9059cbb11610064578063a9059cbb146103f4578063b66a0e5d14610431578063dd62ed3e14610448578063e36b0b3714610485578063f2fde38b1461049c5761011f565b8063715018a61461031f5780638da5cb5b1461033657806395d89b41146103615780639d1b464a1461038c578063a457c2d7146103b75761011f565b8063326687b9116100e7578063326687b91461021f5780633610724e1461024a578063395093511461027a578063518ab2a8146102b757806370a08231146102e25761011f565b806306fdde0314610124578063095ea7b31461014f57806318160ddd1461018c57806323b872dd146101b7578063313ce567146101f4575b600080fd5b34801561013057600080fd5b506101396104c5565b604051610146919061178e565b60405180910390f35b34801561015b57600080fd5b506101766004803603810190610171919061151a565b610557565b6040516101839190611773565b60405180910390f35b34801561019857600080fd5b506101a1610575565b6040516101ae91906118d0565b60405180910390f35b3480156101c357600080fd5b506101de60048036038101906101d991906114cb565b61057f565b6040516101eb9190611773565b60405180910390f35b34801561020057600080fd5b50610209610680565b60405161021691906118eb565b60405180910390f35b34801561022b57600080fd5b50610234610689565b6040516102419190611773565b60405180910390f35b610264600480360381019061025f9190611556565b61069c565b6040516102719190611773565b60405180910390f35b34801561028657600080fd5b506102a1600480360381019061029c919061151a565b61078c565b6040516102ae9190611773565b60405180910390f35b3480156102c357600080fd5b506102cc610838565b6040516102d991906118d0565b60405180910390f35b3480156102ee57600080fd5b5061030960048036038101906103049190611466565b61083e565b60405161031691906118d0565b60405180910390f35b34801561032b57600080fd5b50610334610886565b005b34801561034257600080fd5b5061034b6109c3565b604051610358919061172f565b60405180910390f35b34801561036d57600080fd5b506103766109ed565b604051610383919061178e565b60405180910390f35b34801561039857600080fd5b506103a1610a7f565b6040516103ae91906118d0565b60405180910390f35b3480156103c357600080fd5b506103de60048036038101906103d9919061151a565b610aad565b6040516103eb9190611773565b60405180910390f35b34801561040057600080fd5b5061041b6004803603810190610416919061151a565b610ba1565b6040516104289190611773565b60405180910390f35b34801561043d57600080fd5b50610446610bbf565b005b34801561045457600080fd5b5061046f600480360381019061046a919061148f565b610c84565b60405161047c91906118d0565b60405180910390f35b34801561049157600080fd5b5061049a610d0b565b005b3480156104a857600080fd5b506104c360048036038101906104be9190611466565b610dd0565b005b6060600380546104d490611c30565b80601f016020809104026020016040519081016040528092919081815260200182805461050090611c30565b801561054d5780601f106105225761010080835404028352916020019161054d565b820191906000526020600020905b81548152906001019060200180831161053057829003601f168201915b5050505050905090565b600061056b610564610f7c565b8484610f84565b6001905092915050565b6000600254905090565b600061058c84848461114f565b6000600160008673ffffffffffffffffffffffffffffffffffffffff1673ffffffffffffffffffffffffffffffffffffffff16815260200190815260200160002060006105d7610f7c565b73ffffffffffffffffffffffffffffffffffffffff1673ffffffffffffffffffffffffffffffffffffffff16815260200190815260200160002054905082811015610657576040517f08c379a000000000000000000000000000000000000000000000000000000000815260040161064e90611830565b60405180910390fd5b61067485610663610f7c565b858461066f9190611b74565b610f84565b60019150509392505050565b60006012905090565b600560149054906101000a900460ff1681565b6000600560149054906101000a900460ff166106b757600080fd5b6106d16106c2610a7f565b836113ce90919063ffffffff16565b34146106dc57600080fd5b816000803373ffffffffffffffffffffffffffffffffffffffff1673ffffffffffffffffffffffffffffffffffffffff168152602001908152602001600020600082825461072a9190611922565b9250508190555081600660008282546107439190611922565b925050819055507f5e5e995ce3133561afceaa51a9a154d5db228cd7525d34df5185582c18d3df09338360405161077b92919061174a565b60405180910390a160019050919050565b600061082e610799610f7c565b8484600160006107a7610f7c565b73ffffffffffffffffffffffffffffffffffffffff1673ffffffffffffffffffffffffffffffffffffffff16815260200190815260200160002060008873ffffffffffffffffffffffffffffffffffffffff1673ffffffffffffffffffffffffffffffffffffffff168152602001908152602001600020546108299190611922565b610f84565b6001905092915050565b60065481565b60008060008373ffffffffffffffffffffffffffffffffffffffff1673ffffffffffffffffffffffffffffffffffffffff168152602001908152602001600020549050919050565b61088e610f7c565b73ffffffffffffffffffffffffffffffffffffffff166108ac6109c3565b73ffffffffffffffffffffffffffffffffffffffff1614610902576040517f08c379a00000000000000000000000000000000000000000000000000000000081526004016108f990611850565b60405180910390fd5b600073ffffffffffffffffffffffffffffffffffffffff16600560009054906101000a900473ffffffffffffffffffffffffffffffffffffffff1673ffffffffffffffffffffffffffffffffffffffff167f8be0079c531659141344cd1fd0a4f28419497f9722a3daafe3b4186f6b6457e060405160405180910390a36000600560006101000a81548173ffffffffffffffffffffffffffffffffffffffff021916908373ffffffffffffffffffffffffffffffffffffffff160217905550565b6000600560009054906101000a900473ffffffffffffffffffffffffffffffffffffffff16905090565b6060600480546109fc90611c30565b80601f0160208091040260200160405190810160405280929190818152602001828054610a2890611c30565b8015610a755780601f10610a4a57610100808354040283529160200191610a75565b820191906000526020600020905b815481529060010190602001808311610a5857829003601f168201915b5050505050905090565b60006001600a600654610a929190611978565b610a9c9190611922565b6003610aa891906119fc565b905090565b60008060016000610abc610f7c565b73ffffffffffffffffffffffffffffffffffffffff1673ffffffffffffffffffffffffffffffffffffffff16815260200190815260200160002060008573ffffffffffffffffffffffffffffffffffffffff1673ffffffffffffffffffffffffffffffffffffffff16815260200190815260200160002054905082811015610b79576040517f08c379a0000000000000000000000000000000000000000000000000000000008152600401610b70906118b0565b60405180910390fd5b610b96610b84610f7c565b858584610b919190611b74565b610f84565b600191505092915050565b6000610bb5610bae610f7c565b848461114f565b6001905092915050565b610bc7610f7c565b73ffffffffffffffffffffffffffffffffffffffff16610be56109c3565b73ffffffffffffffffffffffffffffffffffffffff1614610c3b576040517f08c379a0000000000000000000000000000000000000000000000000000000008152600401610c3290611850565b60405180910390fd5b6001600560146101000a81548160ff0219169083151502179055507f2970f486ad806233ea3b1e73f4ddd8c09c6051509aec326fb4ea2cad7dacce9c60405160405180910390a1565b6000600160008473ffffffffffffffffffffffffffffffffffffffff1673ffffffffffffffffffffffffffffffffffffffff16815260200190815260200160002060008373ffffffffffffffffffffffffffffffffffffffff1673ffffffffffffffffffffffffffffffffffffffff16815260200190815260200160002054905092915050565b610d13610f7c565b73ffffffffffffffffffffffffffffffffffffffff16610d316109c3565b73ffffffffffffffffffffffffffffffffffffffff1614610d87576040517f08c379a0000000000000000000000000000000000000000000000000000000008152600401610d7e90611850565b60405180910390fd5b6000600560146101000a81548160ff0219169083151502179055507f8838583ad4691f61e626167788a96d8d37104b56c175347b02da48a7a3a9882860405160405180910390a1565b610dd8610f7c565b73ffffffffffffffffffffffffffffffffffffffff16610df66109c3565b73ffffffffffffffffffffffffffffffffffffffff1614610e4c576040517f08c379a0000000000000000000000000000000000000000000000000000000008152600401610e4390611850565b60405180910390fd5b600073ffffffffffffffffffffffffffffffffffffffff168173ffffffffffffffffffffffffffffffffffffffff161415610ebc576040517f08c379a0000000000000000000000000000000000000000000000000000000008152600401610eb3906117d0565b60405180910390fd5b8073ffffffffffffffffffffffffffffffffffffffff16600560009054906101000a900473ffffffffffffffffffffffffffffffffffffffff1673ffffffffffffffffffffffffffffffffffffffff167f8be0079c531659141344cd1fd0a4f28419497f9722a3daafe3b4186f6b6457e060405160405180910390a380600560006101000a81548173ffffffffffffffffffffffffffffffffffffffff021916908373ffffffffffffffffffffffffffffffffffffffff16021790555050565b600033905090565b600073ffffffffffffffffffffffffffffffffffffffff168373ffffffffffffffffffffffffffffffffffffffff161415610ff4576040517f08c379a0000000000000000000000000000000000000000000000000000000008152600401610feb90611890565b60405180910390fd5b600073ffffffffffffffffffffffffffffffffffffffff168273ffffffffffffffffffffffffffffffffffffffff161415611064576040517f08c379a000000000000000000000000000000000000000000000000000000000815260040161105b906117f0565b60405180910390fd5b80600160008573ffffffffffffffffffffffffffffffffffffffff1673ffffffffffffffffffffffffffffffffffffffff16815260200190815260200160002060008473ffffffffffffffffffffffffffffffffffffffff1673ffffffffffffffffffffffffffffffffffffffff168152602001908152602001600020819055508173ffffffffffffffffffffffffffffffffffffffff168373ffffffffffffffffffffffffffffffffffffffff167f8c5be1e5ebec7d5bd14f71427d1e84f3dd0314c0f7b2291e5b200ac8c7c3b9258360405161114291906118d0565b60405180910390a3505050565b600073ffffffffffffffffffffffffffffffffffffffff168373ffffffffffffffffffffffffffffffffffffffff1614156111bf576040517f08c379a00000000000000000000000000000000000000000000000000000000081526004016111b690611870565b60405180910390fd5b600073ffffffffffffffffffffffffffffffffffffffff168273ffffffffffffffffffffffffffffffffffffffff16141561122f576040517f08c379a0000000000000000000000000000000000000000000000000000000008152600401611226906117b0565b60405180910390fd5b61123a838383611437565b60008060008573ffffffffffffffffffffffffffffffffffffffff1673ffffffffffffffffffffffffffffffffffffffff168152602001908152602001600020549050818110156112c0576040517f08c379a00000000000000000000000000000000000000000000000000000000081526004016112b790611810565b60405180910390fd5b81816112cc9190611b74565b6000808673ffffffffffffffffffffffffffffffffffffffff1673ffffffffffffffffffffffffffffffffffffffff16815260200190815260200160002081905550816000808573ffffffffffffffffffffffffffffffffffffffff1673ffffffffffffffffffffffffffffffffffffffff168152602001908152602001600020600082825461135c9190611922565b925050819055508273ffffffffffffffffffffffffffffffffffffffff168473ffffffffffffffffffffffffffffffffffffffff167fddf252ad1be2c89b69c2b068fc378daa952ba7f163c4a11628f55a4df523b3ef846040516113c091906118d0565b60405180910390a350505050565b6000808314156113e15760009050611431565b81836113ed9190611b1a565b90508183826113fc9190611978565b14611430577f4e487b7100000000000000000000000000000000000000000000000000000000600052600160045260246000fd5b5b92915050565b505050565b60008135905061144b81611fae565b92915050565b60008135905061146081611fc5565b92915050565b60006020828403121561147857600080fd5b60006114868482850161143c565b91505092915050565b600080604083850312156114a257600080fd5b60006114b08582860161143c565b92505060206114c18582860161143c565b9150509250929050565b6000806000606084860312156114e057600080fd5b60006114ee8682870161143c565b93505060206114ff8682870161143c565b925050604061151086828701611451565b9150509250925092565b6000806040838503121561152d57600080fd5b600061153b8582860161143c565b925050602061154c85828601611451565b9150509250929050565b60006020828403121561156857600080fd5b600061157684828501611451565b91505092915050565b61158881611ba8565b82525050565b61159781611bba565b82525050565b60006115a882611906565b6115b28185611911565b93506115c2818560208601611bfd565b6115cb81611cef565b840191505092915050565b60006115e3602383611911565b91506115ee82611d0d565b604082019050919050565b6000611606602683611911565b915061161182611d5c565b604082019050919050565b6000611629602283611911565b915061163482611dab565b604082019050919050565b600061164c602683611911565b915061165782611dfa565b604082019050919050565b600061166f602883611911565b915061167a82611e49565b604082019050919050565b6000611692602083611911565b915061169d82611e98565b602082019050919050565b60006116b5602583611911565b91506116c082611ec1565b604082019050919050565b60006116d8602483611911565b91506116e382611f10565b604082019050919050565b60006116fb602583611911565b915061170682611f5f565b604082019050919050565b61171a81611be6565b82525050565b61172981611bf0565b82525050565b6000602082019050611744600083018461157f565b92915050565b600060408201905061175f600083018561157f565b61176c6020830184611711565b9392505050565b6000602082019050611788600083018461158e565b92915050565b600060208201905081810360008301526117a8818461159d565b905092915050565b600060208201905081810360008301526117c9816115d6565b9050919050565b600060208201905081810360008301526117e9816115f9565b9050919050565b600060208201905081810360008301526118098161161c565b9050919050565b600060208201905081810360008301526118298161163f565b9050919050565b6000602082019050818103600083015261184981611662565b9050919050565b6000602082019050818103600083015261186981611685565b9050919050565b60006020820190508181036000830152611889816116a8565b9050919050565b600060208201905081810360008301526118a9816116cb565b9050919050565b600060208201905081810360008301526118c9816116ee565b9050919050565b60006020820190506118e56000830184611711565b92915050565b60006020820190506119006000830184611720565b92915050565b600081519050919050565b600082825260208201905092915050565b600061192d82611be6565b915061193883611be6565b9250827fffffffffffffffffffffffffffffffffffffffffffffffffffffffffffffffff0382111561196d5761196c611c62565b5b828201905092915050565b600061198382611be6565b915061198e83611be6565b92508261199e5761199d611c91565b5b828204905092915050565b6000808291508390505b60018511156119f3578086048111156119cf576119ce611c62565b5b60018516156119de5780820291505b80810290506119ec85611d00565b94506119b3565b94509492505050565b6000611a0782611be6565b9150611a1283611be6565b9250611a3f7fffffffffffffffffffffffffffffffffffffffffffffffffffffffffffffffff8484611a47565b905092915050565b600082611a575760019050611b13565b81611a655760009050611b13565b8160018114611a7b5760028114611a8557611ab4565b6001915050611b13565b60ff841115611a9757611a96611c62565b5b8360020a915084821115611aae57611aad611c62565b5b50611b13565b5060208310610133831016604e8410600b8410161715611ae95782820a905083811115611ae457611ae3611c62565b5b611b13565b611af684848460016119a9565b92509050818404811115611b0d57611b0c611c62565b5b81810290505b9392505050565b6000611b2582611be6565b9150611b3083611be6565b9250817fffffffffffffffffffffffffffffffffffffffffffffffffffffffffffffffff0483118215151615611b6957611b68611c62565b5b828202905092915050565b6000611b7f82611be6565b9150611b8a83611be6565b925082821015611b9d57611b9c611c62565b5b828203905092915050565b6000611bb382611bc6565b9050919050565b60008115159050919050565b600073ffffffffffffffffffffffffffffffffffffffff82169050919050565b6000819050919050565b600060ff82169050919050565b60005b83811015611c1b578082015181840152602081019050611c00565b83811115611c2a576000848401525b50505050565b60006002820490506001821680611c4857607f821691505b60208210811415611c5c57611c5b611cc0565b5b50919050565b7f4e487b7100000000000000000000000000000000000000000000000000000000600052601160045260246000fd5b7f4e487b7100000000000000000000000000000000000000000000000000000000600052601260045260246000fd5b7f4e487b7100000000000000000000000000000000000000000000000000000000600052602260045260246000fd5b6000601f19601f8301169050919050565b60008160011c9050919050565b7f45524332303a207472616e7366657220746f20746865207a65726f206164647260008201527f6573730000000000000000000000000000000000000000000000000000000000602082015250565b7f4f776e61626c653a206e6577206f776e657220697320746865207a65726f206160008201527f6464726573730000000000000000000000000000000000000000000000000000602082015250565b7f45524332303a20617070726f766520746f20746865207a65726f20616464726560008201527f7373000000000000000000000000000000000000000000000000000000000000602082015250565b7f45524332303a207472616e7366657220616d6f756e742065786365656473206260008201527f616c616e63650000000000000000000000000000000000000000000000000000602082015250565b7f45524332303a207472616e7366657220616d6f756e742065786365656473206160008201527f6c6c6f77616e6365000000000000000000000000000000000000000000000000602082015250565b7f4f776e61626c653a2063616c6c6572206973206e6f7420746865206f776e6572600082015250565b7f45524332303a207472616e736665722066726f6d20746865207a65726f20616460008201527f6472657373000000000000000000000000000000000000000000000000000000602082015250565b7f45524332303a20617070726f76652066726f6d20746865207a65726f2061646460008201527f7265737300000000000000000000000000000000000000000000000000000000602082015250565b7f45524332303a2064656372656173656420616c6c6f77616e63652062656c6f7760008201527f207a65726f000000000000000000000000000000000000000000000000000000602082015250565b611fb781611ba8565b8114611fc257600080fd5b50565b611fce81611be6565b8114611fd957600080fd5b5056fea26469706673582212200c12016b765a9f77dcda86594d031c841cc70fc2e502f2de02551470787fba9a64736f6c63430008040033",
  "immutableReferences": {},
  "source": "pragma solidity ^0.8.4;\r\n\r\nimport \"./utils/Safemath.sol\";\r\nimport \"./extensions/Ownable.sol\";\r\nimport \"./extensions/ERC20.sol\";\r\nimport \"./extensions/Saleable.sol\";\r\n\r\n\r\ncontract BtcToken is ERC20, Ownable, Saleable {\r\n    using SafeMath for uint256;\r\n\r\n    uint8 constant exp = 3;\r\n\r\n    constructor(uint256 _initialSupply) ERC20('Bitcoin Token', 'BTC') {\r\n        _balances[msg.sender] = _initialSupply;\r\n        _totalSupply = _initialSupply;\r\n    }\r\n\r\n    function currentPrice() public view returns (uint256){\r\n        return 3 ** (tokensSold / 10 + 1);\r\n    }\r\n\r\n    function buyTokens(uint256 _numberOfTokens) public payable returns (bool){\r\n        //Check Tokens re on the sale\r\n        require(onSale);\r\n\r\n        //Require that value is equal to tokens\r\n        require(msg.value == _numberOfTokens.mul(currentPrice()));\r\n\r\n        //Send tokens\r\n        _balances[msg.sender] += _numberOfTokens;\r\n\r\n        //Require that a transfer is successful\r\n        tokensSold += _numberOfTokens;\r\n\r\n        //Trigger Sell event\r\n        emit Sell(msg.sender, _numberOfTokens);\r\n        return true;\r\n    }\r\n\r\n}\r\n",
  "sourcePath": "C:/Users/Yunis/WebstormProjects/untitled/contracts/BtcToken.sol",
  "compiler": {
    "name": "solc",
    "version": "0.8.4+commit.c7e474f2.Emscripten.clang"
  },
  "schemaVersion": "3.4.0",
  "updatedAt": "2021-05-02T13:31:54.290Z",
  "networkType": "ethereum",
  "devdoc": {
    "kind": "dev",
    "methods": {
      "allowance(address,address)": {
        "details": "See {IERC20-allowance}."
      },
      "approve(address,uint256)": {
        "details": "See {IERC20-approve}. Requirements: - `spender` cannot be the zero address."
      },
      "balanceOf(address)": {
        "details": "See {IERC20-balanceOf}."
      },
      "decimals()": {
        "details": "Returns the number of decimals used to get its user representation. For example, if `decimals` equals `2`, a balance of `505` tokens should be displayed to a user as `5,05` (`505 / 10 ** 2`). Tokens usually opt for a value of 18, imitating the relationship between Ether and Wei. This is the value {ERC20} uses, unless this function is overridden; NOTE: This information is only used for _display_ purposes: it in no way affects any of the arithmetic of the contract, including {IERC20-balanceOf} and {IERC20-transfer}."
      },
      "decreaseAllowance(address,uint256)": {
        "details": "Atomically decreases the allowance granted to `spender` by the caller. This is an alternative to {approve} that can be used as a mitigation for problems described in {IERC20-approve}. Emits an {Approval} event indicating the updated allowance. Requirements: - `spender` cannot be the zero address. - `spender` must have allowance for the caller of at least `subtractedValue`."
      },
      "increaseAllowance(address,uint256)": {
        "details": "Atomically increases the allowance granted to `spender` by the caller. This is an alternative to {approve} that can be used as a mitigation for problems described in {IERC20-approve}. Emits an {Approval} event indicating the updated allowance. Requirements: - `spender` cannot be the zero address."
      },
      "name()": {
        "details": "Returns the name of the token."
      },
      "owner()": {
        "details": "Returns the address of the current owner."
      },
      "renounceOwnership()": {
        "details": "Leaves the contract without owner. It will not be possible to call `onlyOwner` functions anymore. Can only be called by the current owner. NOTE: Renouncing ownership will leave the contract without an owner, thereby removing any functionality that is only available to the owner."
      },
      "symbol()": {
        "details": "Returns the symbol of the token, usually a shorter version of the name."
      },
      "totalSupply()": {
        "details": "See {IERC20-totalSupply}."
      },
      "transfer(address,uint256)": {
        "details": "See {IERC20-transfer}. Requirements: - `recipient` cannot be the zero address. - the caller must have a balance of at least `amount`."
      },
      "transferFrom(address,address,uint256)": {
        "details": "See {IERC20-transferFrom}. Emits an {Approval} event indicating the updated allowance. This is not required by the EIP. See the note at the beginning of {ERC20}. Requirements: - `sender` and `recipient` cannot be the zero address. - `sender` must have a balance of at least `amount`. - the caller must have allowance for ``sender``'s tokens of at least `amount`."
      },
      "transferOwnership(address)": {
        "details": "Transfers ownership of the contract to a new account (`newOwner`). Can only be called by the current owner."
      }
    },
    "version": 1
  },
  "userdoc": {
    "kind": "user",
    "methods": {},
    "version": 1
  }
}