{
  "contractName": "Saleable",
  "abi": [
    {
      "anonymous": false,
      "inputs": [
        {
          "indexed": true,
          "internalType": "address",
          "name": "previousOwner",
          "type": "address"
        },
        {
          "indexed": true,
          "internalType": "address",
          "name": "newOwner",
          "type": "address"
        }
      ],
      "name": "OwnershipTransferred",
      "type": "event"
    },
    {
      "anonymous": false,
      "inputs": [
        {
          "indexed": false,
          "internalType": "address",
          "name": "_buyer",
          "type": "address"
        },
        {
          "indexed": false,
          "internalType": "uint256",
          "name": "_amount",
          "type": "uint256"
        }
      ],
      "name": "Sell",
      "type": "event"
    },
    {
      "anonymous": false,
      "inputs": [],
      "name": "StartSelling",
      "type": "event"
    },
    {
      "anonymous": false,
      "inputs": [],
      "name": "StopSelling",
      "type": "event"
    },
    {
      "inputs": [],
      "name": "onSale",
      "outputs": [
        {
          "internalType": "bool",
          "name": "",
          "type": "bool"
        }
      ],
      "stateMutability": "view",
      "type": "function"
    },
    {
      "inputs": [],
      "name": "owner",
      "outputs": [
        {
          "internalType": "address",
          "name": "",
          "type": "address"
        }
      ],
      "stateMutability": "view",
      "type": "function"
    },
    {
      "inputs": [],
      "name": "renounceOwnership",
      "outputs": [],
      "stateMutability": "nonpayable",
      "type": "function"
    },
    {
      "inputs": [],
      "name": "tokensSold",
      "outputs": [
        {
          "internalType": "uint256",
          "name": "",
          "type": "uint256"
        }
      ],
      "stateMutability": "view",
      "type": "function"
    },
    {
      "inputs": [
        {
          "internalType": "address",
          "name": "newOwner",
          "type": "address"
        }
      ],
      "name": "transferOwnership",
      "outputs": [],
      "stateMutability": "nonpayable",
      "type": "function"
    },
    {
      "inputs": [],
      "name": "stopSale",
      "outputs": [],
      "stateMutability": "nonpayable",
      "type": "function"
    },
    {
      "inputs": [],
      "name": "startSale",
      "outputs": [],
      "stateMutability": "nonpayable",
      "type": "function"
    }
  ],
  "bytecode": "0x60806040526001600060146101000a81548160ff02191690831515021790555034801561002b57600080fd5b50600061003c6100df60201b60201c565b9050806000806101000a81548173ffffffffffffffffffffffffffffffffffffffff021916908373ffffffffffffffffffffffffffffffffffffffff1602179055508073ffffffffffffffffffffffffffffffffffffffff16600073ffffffffffffffffffffffffffffffffffffffff167f8be0079c531659141344cd1fd0a4f28419497f9722a3daafe3b4186f6b6457e060405160405180910390a3506100e7565b600033905090565b61082c806100f66000396000f3fe608060405234801561001057600080fd5b506004361061007d5760003560e01c80638da5cb5b1161005b5780638da5cb5b146100c8578063b66a0e5d146100e6578063e36b0b37146100f0578063f2fde38b146100fa5761007d565b8063326687b914610082578063518ab2a8146100a0578063715018a6146100be575b600080fd5b61008a610116565b6040516100979190610698565b60405180910390f35b6100a8610129565b6040516100b591906106f3565b60405180910390f35b6100c661012f565b005b6100d0610269565b6040516100dd919061067d565b60405180910390f35b6100ee610292565b005b6100f8610357565b005b610114600480360381019061010f91906105e1565b61041b565b005b600060149054906101000a900460ff1681565b60015481565b6101376105c4565b73ffffffffffffffffffffffffffffffffffffffff16610155610269565b73ffffffffffffffffffffffffffffffffffffffff16146101ab576040517f08c379a00000000000000000000000000000000000000000000000000000000081526004016101a2906106d3565b60405180910390fd5b600073ffffffffffffffffffffffffffffffffffffffff1660008054906101000a900473ffffffffffffffffffffffffffffffffffffffff1673ffffffffffffffffffffffffffffffffffffffff167f8be0079c531659141344cd1fd0a4f28419497f9722a3daafe3b4186f6b6457e060405160405180910390a360008060006101000a81548173ffffffffffffffffffffffffffffffffffffffff021916908373ffffffffffffffffffffffffffffffffffffffff160217905550565b60008060009054906101000a900473ffffffffffffffffffffffffffffffffffffffff16905090565b61029a6105c4565b73ffffffffffffffffffffffffffffffffffffffff166102b8610269565b73ffffffffffffffffffffffffffffffffffffffff161461030e576040517f08c379a0000000000000000000000000000000000000000000000000000000008152600401610305906106d3565b60405180910390fd5b6001600060146101000a81548160ff0219169083151502179055507f2970f486ad806233ea3b1e73f4ddd8c09c6051509aec326fb4ea2cad7dacce9c60405160405180910390a1565b61035f6105c4565b73ffffffffffffffffffffffffffffffffffffffff1661037d610269565b73ffffffffffffffffffffffffffffffffffffffff16146103d3576040517f08c379a00000000000000000000000000000000000000000000000000000000081526004016103ca906106d3565b60405180910390fd5b60008060146101000a81548160ff0219169083151502179055507f8838583ad4691f61e626167788a96d8d37104b56c175347b02da48a7a3a9882860405160405180910390a1565b6104236105c4565b73ffffffffffffffffffffffffffffffffffffffff16610441610269565b73ffffffffffffffffffffffffffffffffffffffff1614610497576040517f08c379a000000000000000000000000000000000000000000000000000000000815260040161048e906106d3565b60405180910390fd5b600073ffffffffffffffffffffffffffffffffffffffff168173ffffffffffffffffffffffffffffffffffffffff161415610507576040517f08c379a00000000000000000000000000000000000000000000000000000000081526004016104fe906106b3565b60405180910390fd5b8073ffffffffffffffffffffffffffffffffffffffff1660008054906101000a900473ffffffffffffffffffffffffffffffffffffffff1673ffffffffffffffffffffffffffffffffffffffff167f8be0079c531659141344cd1fd0a4f28419497f9722a3daafe3b4186f6b6457e060405160405180910390a3806000806101000a81548173ffffffffffffffffffffffffffffffffffffffff021916908373ffffffffffffffffffffffffffffffffffffffff16021790555050565b600033905090565b6000813590506105db816107df565b92915050565b6000602082840312156105f357600080fd5b6000610601848285016105cc565b91505092915050565b6106138161071f565b82525050565b61062281610731565b82525050565b600061063560268361070e565b915061064082610767565b604082019050919050565b600061065860208361070e565b9150610663826107b6565b602082019050919050565b6106778161075d565b82525050565b6000602082019050610692600083018461060a565b92915050565b60006020820190506106ad6000830184610619565b92915050565b600060208201905081810360008301526106cc81610628565b9050919050565b600060208201905081810360008301526106ec8161064b565b9050919050565b6000602082019050610708600083018461066e565b92915050565b600082825260208201905092915050565b600061072a8261073d565b9050919050565b60008115159050919050565b600073ffffffffffffffffffffffffffffffffffffffff82169050919050565b6000819050919050565b7f4f776e61626c653a206e6577206f776e657220697320746865207a65726f206160008201527f6464726573730000000000000000000000000000000000000000000000000000602082015250565b7f4f776e61626c653a2063616c6c6572206973206e6f7420746865206f776e6572600082015250565b6107e88161071f565b81146107f357600080fd5b5056fea26469706673582212200df4bb2cc6550344e658e62d8950e3bb46901207ae48684dad12f68b412ae14764736f6c63430008040033",
  "immutableReferences": {},
  "source": "pragma solidity ^0.8.4;\r\n\r\nimport \"./Ownable.sol\";\r\n\r\ncontract Saleable is Ownable {\r\n    bool public onSale = true;\r\n    uint256 public tokensSold;\r\n\r\n    event Sell(address _buyer, uint256 _amount);\r\n    event StopSelling();\r\n    event StartSelling();\r\n\r\n    function stopSale() public onlyOwner {\r\n\r\n        onSale = false;\r\n        emit StopSelling();\r\n    }\r\n\r\n    function startSale() public onlyOwner {\r\n\r\n        onSale = true;\r\n        emit StartSelling();\r\n    }\r\n}\r\n",
  "sourcePath": "C:\\Users\\Yunis\\WebstormProjects\\untitled\\contracts\\extensions\\Saleable.sol",
  "compiler": {
    "name": "solc",
    "version": "0.8.4+commit.c7e474f2.Emscripten.clang"
  },
  "schemaVersion": "3.4.0",
  "updatedAt": "2021-05-02T13:31:51.545Z",
  "devdoc": {
    "kind": "dev",
    "methods": {
      "owner()": {
        "details": "Returns the address of the current owner."
      },
      "renounceOwnership()": {
        "details": "Leaves the contract without owner. It will not be possible to call `onlyOwner` functions anymore. Can only be called by the current owner. NOTE: Renouncing ownership will leave the contract without an owner, thereby removing any functionality that is only available to the owner."
      },
      "transferOwnership(address)": {
        "details": "Transfers ownership of the contract to a new account (`newOwner`). Can only be called by the current owner."
      }
    },
    "version": 1
  },
  "userdoc": {
    "kind": "user",
    "methods": {},
    "version": 1
  }
}