{
  "contractName": "YunBtcCake",
  "abi": [
    {
      "inputs": [
        {
          "internalType": "contract BtcToken",
          "name": "_btcContract",
          "type": "address"
        },
        {
          "internalType": "contract YunToken",
          "name": "_yunContract",
          "type": "address"
        }
      ],
      "stateMutability": "nonpayable",
      "type": "constructor"
    },
    {
      "anonymous": false,
      "inputs": [
        {
          "indexed": true,
          "internalType": "address",
          "name": "sender",
          "type": "address"
        },
        {
          "indexed": false,
          "internalType": "uint256",
          "name": "amountBTC",
          "type": "uint256"
        },
        {
          "indexed": false,
          "internalType": "uint256",
          "name": "amountYUN",
          "type": "uint256"
        },
        {
          "indexed": false,
          "internalType": "uint256",
          "name": "liquidity",
          "type": "uint256"
        }
      ],
      "name": "AddLiquidity",
      "type": "event"
    },
    {
      "anonymous": false,
      "inputs": [
        {
          "indexed": true,
          "internalType": "address",
          "name": "owner",
          "type": "address"
        },
        {
          "indexed": true,
          "internalType": "address",
          "name": "spender",
          "type": "address"
        },
        {
          "indexed": false,
          "internalType": "uint256",
          "name": "value",
          "type": "uint256"
        }
      ],
      "name": "Approval",
      "type": "event"
    },
    {
      "anonymous": false,
      "inputs": [
        {
          "indexed": true,
          "internalType": "address",
          "name": "sender",
          "type": "address"
        },
        {
          "indexed": false,
          "internalType": "uint256",
          "name": "amountBTC",
          "type": "uint256"
        },
        {
          "indexed": false,
          "internalType": "uint256",
          "name": "amountYUN",
          "type": "uint256"
        }
      ],
      "name": "Burn",
      "type": "event"
    },
    {
      "anonymous": false,
      "inputs": [
        {
          "indexed": true,
          "internalType": "address",
          "name": "from",
          "type": "address"
        },
        {
          "indexed": true,
          "internalType": "address",
          "name": "to",
          "type": "address"
        },
        {
          "indexed": false,
          "internalType": "uint256",
          "name": "value",
          "type": "uint256"
        }
      ],
      "name": "Transfer",
      "type": "event"
    },
    {
      "inputs": [
        {
          "internalType": "address",
          "name": "owner",
          "type": "address"
        },
        {
          "internalType": "address",
          "name": "spender",
          "type": "address"
        }
      ],
      "name": "allowance",
      "outputs": [
        {
          "internalType": "uint256",
          "name": "",
          "type": "uint256"
        }
      ],
      "stateMutability": "view",
      "type": "function"
    },
    {
      "inputs": [
        {
          "internalType": "address",
          "name": "spender",
          "type": "address"
        },
        {
          "internalType": "uint256",
          "name": "amount",
          "type": "uint256"
        }
      ],
      "name": "approve",
      "outputs": [
        {
          "internalType": "bool",
          "name": "",
          "type": "bool"
        }
      ],
      "stateMutability": "nonpayable",
      "type": "function"
    },
    {
      "inputs": [
        {
          "internalType": "address",
          "name": "account",
          "type": "address"
        }
      ],
      "name": "balanceOf",
      "outputs": [
        {
          "internalType": "uint256",
          "name": "",
          "type": "uint256"
        }
      ],
      "stateMutability": "view",
      "type": "function"
    },
    {
      "inputs": [],
      "name": "btcContract",
      "outputs": [
        {
          "internalType": "contract BtcToken",
          "name": "",
          "type": "address"
        }
      ],
      "stateMutability": "view",
      "type": "function"
    },
    {
      "inputs": [],
      "name": "decimals",
      "outputs": [
        {
          "internalType": "uint8",
          "name": "",
          "type": "uint8"
        }
      ],
      "stateMutability": "view",
      "type": "function"
    },
    {
      "inputs": [
        {
          "internalType": "address",
          "name": "spender",
          "type": "address"
        },
        {
          "internalType": "uint256",
          "name": "subtractedValue",
          "type": "uint256"
        }
      ],
      "name": "decreaseAllowance",
      "outputs": [
        {
          "internalType": "bool",
          "name": "",
          "type": "bool"
        }
      ],
      "stateMutability": "nonpayable",
      "type": "function"
    },
    {
      "inputs": [
        {
          "internalType": "address",
          "name": "spender",
          "type": "address"
        },
        {
          "internalType": "uint256",
          "name": "addedValue",
          "type": "uint256"
        }
      ],
      "name": "increaseAllowance",
      "outputs": [
        {
          "internalType": "bool",
          "name": "",
          "type": "bool"
        }
      ],
      "stateMutability": "nonpayable",
      "type": "function"
    },
    {
      "inputs": [],
      "name": "name",
      "outputs": [
        {
          "internalType": "string",
          "name": "",
          "type": "string"
        }
      ],
      "stateMutability": "view",
      "type": "function"
    },
    {
      "inputs": [],
      "name": "symbol",
      "outputs": [
        {
          "internalType": "string",
          "name": "",
          "type": "string"
        }
      ],
      "stateMutability": "view",
      "type": "function"
    },
    {
      "inputs": [],
      "name": "totalSupply",
      "outputs": [
        {
          "internalType": "uint256",
          "name": "",
          "type": "uint256"
        }
      ],
      "stateMutability": "view",
      "type": "function"
    },
    {
      "inputs": [
        {
          "internalType": "address",
          "name": "recipient",
          "type": "address"
        },
        {
          "internalType": "uint256",
          "name": "amount",
          "type": "uint256"
        }
      ],
      "name": "transfer",
      "outputs": [
        {
          "internalType": "bool",
          "name": "",
          "type": "bool"
        }
      ],
      "stateMutability": "nonpayable",
      "type": "function"
    },
    {
      "inputs": [
        {
          "internalType": "address",
          "name": "sender",
          "type": "address"
        },
        {
          "internalType": "address",
          "name": "recipient",
          "type": "address"
        },
        {
          "internalType": "uint256",
          "name": "amount",
          "type": "uint256"
        }
      ],
      "name": "transferFrom",
      "outputs": [
        {
          "internalType": "bool",
          "name": "",
          "type": "bool"
        }
      ],
      "stateMutability": "nonpayable",
      "type": "function"
    },
    {
      "inputs": [],
      "name": "yunContract",
      "outputs": [
        {
          "internalType": "contract YunToken",
          "name": "",
          "type": "address"
        }
      ],
      "stateMutability": "view",
      "type": "function"
    },
    {
      "inputs": [],
      "name": "getReserves",
      "outputs": [
        {
          "internalType": "uint256",
          "name": "_reserveBTC",
          "type": "uint256"
        },
        {
          "internalType": "uint256",
          "name": "_reserveYUN",
          "type": "uint256"
        }
      ],
      "stateMutability": "view",
      "type": "function"
    },
    {
      "inputs": [],
      "name": "removeLiquidity",
      "outputs": [],
      "stateMutability": "nonpayable",
      "type": "function"
    },
    {
      "inputs": [
        {
          "internalType": "uint256",
          "name": "_amountInBtc",
          "type": "uint256"
        },
        {
          "internalType": "uint256",
          "name": "_amountInYun",
          "type": "uint256"
        }
      ],
      "name": "addLiquidity",
      "outputs": [
        {
          "internalType": "uint256",
          "name": "liquidity",
          "type": "uint256"
        }
      ],
      "stateMutability": "nonpayable",
      "type": "function"
    },
    {
      "inputs": [
        {
          "internalType": "uint256",
          "name": "_amountIn",
          "type": "uint256"
        }
      ],
      "name": "buyYunToken",
      "outputs": [],
      "stateMutability": "nonpayable",
      "type": "function"
    },
    {
      "inputs": [
        {
          "internalType": "uint256",
          "name": "_amountIn",
          "type": "uint256"
        }
      ],
      "name": "buyBtcToken",
      "outputs": [],
      "stateMutability": "nonpayable",
      "type": "function"
    },
    {
      "inputs": [
        {
          "internalType": "uint256",
          "name": "_amountIn",
          "type": "uint256"
        }
      ],
      "name": "getYunTokenPrice",
      "outputs": [
        {
          "internalType": "uint256",
          "name": "amountOut",
          "type": "uint256"
        }
      ],
      "stateMutability": "view",
      "type": "function"
    },
    {
      "inputs": [
        {
          "internalType": "uint256",
          "name": "_amountIn",
          "type": "uint256"
        }
      ],
      "name": "getBtcTokenPrice",
      "outputs": [
        {
          "internalType": "uint256",
          "name": "amountOut",
          "type": "uint256"
        }
      ],
      "stateMutability": "view",
      "type": "function"
    }
  ],
  "bytecode": "0x60806040523480156200001157600080fd5b5060405162002fd938038062002fd983398181016040528101906200003791906200023f565b6040518060400160405280600781526020017f43414b452d5942000000000000000000000000000000000000000000000000008152506040518060400160405280600581526020017f59422d4c500000000000000000000000000000000000000000000000000000008152508160039080519060200190620000bb92919062000161565b508060049080519060200190620000d492919062000161565b50505081600560006101000a81548173ffffffffffffffffffffffffffffffffffffffff021916908373ffffffffffffffffffffffffffffffffffffffff16021790555080600660006101000a81548173ffffffffffffffffffffffffffffffffffffffff021916908373ffffffffffffffffffffffffffffffffffffffff160217905550505062000375565b8280546200016f90620002dc565b90600052602060002090601f016020900481019282620001935760008555620001df565b82601f10620001ae57805160ff1916838001178555620001df565b82800160010185558215620001df579182015b82811115620001de578251825591602001919060010190620001c1565b5b509050620001ee9190620001f2565b5090565b5b808211156200020d576000816000905550600101620001f3565b5090565b600081519050620002228162000341565b92915050565b60008151905062000239816200035b565b92915050565b600080604083850312156200025357600080fd5b6000620002638582860162000211565b9250506020620002768582860162000228565b9150509250929050565b60006200028d82620002bc565b9050919050565b6000620002a18262000280565b9050919050565b6000620002b58262000280565b9050919050565b600073ffffffffffffffffffffffffffffffffffffffff82169050919050565b60006002820490506001821680620002f557607f821691505b602082108114156200030c576200030b62000312565b5b50919050565b7f4e487b7100000000000000000000000000000000000000000000000000000000600052602260045260246000fd5b6200034c8162000294565b81146200035857600080fd5b50565b6200036681620002a8565b81146200037257600080fd5b50565b612c5480620003856000396000f3fe608060405234801561001057600080fd5b506004361061012c5760003560e01c806367b9a286116100ad578063a9059cbb11610071578063a9059cbb1461035c578063bc30773f1461038c578063c745028e146103bc578063d4bd027e146103da578063dd62ed3e146103f65761012c565b806367b9a286146102a457806370a08231146102ae57806395d89b41146102de5780639cd441da146102fc578063a457c2d71461032c5761012c565b806323b872dd116100f457806323b872dd146101d857806327686cb314610208578063313ce56714610226578063395093511461024457806367817067146102745761012c565b806306fdde03146101315780630902f1ac1461014f578063095ea7b31461016e5780630bf7df761461019e57806318160ddd146101ba575b600080fd5b610139610426565b604051610146919061245a565b60405180910390f35b6101576104b8565b6040516101659291906125f7565b60405180910390f35b61018860048036038101906101839190612087565b610619565b6040516101959190612409565b60405180910390f35b6101b860048036038101906101b391906120ec565b610637565b005b6101c26108be565b6040516101cf91906125dc565b60405180910390f35b6101f260048036038101906101ed9190612038565b6108c8565b6040516101ff9190612409565b60405180910390f35b6102106109c9565b60405161021d919061243f565b60405180910390f35b61022e6109ef565b60405161023b9190612620565b60405180910390f35b61025e60048036038101906102599190612087565b6109f8565b60405161026b9190612409565b60405180910390f35b61028e600480360381019061028991906120ec565b610aa4565b60405161029b91906125dc565b60405180910390f35b6102ac610d33565b005b6102c860048036038101906102c39190611fd3565b610f64565b6040516102d591906125dc565b60405180910390f35b6102e6610fac565b6040516102f3919061245a565b60405180910390f35b6103166004803603810190610311919061213e565b61103e565b60405161032391906125dc565b60405180910390f35b61034660048036038101906103419190612087565b611354565b6040516103539190612409565b60405180910390f35b61037660048036038101906103719190612087565b611448565b6040516103839190612409565b60405180910390f35b6103a660048036038101906103a191906120ec565b611466565b6040516103b391906125dc565b60405180910390f35b6103c4611608565b6040516103d19190612424565b60405180910390f35b6103f460048036038101906103ef91906120ec565b61162e565b005b610410600480360381019061040b9190611ffc565b6118b5565b60405161041d91906125dc565b60405180910390f35b6060600380546104359061283c565b80601f01602080910402602001604051908101604052809291908181526020018280546104619061283c565b80156104ae5780601f10610483576101008083540402835291602001916104ae565b820191906000526020600020905b81548152906001019060200180831161049157829003601f168201915b5050505050905090565b600080600560009054906101000a900473ffffffffffffffffffffffffffffffffffffffff1673ffffffffffffffffffffffffffffffffffffffff166370a08231306040518263ffffffff1660e01b8152600401610516919061238e565b60206040518083038186803b15801561052e57600080fd5b505afa158015610542573d6000803e3d6000fd5b505050506040513d601f19601f820116820180604052508101906105669190612115565b9150600660009054906101000a900473ffffffffffffffffffffffffffffffffffffffff1673ffffffffffffffffffffffffffffffffffffffff166370a08231306040518263ffffffff1660e01b81526004016105c3919061238e565b60206040518083038186803b1580156105db57600080fd5b505afa1580156105ef573d6000803e3d6000fd5b505050506040513d601f19601f820116820180604052508101906106139190612115565b90509091565b600061062d61062661193c565b8484611944565b6001905092915050565b600081141561064557600080fd5b80600660009054906101000a900473ffffffffffffffffffffffffffffffffffffffff1673ffffffffffffffffffffffffffffffffffffffff166370a08231336040518263ffffffff1660e01b81526004016106a1919061238e565b60206040518083038186803b1580156106b957600080fd5b505afa1580156106cd573d6000803e3d6000fd5b505050506040513d601f19601f820116820180604052508101906106f19190612115565b11610731576040517f08c379a0000000000000000000000000000000000000000000000000000000008152600401610728906124fc565b60405180910390fd5b600061073b6104b8565b509050600061074983610aa4565b905080821161075757600080fd5b600660009054906101000a900473ffffffffffffffffffffffffffffffffffffffff1673ffffffffffffffffffffffffffffffffffffffff166323b872dd3330866040518463ffffffff1660e01b81526004016107b6939291906123a9565b602060405180830381600087803b1580156107d057600080fd5b505af11580156107e4573d6000803e3d6000fd5b505050506040513d601f19601f8201168201806040525081019061080891906120c3565b50600560009054906101000a900473ffffffffffffffffffffffffffffffffffffffff1673ffffffffffffffffffffffffffffffffffffffff1663a9059cbb33836040518363ffffffff1660e01b81526004016108669291906123e0565b602060405180830381600087803b15801561088057600080fd5b505af1158015610894573d6000803e3d6000fd5b505050506040513d601f19601f820116820180604052508101906108b891906120c3565b50505050565b6000600254905090565b60006108d5848484611b0f565b6000600160008673ffffffffffffffffffffffffffffffffffffffff1673ffffffffffffffffffffffffffffffffffffffff168152602001908152602001600020600061092061193c565b73ffffffffffffffffffffffffffffffffffffffff1673ffffffffffffffffffffffffffffffffffffffff168152602001908152602001600020549050828110156109a0576040517f08c379a00000000000000000000000000000000000000000000000000000000081526004016109979061251c565b60405180910390fd5b6109bd856109ac61193c565b85846109b89190612738565b611944565b60019150509392505050565b600660009054906101000a900473ffffffffffffffffffffffffffffffffffffffff1681565b60006012905090565b6000610a9a610a0561193c565b848460016000610a1361193c565b73ffffffffffffffffffffffffffffffffffffffff1673ffffffffffffffffffffffffffffffffffffffff16815260200190815260200160002060008873ffffffffffffffffffffffffffffffffffffffff1673ffffffffffffffffffffffffffffffffffffffff16815260200190815260200160002054610a959190612657565b611944565b6001905092915050565b600081600660009054906101000a900473ffffffffffffffffffffffffffffffffffffffff1673ffffffffffffffffffffffffffffffffffffffff166370a08231336040518263ffffffff1660e01b8152600401610b02919061238e565b60206040518083038186803b158015610b1a57600080fd5b505afa158015610b2e573d6000803e3d6000fd5b505050506040513d601f19601f82011682018060405250810190610b529190612115565b11610b92576040517f08c379a0000000000000000000000000000000000000000000000000000000008152600401610b89906124dc565b60405180910390fd5b6000600560009054906101000a900473ffffffffffffffffffffffffffffffffffffffff1673ffffffffffffffffffffffffffffffffffffffff166370a08231306040518263ffffffff1660e01b8152600401610bef919061238e565b60206040518083038186803b158015610c0757600080fd5b505afa158015610c1b573d6000803e3d6000fd5b505050506040513d601f19601f82011682018060405250810190610c3f9190612115565b90506000600660009054906101000a900473ffffffffffffffffffffffffffffffffffffffff1673ffffffffffffffffffffffffffffffffffffffff166370a08231306040518263ffffffff1660e01b8152600401610c9e919061238e565b60206040518083038186803b158015610cb657600080fd5b505afa158015610cca573d6000803e3d6000fd5b505050506040513d601f19601f82011682018060405250810190610cee9190612115565b90506000610d058383611d8e90919063ffffffff16565b90508482610d139190612657565b81610d1e91906126ad565b83610d299190612738565b9350505050919050565b6000610d3e33610f64565b90506000610d4b33610f64565b1415610d5657600080fd5b600080610d616104b8565b915091506000600254610d7d8486611d8e90919063ffffffff16565b610d8791906126ad565b90506000600254610da18487611d8e90919063ffffffff16565b610dab91906126ad565b9050600660009054906101000a900473ffffffffffffffffffffffffffffffffffffffff1673ffffffffffffffffffffffffffffffffffffffff1663a9059cbb33846040518363ffffffff1660e01b8152600401610e0a9291906123e0565b602060405180830381600087803b158015610e2457600080fd5b505af1158015610e38573d6000803e3d6000fd5b505050506040513d601f19601f82011682018060405250810190610e5c91906120c3565b50600560009054906101000a900473ffffffffffffffffffffffffffffffffffffffff1673ffffffffffffffffffffffffffffffffffffffff1663a9059cbb33836040518363ffffffff1660e01b8152600401610eba9291906123e0565b602060405180830381600087803b158015610ed457600080fd5b505af1158015610ee8573d6000803e3d6000fd5b505050506040513d601f19601f82011682018060405250810190610f0c91906120c3565b503373ffffffffffffffffffffffffffffffffffffffff167f49995e5dd6158cf69ad3e9777c46755a1a826a446c6416992167462dad033b2a8383604051610f559291906125f7565b60405180910390a25050505050565b60008060008373ffffffffffffffffffffffffffffffffffffffff1673ffffffffffffffffffffffffffffffffffffffff168152602001908152602001600020549050919050565b606060048054610fbb9061283c565b80601f0160208091040260200160405190810160405280929190818152602001828054610fe79061283c565b80156110345780601f1061100957610100808354040283529160200191611034565b820191906000526020600020905b81548152906001019060200180831161101757829003601f168201915b5050505050905090565b60008083148061104e5750600082145b61105757600080fd5b6000806110626104b8565b915091506110798183611df790919063ffffffff16565b61108c8587611df790919063ffffffff16565b14806110bb57506110a68282611df790919063ffffffff16565b6110b98686611df790919063ffffffff16565b145b6110fa576040517f08c379a00000000000000000000000000000000000000000000000000000000081526004016110f19061253c565b60405180910390fd5b84821161113c576040517f08c379a0000000000000000000000000000000000000000000000000000000008152600401611133906124dc565b60405180910390fd5b83811161117e576040517f08c379a0000000000000000000000000000000000000000000000000000000008152600401611175906124fc565b60405180910390fd5b60006002541415611193576103e892506111de565b6111db826111ac60025488611d8e90919063ffffffff16565b6111b691906126ad565b826111cc60025488611d8e90919063ffffffff16565b6111d691906126ad565b611e0d565b92505b600560009054906101000a900473ffffffffffffffffffffffffffffffffffffffff1673ffffffffffffffffffffffffffffffffffffffff166323b872dd3330886040518463ffffffff1660e01b815260040161123d939291906123a9565b602060405180830381600087803b15801561125757600080fd5b505af115801561126b573d6000803e3d6000fd5b505050506040513d601f19601f8201168201806040525081019061128f91906120c3565b50600660009054906101000a900473ffffffffffffffffffffffffffffffffffffffff1673ffffffffffffffffffffffffffffffffffffffff166323b872dd3330876040518463ffffffff1660e01b81526004016112ef939291906123a9565b602060405180830381600087803b15801561130957600080fd5b505af115801561131d573d6000803e3d6000fd5b505050506040513d601f19601f8201168201806040525081019061134191906120c3565b5061134c3384611e26565b505092915050565b6000806001600061136361193c565b73ffffffffffffffffffffffffffffffffffffffff1673ffffffffffffffffffffffffffffffffffffffff16815260200190815260200160002060008573ffffffffffffffffffffffffffffffffffffffff1673ffffffffffffffffffffffffffffffffffffffff16815260200190815260200160002054905082811015611420576040517f08c379a00000000000000000000000000000000000000000000000000000000081526004016114179061259c565b60405180910390fd5b61143d61142b61193c565b8585846114389190612738565b611944565b600191505092915050565b600061145c61145561193c565b8484611b0f565b6001905092915050565b600080600560009054906101000a900473ffffffffffffffffffffffffffffffffffffffff1673ffffffffffffffffffffffffffffffffffffffff166370a08231306040518263ffffffff1660e01b81526004016114c4919061238e565b60206040518083038186803b1580156114dc57600080fd5b505afa1580156114f0573d6000803e3d6000fd5b505050506040513d601f19601f820116820180604052508101906115149190612115565b90506000600660009054906101000a900473ffffffffffffffffffffffffffffffffffffffff1673ffffffffffffffffffffffffffffffffffffffff166370a08231306040518263ffffffff1660e01b8152600401611573919061238e565b60206040518083038186803b15801561158b57600080fd5b505afa15801561159f573d6000803e3d6000fd5b505050506040513d601f19601f820116820180604052508101906115c39190612115565b905060006115da8383611d8e90919063ffffffff16565b905084836115e89190612657565b816115f391906126ad565b826115fe9190612738565b9350505050919050565b600560009054906101000a900473ffffffffffffffffffffffffffffffffffffffff1681565b600081141561163c57600080fd5b80600560009054906101000a900473ffffffffffffffffffffffffffffffffffffffff1673ffffffffffffffffffffffffffffffffffffffff166370a08231336040518263ffffffff1660e01b8152600401611698919061238e565b60206040518083038186803b1580156116b057600080fd5b505afa1580156116c4573d6000803e3d6000fd5b505050506040513d601f19601f820116820180604052508101906116e89190612115565b11611728576040517f08c379a000000000000000000000000000000000000000000000000000000000815260040161171f906124dc565b60405180910390fd5b60006117326104b8565b915050600061174083610aa4565b905080821161174e57600080fd5b600560009054906101000a900473ffffffffffffffffffffffffffffffffffffffff1673ffffffffffffffffffffffffffffffffffffffff166323b872dd3330866040518463ffffffff1660e01b81526004016117ad939291906123a9565b602060405180830381600087803b1580156117c757600080fd5b505af11580156117db573d6000803e3d6000fd5b505050506040513d601f19601f820116820180604052508101906117ff91906120c3565b50600660009054906101000a900473ffffffffffffffffffffffffffffffffffffffff1673ffffffffffffffffffffffffffffffffffffffff1663a9059cbb33836040518363ffffffff1660e01b815260040161185d9291906123e0565b602060405180830381600087803b15801561187757600080fd5b505af115801561188b573d6000803e3d6000fd5b505050506040513d601f19601f820116820180604052508101906118af91906120c3565b50505050565b6000600160008473ffffffffffffffffffffffffffffffffffffffff1673ffffffffffffffffffffffffffffffffffffffff16815260200190815260200160002060008373ffffffffffffffffffffffffffffffffffffffff1673ffffffffffffffffffffffffffffffffffffffff16815260200190815260200160002054905092915050565b600033905090565b600073ffffffffffffffffffffffffffffffffffffffff168373ffffffffffffffffffffffffffffffffffffffff1614156119b4576040517f08c379a00000000000000000000000000000000000000000000000000000000081526004016119ab9061257c565b60405180910390fd5b600073ffffffffffffffffffffffffffffffffffffffff168273ffffffffffffffffffffffffffffffffffffffff161415611a24576040517f08c379a0000000000000000000000000000000000000000000000000000000008152600401611a1b9061249c565b60405180910390fd5b80600160008573ffffffffffffffffffffffffffffffffffffffff1673ffffffffffffffffffffffffffffffffffffffff16815260200190815260200160002060008473ffffffffffffffffffffffffffffffffffffffff1673ffffffffffffffffffffffffffffffffffffffff168152602001908152602001600020819055508173ffffffffffffffffffffffffffffffffffffffff168373ffffffffffffffffffffffffffffffffffffffff167f8c5be1e5ebec7d5bd14f71427d1e84f3dd0314c0f7b2291e5b200ac8c7c3b92583604051611b0291906125dc565b60405180910390a3505050565b600073ffffffffffffffffffffffffffffffffffffffff168373ffffffffffffffffffffffffffffffffffffffff161415611b7f576040517f08c379a0000000000000000000000000000000000000000000000000000000008152600401611b769061255c565b60405180910390fd5b600073ffffffffffffffffffffffffffffffffffffffff168273ffffffffffffffffffffffffffffffffffffffff161415611bef576040517f08c379a0000000000000000000000000000000000000000000000000000000008152600401611be69061247c565b60405180910390fd5b611bfa838383611f7a565b60008060008573ffffffffffffffffffffffffffffffffffffffff1673ffffffffffffffffffffffffffffffffffffffff16815260200190815260200160002054905081811015611c80576040517f08c379a0000000000000000000000000000000000000000000000000000000008152600401611c77906124bc565b60405180910390fd5b8181611c8c9190612738565b6000808673ffffffffffffffffffffffffffffffffffffffff1673ffffffffffffffffffffffffffffffffffffffff16815260200190815260200160002081905550816000808573ffffffffffffffffffffffffffffffffffffffff1673ffffffffffffffffffffffffffffffffffffffff1681526020019081526020016000206000828254611d1c9190612657565b925050819055508273ffffffffffffffffffffffffffffffffffffffff168473ffffffffffffffffffffffffffffffffffffffff167fddf252ad1be2c89b69c2b068fc378daa952ba7f163c4a11628f55a4df523b3ef84604051611d8091906125dc565b60405180910390a350505050565b600080831415611da15760009050611df1565b8183611dad91906126de565b9050818382611dbc91906126ad565b14611df0577f4e487b7100000000000000000000000000000000000000000000000000000000600052600160045260246000fd5b5b92915050565b60008183611e0591906126ad565b905092915050565b6000818310611e1c5781611e1e565b825b905092915050565b600073ffffffffffffffffffffffffffffffffffffffff168273ffffffffffffffffffffffffffffffffffffffff161415611e96576040517f08c379a0000000000000000000000000000000000000000000000000000000008152600401611e8d906125bc565b60405180910390fd5b611ea260008383611f7a565b8060026000828254611eb49190612657565b92505081905550806000808473ffffffffffffffffffffffffffffffffffffffff1673ffffffffffffffffffffffffffffffffffffffff1681526020019081526020016000206000828254611f099190612657565b925050819055508173ffffffffffffffffffffffffffffffffffffffff16600073ffffffffffffffffffffffffffffffffffffffff167fddf252ad1be2c89b69c2b068fc378daa952ba7f163c4a11628f55a4df523b3ef83604051611f6e91906125dc565b60405180910390a35050565b505050565b600081359050611f8e81612bd9565b92915050565b600081519050611fa381612bf0565b92915050565b600081359050611fb881612c07565b92915050565b600081519050611fcd81612c07565b92915050565b600060208284031215611fe557600080fd5b6000611ff384828501611f7f565b91505092915050565b6000806040838503121561200f57600080fd5b600061201d85828601611f7f565b925050602061202e85828601611f7f565b9150509250929050565b60008060006060848603121561204d57600080fd5b600061205b86828701611f7f565b935050602061206c86828701611f7f565b925050604061207d86828701611fa9565b9150509250925092565b6000806040838503121561209a57600080fd5b60006120a885828601611f7f565b92505060206120b985828601611fa9565b9150509250929050565b6000602082840312156120d557600080fd5b60006120e384828501611f94565b91505092915050565b6000602082840312156120fe57600080fd5b600061210c84828501611fa9565b91505092915050565b60006020828403121561212757600080fd5b600061213584828501611fbe565b91505092915050565b6000806040838503121561215157600080fd5b600061215f85828601611fa9565b925050602061217085828601611fa9565b9150509250929050565b6121838161276c565b82525050565b6121928161277e565b82525050565b6121a1816127c1565b82525050565b6121b0816127e5565b82525050565b60006121c18261263b565b6121cb8185612646565b93506121db818560208601612809565b6121e4816128fb565b840191505092915050565b60006121fc602383612646565b91506122078261290c565b604082019050919050565b600061221f602283612646565b915061222a8261295b565b604082019050919050565b6000612242602683612646565b915061224d826129aa565b604082019050919050565b6000612265601483612646565b9150612270826129f9565b602082019050919050565b6000612288601483612646565b915061229382612a22565b602082019050919050565b60006122ab602883612646565b91506122b682612a4b565b604082019050919050565b60006122ce601683612646565b91506122d982612a9a565b602082019050919050565b60006122f1602583612646565b91506122fc82612ac3565b604082019050919050565b6000612314602483612646565b915061231f82612b12565b604082019050919050565b6000612337602583612646565b915061234282612b61565b604082019050919050565b600061235a601f83612646565b915061236582612bb0565b602082019050919050565b612379816127aa565b82525050565b612388816127b4565b82525050565b60006020820190506123a3600083018461217a565b92915050565b60006060820190506123be600083018661217a565b6123cb602083018561217a565b6123d86040830184612370565b949350505050565b60006040820190506123f5600083018561217a565b6124026020830184612370565b9392505050565b600060208201905061241e6000830184612189565b92915050565b60006020820190506124396000830184612198565b92915050565b600060208201905061245460008301846121a7565b92915050565b6000602082019050818103600083015261247481846121b6565b905092915050565b60006020820190508181036000830152612495816121ef565b9050919050565b600060208201905081810360008301526124b581612212565b9050919050565b600060208201905081810360008301526124d581612235565b9050919050565b600060208201905081810360008301526124f581612258565b9050919050565b600060208201905081810360008301526125158161227b565b9050919050565b600060208201905081810360008301526125358161229e565b9050919050565b60006020820190508181036000830152612555816122c1565b9050919050565b60006020820190508181036000830152612575816122e4565b9050919050565b6000602082019050818103600083015261259581612307565b9050919050565b600060208201905081810360008301526125b58161232a565b9050919050565b600060208201905081810360008301526125d58161234d565b9050919050565b60006020820190506125f16000830184612370565b92915050565b600060408201905061260c6000830185612370565b6126196020830184612370565b9392505050565b6000602082019050612635600083018461237f565b92915050565b600081519050919050565b600082825260208201905092915050565b6000612662826127aa565b915061266d836127aa565b9250827fffffffffffffffffffffffffffffffffffffffffffffffffffffffffffffffff038211156126a2576126a161286e565b5b828201905092915050565b60006126b8826127aa565b91506126c3836127aa565b9250826126d3576126d261289d565b5b828204905092915050565b60006126e9826127aa565b91506126f4836127aa565b9250817fffffffffffffffffffffffffffffffffffffffffffffffffffffffffffffffff048311821515161561272d5761272c61286e565b5b828202905092915050565b6000612743826127aa565b915061274e836127aa565b9250828210156127615761276061286e565b5b828203905092915050565b60006127778261278a565b9050919050565b60008115159050919050565b600073ffffffffffffffffffffffffffffffffffffffff82169050919050565b6000819050919050565b600060ff82169050919050565b60006127cc826127d3565b9050919050565b60006127de8261278a565b9050919050565b60006127f0826127f7565b9050919050565b60006128028261278a565b9050919050565b60005b8381101561282757808201518184015260208101905061280c565b83811115612836576000848401525b50505050565b6000600282049050600182168061285457607f821691505b60208210811415612868576128676128cc565b5b50919050565b7f4e487b7100000000000000000000000000000000000000000000000000000000600052601160045260246000fd5b7f4e487b7100000000000000000000000000000000000000000000000000000000600052601260045260246000fd5b7f4e487b7100000000000000000000000000000000000000000000000000000000600052602260045260246000fd5b6000601f19601f8301169050919050565b7f45524332303a207472616e7366657220746f20746865207a65726f206164647260008201527f6573730000000000000000000000000000000000000000000000000000000000602082015250565b7f45524332303a20617070726f766520746f20746865207a65726f20616464726560008201527f7373000000000000000000000000000000000000000000000000000000000000602082015250565b7f45524332303a207472616e7366657220616d6f756e742065786365656473206260008201527f616c616e63650000000000000000000000000000000000000000000000000000602082015250565b7f6e6f7420456e6f7567682042544320546f6b656e000000000000000000000000600082015250565b7f6e6f7420456e6f7567682059554e20546f6b656e000000000000000000000000600082015250565b7f45524332303a207472616e7366657220616d6f756e742065786365656473206160008201527f6c6c6f77616e6365000000000000000000000000000000000000000000000000602082015250565b7f70726f706f7274696f6e2069736e277420726967687400000000000000000000600082015250565b7f45524332303a207472616e736665722066726f6d20746865207a65726f20616460008201527f6472657373000000000000000000000000000000000000000000000000000000602082015250565b7f45524332303a20617070726f76652066726f6d20746865207a65726f2061646460008201527f7265737300000000000000000000000000000000000000000000000000000000602082015250565b7f45524332303a2064656372656173656420616c6c6f77616e63652062656c6f7760008201527f207a65726f000000000000000000000000000000000000000000000000000000602082015250565b7f45524332303a206d696e7420746f20746865207a65726f206164647265737300600082015250565b612be28161276c565b8114612bed57600080fd5b50565b612bf98161277e565b8114612c0457600080fd5b50565b612c10816127aa565b8114612c1b57600080fd5b5056fea2646970667358221220076ca05b567ac3366d076364aad8ffb5d8fe77e84ccaef2b1c804ab212efe21a64736f6c63430008040033",
  "immutableReferences": {},
  "source": "pragma solidity ^0.8.4;\r\n\r\nimport \"./BtcToken.sol\";\r\nimport \"./YunToken.sol\";\r\nimport \"./utils/Safemath.sol\";\r\nimport \"./utils/Math.sol\";\r\nimport \"./extensions/ERC20.sol\";\r\nimport \"./extensions/ERC20.sol\";\r\nimport \"./interfaces/IERC20.sol\";\r\n\r\ncontract YunBtcCake is ERC20 {\r\n    BtcToken public btcContract;\r\n    YunToken public yunContract;\r\n    using SafeMath for uint256;\r\n\r\n    constructor(BtcToken _btcContract, YunToken _yunContract) ERC20('CAKE-YB', 'YB-LP'){\r\n        btcContract = _btcContract;\r\n        yunContract = _yunContract;\r\n    }\r\n\r\n    event AddLiquidity(address indexed sender, uint256 amountBTC, uint256 amountYUN, uint256 liquidity);\r\n    event Burn(address indexed sender, uint amountBTC, uint amountYUN);\r\n\r\n\r\n    function getReserves() public view returns (uint256 _reserveBTC, uint256 _reserveYUN) {\r\n        _reserveBTC = IERC20(btcContract).balanceOf(address(this));\r\n        _reserveYUN = IERC20(yunContract).balanceOf(address(this));\r\n    }\r\n\r\n    function removeLiquidity() public {\r\n        uint256 liquidity = balanceOf(msg.sender);\r\n        require(balanceOf(msg.sender) != 0);\r\n        (uint256 _reverseBTC, uint256  _reverseYUN) = getReserves();\r\n\r\n        uint256 amountBTC = liquidity.mul(_reverseBTC) / _totalSupply;\r\n\r\n        // using balances ensures pro-rata distribution\r\n        uint256 amountYUN = liquidity.mul(_reverseYUN) / _totalSupply;\r\n\r\n        IERC20(yunContract).transfer(msg.sender, amountBTC);\r\n        IERC20(btcContract).transfer(msg.sender, amountYUN);\r\n\r\n        emit Burn(msg.sender, amountBTC, amountYUN);\r\n    }\r\n\r\n    function addLiquidity(uint256 _amountInBtc, uint256 _amountInYun) public returns (uint liquidity) {\r\n        require((_amountInBtc == 0) || (_amountInYun == 0));\r\n\r\n        (uint256 _reverseBTC,uint256 _reverseYUN) = getReserves();\r\n\r\n        require(\r\n            (_amountInBtc.div(_amountInYun) == _reverseBTC.div(_reverseYUN))\r\n            ||\r\n            (_amountInYun.div(_amountInBtc) == _reverseYUN.div(_reverseBTC)),\r\n            \"proportion isn't right\"\r\n        );\r\n\r\n        require(_reverseBTC > _amountInBtc, \"not Enough BTC Token\");\r\n        require(_reverseYUN > _amountInYun, \"not Enough YUN Token\");\r\n\r\n        if (_totalSupply == 0) {\r\n            liquidity = 1000;\r\n        } else {\r\n            liquidity = Math.min(\r\n                _amountInBtc.mul(_totalSupply) / _reverseBTC,\r\n                _amountInYun.mul(_totalSupply) / _reverseYUN\r\n            );\r\n        }\r\n\r\n        IERC20(btcContract).transferFrom(msg.sender, address(this), _amountInBtc);\r\n        IERC20(yunContract).transferFrom(msg.sender, address(this), _amountInYun);\r\n        _mint(msg.sender, liquidity);\r\n    }\r\n\r\n\r\n    function buyYunToken(uint256 _amountIn) public {\r\n        require(_amountIn != 0);\r\n        require(IERC20(btcContract).balanceOf(msg.sender) > _amountIn, \"not Enough BTC Token\");\r\n\r\n        (, uint256 _reserveYUN) = getReserves();\r\n\r\n\r\n        uint256 amountOut = getBtcTokenPrice(_amountIn);\r\n        require(_reserveYUN > amountOut);\r\n\r\n        IERC20(btcContract).transferFrom(msg.sender, address(this), _amountIn);\r\n        IERC20(yunContract).transfer(msg.sender, amountOut);\r\n    }\r\n\r\n\r\n    function buyBtcToken(uint256 _amountIn) public {\r\n        require(_amountIn != 0);\r\n        require(IERC20(yunContract).balanceOf(msg.sender) > _amountIn, \"not Enough YUN Token\");\r\n\r\n        (uint256 _reserveBTC,) = getReserves();\r\n\r\n\r\n        uint256 amountOut = getBtcTokenPrice(_amountIn);\r\n        require(_reserveBTC > amountOut);\r\n\r\n        IERC20(yunContract).transferFrom(msg.sender, address(this), _amountIn);\r\n        IERC20(btcContract).transfer(msg.sender, amountOut);\r\n\r\n\r\n    }\r\n\r\n    function getYunTokenPrice(uint256 _amountIn) public view returns (uint256 amountOut){\r\n\r\n\r\n        uint256 balanceBTC = IERC20(btcContract).balanceOf(address(this));\r\n        uint256 balanceYUN = IERC20(yunContract).balanceOf(address(this));\r\n\r\n        uint256 konstant0 = balanceYUN.mul(balanceBTC);\r\n        //        uint256 konstant1 = balanceYUN.mul(balanceBTC.add(_amount));\r\n        amountOut = balanceYUN - konstant0 / (balanceBTC + _amountIn);\r\n    }\r\n\r\n\r\n    function getBtcTokenPrice(uint256 _amountIn) public view returns (uint256 amountOut){\r\n        require(IERC20(yunContract).balanceOf(msg.sender) > _amountIn, \"not Enough BTC Token\");\r\n\r\n        uint256 balanceBTC = IERC20(btcContract).balanceOf(address(this));\r\n        uint256 balanceYUN = IERC20(yunContract).balanceOf(address(this));\r\n\r\n        uint256 konstant0 = balanceYUN.mul(balanceBTC);\r\n        //        uint256 konstant1 = balanceYUN.mul(balanceBTC.add(_amount));\r\n        amountOut = balanceBTC - konstant0 / (balanceYUN + _amountIn);\r\n    }\r\n}\r\n",
  "sourcePath": "C:/Users/Yunis/WebstormProjects/untitled/contracts/YunBtcPair.sol",
  "compiler": {
    "name": "solc",
    "version": "0.8.4+commit.c7e474f2.Emscripten.clang"
  },
  "schemaVersion": "3.4.0",
  "updatedAt": "2021-05-02T13:14:00.167Z",
  "devdoc": {
    "kind": "dev",
    "methods": {
      "allowance(address,address)": {
        "details": "See {IERC20-allowance}."
      },
      "approve(address,uint256)": {
        "details": "See {IERC20-approve}. Requirements: - `spender` cannot be the zero address."
      },
      "balanceOf(address)": {
        "details": "See {IERC20-balanceOf}."
      },
      "decimals()": {
        "details": "Returns the number of decimals used to get its user representation. For example, if `decimals` equals `2`, a balance of `505` tokens should be displayed to a user as `5,05` (`505 / 10 ** 2`). Tokens usually opt for a value of 18, imitating the relationship between Ether and Wei. This is the value {ERC20} uses, unless this function is overridden; NOTE: This information is only used for _display_ purposes: it in no way affects any of the arithmetic of the contract, including {IERC20-balanceOf} and {IERC20-transfer}."
      },
      "decreaseAllowance(address,uint256)": {
        "details": "Atomically decreases the allowance granted to `spender` by the caller. This is an alternative to {approve} that can be used as a mitigation for problems described in {IERC20-approve}. Emits an {Approval} event indicating the updated allowance. Requirements: - `spender` cannot be the zero address. - `spender` must have allowance for the caller of at least `subtractedValue`."
      },
      "increaseAllowance(address,uint256)": {
        "details": "Atomically increases the allowance granted to `spender` by the caller. This is an alternative to {approve} that can be used as a mitigation for problems described in {IERC20-approve}. Emits an {Approval} event indicating the updated allowance. Requirements: - `spender` cannot be the zero address."
      },
      "name()": {
        "details": "Returns the name of the token."
      },
      "symbol()": {
        "details": "Returns the symbol of the token, usually a shorter version of the name."
      },
      "totalSupply()": {
        "details": "See {IERC20-totalSupply}."
      },
      "transfer(address,uint256)": {
        "details": "See {IERC20-transfer}. Requirements: - `recipient` cannot be the zero address. - the caller must have a balance of at least `amount`."
      },
      "transferFrom(address,address,uint256)": {
        "details": "See {IERC20-transferFrom}. Emits an {Approval} event indicating the updated allowance. This is not required by the EIP. See the note at the beginning of {ERC20}. Requirements: - `sender` and `recipient` cannot be the zero address. - `sender` must have a balance of at least `amount`. - the caller must have allowance for ``sender``'s tokens of at least `amount`."
      }
    },
    "version": 1
  },
  "userdoc": {
    "kind": "user",
    "methods": {},
    "version": 1
  }
}