{
  "contractName": "YunBtcCake",
  "abi": [
    {
      "inputs": [
        {
          "internalType": "contract BtcToken",
          "name": "_btcContract",
          "type": "address"
        },
        {
          "internalType": "contract YunToken",
          "name": "_yunContract",
          "type": "address"
        }
      ],
      "stateMutability": "nonpayable",
      "type": "constructor"
    },
    {
      "anonymous": false,
      "inputs": [
        {
          "indexed": true,
          "internalType": "address",
          "name": "sender",
          "type": "address"
        },
        {
          "indexed": false,
          "internalType": "uint256",
          "name": "amountBTC",
          "type": "uint256"
        },
        {
          "indexed": false,
          "internalType": "uint256",
          "name": "amountYUN",
          "type": "uint256"
        },
        {
          "indexed": false,
          "internalType": "uint256",
          "name": "liquidity",
          "type": "uint256"
        }
      ],
      "name": "AddLiquidity",
      "type": "event"
    },
    {
      "anonymous": false,
      "inputs": [
        {
          "indexed": true,
          "internalType": "address",
          "name": "owner",
          "type": "address"
        },
        {
          "indexed": true,
          "internalType": "address",
          "name": "spender",
          "type": "address"
        },
        {
          "indexed": false,
          "internalType": "uint256",
          "name": "value",
          "type": "uint256"
        }
      ],
      "name": "Approval",
      "type": "event"
    },
    {
      "anonymous": false,
      "inputs": [
        {
          "indexed": true,
          "internalType": "address",
          "name": "sender",
          "type": "address"
        },
        {
          "indexed": false,
          "internalType": "uint256",
          "name": "amountBTC",
          "type": "uint256"
        },
        {
          "indexed": false,
          "internalType": "uint256",
          "name": "amountYUN",
          "type": "uint256"
        }
      ],
      "name": "Burn",
      "type": "event"
    },
    {
      "anonymous": false,
      "inputs": [
        {
          "indexed": false,
          "internalType": "uint256",
          "name": "",
          "type": "uint256"
        }
      ],
      "name": "Debug",
      "type": "event"
    },
    {
      "anonymous": false,
      "inputs": [
        {
          "indexed": true,
          "internalType": "address",
          "name": "from",
          "type": "address"
        },
        {
          "indexed": true,
          "internalType": "address",
          "name": "to",
          "type": "address"
        },
        {
          "indexed": false,
          "internalType": "uint256",
          "name": "value",
          "type": "uint256"
        }
      ],
      "name": "Transfer",
      "type": "event"
    },
    {
      "inputs": [
        {
          "internalType": "address",
          "name": "owner",
          "type": "address"
        },
        {
          "internalType": "address",
          "name": "spender",
          "type": "address"
        }
      ],
      "name": "allowance",
      "outputs": [
        {
          "internalType": "uint256",
          "name": "",
          "type": "uint256"
        }
      ],
      "stateMutability": "view",
      "type": "function",
      "constant": true
    },
    {
      "inputs": [
        {
          "internalType": "address",
          "name": "spender",
          "type": "address"
        },
        {
          "internalType": "uint256",
          "name": "amount",
          "type": "uint256"
        }
      ],
      "name": "approve",
      "outputs": [
        {
          "internalType": "bool",
          "name": "",
          "type": "bool"
        }
      ],
      "stateMutability": "nonpayable",
      "type": "function"
    },
    {
      "inputs": [
        {
          "internalType": "address",
          "name": "account",
          "type": "address"
        }
      ],
      "name": "balanceOf",
      "outputs": [
        {
          "internalType": "uint256",
          "name": "",
          "type": "uint256"
        }
      ],
      "stateMutability": "view",
      "type": "function",
      "constant": true
    },
    {
      "inputs": [],
      "name": "btcContract",
      "outputs": [
        {
          "internalType": "contract BtcToken",
          "name": "",
          "type": "address"
        }
      ],
      "stateMutability": "view",
      "type": "function",
      "constant": true
    },
    {
      "inputs": [],
      "name": "decimals",
      "outputs": [
        {
          "internalType": "uint8",
          "name": "",
          "type": "uint8"
        }
      ],
      "stateMutability": "view",
      "type": "function",
      "constant": true
    },
    {
      "inputs": [
        {
          "internalType": "address",
          "name": "spender",
          "type": "address"
        },
        {
          "internalType": "uint256",
          "name": "subtractedValue",
          "type": "uint256"
        }
      ],
      "name": "decreaseAllowance",
      "outputs": [
        {
          "internalType": "bool",
          "name": "",
          "type": "bool"
        }
      ],
      "stateMutability": "nonpayable",
      "type": "function"
    },
    {
      "inputs": [
        {
          "internalType": "address",
          "name": "spender",
          "type": "address"
        },
        {
          "internalType": "uint256",
          "name": "addedValue",
          "type": "uint256"
        }
      ],
      "name": "increaseAllowance",
      "outputs": [
        {
          "internalType": "bool",
          "name": "",
          "type": "bool"
        }
      ],
      "stateMutability": "nonpayable",
      "type": "function"
    },
    {
      "inputs": [],
      "name": "name",
      "outputs": [
        {
          "internalType": "string",
          "name": "",
          "type": "string"
        }
      ],
      "stateMutability": "view",
      "type": "function",
      "constant": true
    },
    {
      "inputs": [],
      "name": "symbol",
      "outputs": [
        {
          "internalType": "string",
          "name": "",
          "type": "string"
        }
      ],
      "stateMutability": "view",
      "type": "function",
      "constant": true
    },
    {
      "inputs": [],
      "name": "totalSupply",
      "outputs": [
        {
          "internalType": "uint256",
          "name": "",
          "type": "uint256"
        }
      ],
      "stateMutability": "view",
      "type": "function",
      "constant": true
    },
    {
      "inputs": [
        {
          "internalType": "address",
          "name": "recipient",
          "type": "address"
        },
        {
          "internalType": "uint256",
          "name": "amount",
          "type": "uint256"
        }
      ],
      "name": "transfer",
      "outputs": [
        {
          "internalType": "bool",
          "name": "",
          "type": "bool"
        }
      ],
      "stateMutability": "nonpayable",
      "type": "function"
    },
    {
      "inputs": [
        {
          "internalType": "address",
          "name": "sender",
          "type": "address"
        },
        {
          "internalType": "address",
          "name": "recipient",
          "type": "address"
        },
        {
          "internalType": "uint256",
          "name": "amount",
          "type": "uint256"
        }
      ],
      "name": "transferFrom",
      "outputs": [
        {
          "internalType": "bool",
          "name": "",
          "type": "bool"
        }
      ],
      "stateMutability": "nonpayable",
      "type": "function"
    },
    {
      "inputs": [],
      "name": "yunContract",
      "outputs": [
        {
          "internalType": "contract YunToken",
          "name": "",
          "type": "address"
        }
      ],
      "stateMutability": "view",
      "type": "function",
      "constant": true
    },
    {
      "inputs": [],
      "name": "getReserves",
      "outputs": [
        {
          "internalType": "uint256",
          "name": "_reserveBTC",
          "type": "uint256"
        },
        {
          "internalType": "uint256",
          "name": "_reserveYUN",
          "type": "uint256"
        }
      ],
      "stateMutability": "view",
      "type": "function",
      "constant": true
    },
    {
      "inputs": [],
      "name": "removeLiquidity",
      "outputs": [],
      "stateMutability": "nonpayable",
      "type": "function"
    },
    {
      "inputs": [
        {
          "internalType": "uint256",
          "name": "_amountInBtc",
          "type": "uint256"
        },
        {
          "internalType": "uint256",
          "name": "_amountInYun",
          "type": "uint256"
        }
      ],
      "name": "addLiquidity",
      "outputs": [
        {
          "internalType": "uint256",
          "name": "liquidity",
          "type": "uint256"
        }
      ],
      "stateMutability": "nonpayable",
      "type": "function"
    },
    {
      "inputs": [
        {
          "internalType": "uint256",
          "name": "_amountIn",
          "type": "uint256"
        }
      ],
      "name": "buyYunToken",
      "outputs": [],
      "stateMutability": "nonpayable",
      "type": "function"
    },
    {
      "inputs": [
        {
          "internalType": "uint256",
          "name": "_amountIn",
          "type": "uint256"
        }
      ],
      "name": "buyBtcToken",
      "outputs": [],
      "stateMutability": "nonpayable",
      "type": "function"
    },
    {
      "inputs": [
        {
          "internalType": "uint256",
          "name": "_amountIn",
          "type": "uint256"
        }
      ],
      "name": "getYunTokenPrice",
      "outputs": [
        {
          "internalType": "uint256",
          "name": "amountOut",
          "type": "uint256"
        }
      ],
      "stateMutability": "view",
      "type": "function",
      "constant": true
    },
    {
      "inputs": [
        {
          "internalType": "uint256",
          "name": "_amountIn",
          "type": "uint256"
        }
      ],
      "name": "getBtcTokenPrice",
      "outputs": [
        {
          "internalType": "uint256",
          "name": "amountOut",
          "type": "uint256"
        }
      ],
      "stateMutability": "view",
      "type": "function",
      "constant": true
    }
  ],
  "bytecode": "0x60806040523480156200001157600080fd5b506040516200305c3803806200305c83398181016040528101906200003791906200023f565b6040518060400160405280602081526020017f43616b6520746f6b656e20666f7220426974636f696e20616e642059756e69738152506040518060400160405280600581526020017f59422d4c500000000000000000000000000000000000000000000000000000008152508160039080519060200190620000bb92919062000161565b508060049080519060200190620000d492919062000161565b50505081600560006101000a81548173ffffffffffffffffffffffffffffffffffffffff021916908373ffffffffffffffffffffffffffffffffffffffff16021790555080600660006101000a81548173ffffffffffffffffffffffffffffffffffffffff021916908373ffffffffffffffffffffffffffffffffffffffff160217905550505062000375565b8280546200016f90620002dc565b90600052602060002090601f016020900481019282620001935760008555620001df565b82601f10620001ae57805160ff1916838001178555620001df565b82800160010185558215620001df579182015b82811115620001de578251825591602001919060010190620001c1565b5b509050620001ee9190620001f2565b5090565b5b808211156200020d576000816000905550600101620001f3565b5090565b600081519050620002228162000341565b92915050565b60008151905062000239816200035b565b92915050565b600080604083850312156200025357600080fd5b6000620002638582860162000211565b9250506020620002768582860162000228565b9150509250929050565b60006200028d82620002bc565b9050919050565b6000620002a18262000280565b9050919050565b6000620002b58262000280565b9050919050565b600073ffffffffffffffffffffffffffffffffffffffff82169050919050565b60006002820490506001821680620002f557607f821691505b602082108114156200030c576200030b62000312565b5b50919050565b7f4e487b7100000000000000000000000000000000000000000000000000000000600052602260045260246000fd5b6200034c8162000294565b81146200035857600080fd5b50565b6200036681620002a8565b81146200037257600080fd5b50565b612cd780620003856000396000f3fe608060405234801561001057600080fd5b506004361061012c5760003560e01c806367b9a286116100ad578063a9059cbb11610071578063a9059cbb1461035c578063bc30773f1461038c578063c745028e146103bc578063d4bd027e146103da578063dd62ed3e146103f65761012c565b806367b9a286146102a457806370a08231146102ae57806395d89b41146102de5780639cd441da146102fc578063a457c2d71461032c5761012c565b806323b872dd116100f457806323b872dd146101d857806327686cb314610208578063313ce56714610226578063395093511461024457806367817067146102745761012c565b806306fdde03146101315780630902f1ac1461014f578063095ea7b31461016e5780630bf7df761461019e57806318160ddd146101ba575b600080fd5b610139610426565b6040516101469190612494565b60405180910390f35b6101576104b8565b604051610165929190612651565b60405180910390f35b6101886004803603810190610183919061209e565b610619565b6040516101959190612443565b60405180910390f35b6101b860048036038101906101b39190612103565b610637565b005b6101c26108be565b6040516101cf9190612636565b60405180910390f35b6101f260048036038101906101ed919061204f565b6108c8565b6040516101ff9190612443565b60405180910390f35b6102106109c9565b60405161021d9190612479565b60405180910390f35b61022e6109ef565b60405161023b919061267a565b60405180910390f35b61025e6004803603810190610259919061209e565b6109f8565b60405161026b9190612443565b60405180910390f35b61028e60048036038101906102899190612103565b610aa4565b60405161029b9190612636565b60405180910390f35b6102ac610d33565b005b6102c860048036038101906102c39190611fea565b610f64565b6040516102d59190612636565b60405180910390f35b6102e6610fac565b6040516102f39190612494565b60405180910390f35b61031660048036038101906103119190612155565b61103e565b6040516103239190612636565b60405180910390f35b6103466004803603810190610341919061209e565b61136b565b6040516103539190612443565b60405180910390f35b6103766004803603810190610371919061209e565b61145f565b6040516103839190612443565b60405180910390f35b6103a660048036038101906103a19190612103565b61147d565b6040516103b39190612636565b60405180910390f35b6103c461161f565b6040516103d1919061245e565b60405180910390f35b6103f460048036038101906103ef9190612103565b611645565b005b610410600480360381019061040b9190612013565b6118cc565b60405161041d9190612636565b60405180910390f35b60606003805461043590612896565b80601f016020809104026020016040519081016040528092919081815260200182805461046190612896565b80156104ae5780601f10610483576101008083540402835291602001916104ae565b820191906000526020600020905b81548152906001019060200180831161049157829003601f168201915b5050505050905090565b600080600560009054906101000a900473ffffffffffffffffffffffffffffffffffffffff1673ffffffffffffffffffffffffffffffffffffffff166370a08231306040518263ffffffff1660e01b815260040161051691906123c8565b60206040518083038186803b15801561052e57600080fd5b505afa158015610542573d6000803e3d6000fd5b505050506040513d601f19601f82011682018060405250810190610566919061212c565b9150600660009054906101000a900473ffffffffffffffffffffffffffffffffffffffff1673ffffffffffffffffffffffffffffffffffffffff166370a08231306040518263ffffffff1660e01b81526004016105c391906123c8565b60206040518083038186803b1580156105db57600080fd5b505afa1580156105ef573d6000803e3d6000fd5b505050506040513d601f19601f82011682018060405250810190610613919061212c565b90509091565b600061062d610626611953565b848461195b565b6001905092915050565b600081141561064557600080fd5b80600660009054906101000a900473ffffffffffffffffffffffffffffffffffffffff1673ffffffffffffffffffffffffffffffffffffffff166370a08231336040518263ffffffff1660e01b81526004016106a191906123c8565b60206040518083038186803b1580156106b957600080fd5b505afa1580156106cd573d6000803e3d6000fd5b505050506040513d601f19601f820116820180604052508101906106f1919061212c565b11610731576040517f08c379a000000000000000000000000000000000000000000000000000000000815260040161072890612536565b60405180910390fd5b600061073b6104b8565b509050600061074983610aa4565b905080821161075757600080fd5b600660009054906101000a900473ffffffffffffffffffffffffffffffffffffffff1673ffffffffffffffffffffffffffffffffffffffff166323b872dd3330866040518463ffffffff1660e01b81526004016107b6939291906123e3565b602060405180830381600087803b1580156107d057600080fd5b505af11580156107e4573d6000803e3d6000fd5b505050506040513d601f19601f8201168201806040525081019061080891906120da565b50600560009054906101000a900473ffffffffffffffffffffffffffffffffffffffff1673ffffffffffffffffffffffffffffffffffffffff1663a9059cbb33836040518363ffffffff1660e01b815260040161086692919061241a565b602060405180830381600087803b15801561088057600080fd5b505af1158015610894573d6000803e3d6000fd5b505050506040513d601f19601f820116820180604052508101906108b891906120da565b50505050565b6000600254905090565b60006108d5848484611b26565b6000600160008673ffffffffffffffffffffffffffffffffffffffff1673ffffffffffffffffffffffffffffffffffffffff1681526020019081526020016000206000610920611953565b73ffffffffffffffffffffffffffffffffffffffff1673ffffffffffffffffffffffffffffffffffffffff168152602001908152602001600020549050828110156109a0576040517f08c379a000000000000000000000000000000000000000000000000000000000815260040161099790612556565b60405180910390fd5b6109bd856109ac611953565b85846109b89190612792565b61195b565b60019150509392505050565b600660009054906101000a900473ffffffffffffffffffffffffffffffffffffffff1681565b60006012905090565b6000610a9a610a05611953565b848460016000610a13611953565b73ffffffffffffffffffffffffffffffffffffffff1673ffffffffffffffffffffffffffffffffffffffff16815260200190815260200160002060008873ffffffffffffffffffffffffffffffffffffffff1673ffffffffffffffffffffffffffffffffffffffff16815260200190815260200160002054610a9591906126b1565b61195b565b6001905092915050565b600081600660009054906101000a900473ffffffffffffffffffffffffffffffffffffffff1673ffffffffffffffffffffffffffffffffffffffff166370a08231336040518263ffffffff1660e01b8152600401610b0291906123c8565b60206040518083038186803b158015610b1a57600080fd5b505afa158015610b2e573d6000803e3d6000fd5b505050506040513d601f19601f82011682018060405250810190610b52919061212c565b11610b92576040517f08c379a0000000000000000000000000000000000000000000000000000000008152600401610b8990612516565b60405180910390fd5b6000600560009054906101000a900473ffffffffffffffffffffffffffffffffffffffff1673ffffffffffffffffffffffffffffffffffffffff166370a08231306040518263ffffffff1660e01b8152600401610bef91906123c8565b60206040518083038186803b158015610c0757600080fd5b505afa158015610c1b573d6000803e3d6000fd5b505050506040513d601f19601f82011682018060405250810190610c3f919061212c565b90506000600660009054906101000a900473ffffffffffffffffffffffffffffffffffffffff1673ffffffffffffffffffffffffffffffffffffffff166370a08231306040518263ffffffff1660e01b8152600401610c9e91906123c8565b60206040518083038186803b158015610cb657600080fd5b505afa158015610cca573d6000803e3d6000fd5b505050506040513d601f19601f82011682018060405250810190610cee919061212c565b90506000610d058383611da590919063ffffffff16565b90508482610d1391906126b1565b81610d1e9190612707565b83610d299190612792565b9350505050919050565b6000610d3e33610f64565b90506000610d4b33610f64565b1415610d5657600080fd5b600080610d616104b8565b915091506000600254610d7d8486611da590919063ffffffff16565b610d879190612707565b90506000600254610da18487611da590919063ffffffff16565b610dab9190612707565b9050600660009054906101000a900473ffffffffffffffffffffffffffffffffffffffff1673ffffffffffffffffffffffffffffffffffffffff1663a9059cbb33846040518363ffffffff1660e01b8152600401610e0a92919061241a565b602060405180830381600087803b158015610e2457600080fd5b505af1158015610e38573d6000803e3d6000fd5b505050506040513d601f19601f82011682018060405250810190610e5c91906120da565b50600560009054906101000a900473ffffffffffffffffffffffffffffffffffffffff1673ffffffffffffffffffffffffffffffffffffffff1663a9059cbb33836040518363ffffffff1660e01b8152600401610eba92919061241a565b602060405180830381600087803b158015610ed457600080fd5b505af1158015610ee8573d6000803e3d6000fd5b505050506040513d601f19601f82011682018060405250810190610f0c91906120da565b503373ffffffffffffffffffffffffffffffffffffffff167f49995e5dd6158cf69ad3e9777c46755a1a826a446c6416992167462dad033b2a8383604051610f55929190612651565b60405180910390a25050505050565b60008060008373ffffffffffffffffffffffffffffffffffffffff1673ffffffffffffffffffffffffffffffffffffffff168152602001908152602001600020549050919050565b606060048054610fbb90612896565b80601f0160208091040260200160405190810160405280929190818152602001828054610fe790612896565b80156110345780601f1061100957610100808354040283529160200191611034565b820191906000526020600020905b81548152906001019060200180831161101757829003601f168201915b5050505050905090565b60007f8a36f5a234186d446e36a7df36ace663a05a580d9bea2dd899c6dd76a075d5fa8360405161106f9190612636565b60405180910390a17f8a36f5a234186d446e36a7df36ace663a05a580d9bea2dd899c6dd76a075d5fa826040516110a69190612636565b60405180910390a16000806110b96104b8565b91509150600060025414156110d2576103e892506111b1565b6110e58183611e0e90919063ffffffff16565b6110f88587611e0e90919063ffffffff16565b148061112757506111128282611e0e90919063ffffffff16565b6111258686611e0e90919063ffffffff16565b145b611166576040517f08c379a000000000000000000000000000000000000000000000000000000000815260040161115d90612576565b60405180910390fd5b6111ae8261117f60025488611da590919063ffffffff16565b6111899190612707565b8261119f60025488611da590919063ffffffff16565b6111a99190612707565b611e24565b92505b60008314156111f5576040517f08c379a00000000000000000000000000000000000000000000000000000000081526004016111ec906125d6565b60405180910390fd5b600560009054906101000a900473ffffffffffffffffffffffffffffffffffffffff1673ffffffffffffffffffffffffffffffffffffffff166323b872dd3330886040518463ffffffff1660e01b8152600401611254939291906123e3565b602060405180830381600087803b15801561126e57600080fd5b505af1158015611282573d6000803e3d6000fd5b505050506040513d601f19601f820116820180604052508101906112a691906120da565b50600660009054906101000a900473ffffffffffffffffffffffffffffffffffffffff1673ffffffffffffffffffffffffffffffffffffffff166323b872dd3330876040518463ffffffff1660e01b8152600401611306939291906123e3565b602060405180830381600087803b15801561132057600080fd5b505af1158015611334573d6000803e3d6000fd5b505050506040513d601f19601f8201168201806040525081019061135891906120da565b506113633384611e3d565b505092915050565b6000806001600061137a611953565b73ffffffffffffffffffffffffffffffffffffffff1673ffffffffffffffffffffffffffffffffffffffff16815260200190815260200160002060008573ffffffffffffffffffffffffffffffffffffffff1673ffffffffffffffffffffffffffffffffffffffff16815260200190815260200160002054905082811015611437576040517f08c379a000000000000000000000000000000000000000000000000000000000815260040161142e906125f6565b60405180910390fd5b611454611442611953565b85858461144f9190612792565b61195b565b600191505092915050565b600061147361146c611953565b8484611b26565b6001905092915050565b600080600560009054906101000a900473ffffffffffffffffffffffffffffffffffffffff1673ffffffffffffffffffffffffffffffffffffffff166370a08231306040518263ffffffff1660e01b81526004016114db91906123c8565b60206040518083038186803b1580156114f357600080fd5b505afa158015611507573d6000803e3d6000fd5b505050506040513d601f19601f8201168201806040525081019061152b919061212c565b90506000600660009054906101000a900473ffffffffffffffffffffffffffffffffffffffff1673ffffffffffffffffffffffffffffffffffffffff166370a08231306040518263ffffffff1660e01b815260040161158a91906123c8565b60206040518083038186803b1580156115a257600080fd5b505afa1580156115b6573d6000803e3d6000fd5b505050506040513d601f19601f820116820180604052508101906115da919061212c565b905060006115f18383611da590919063ffffffff16565b905084836115ff91906126b1565b8161160a9190612707565b826116159190612792565b9350505050919050565b600560009054906101000a900473ffffffffffffffffffffffffffffffffffffffff1681565b600081141561165357600080fd5b80600560009054906101000a900473ffffffffffffffffffffffffffffffffffffffff1673ffffffffffffffffffffffffffffffffffffffff166370a08231336040518263ffffffff1660e01b81526004016116af91906123c8565b60206040518083038186803b1580156116c757600080fd5b505afa1580156116db573d6000803e3d6000fd5b505050506040513d601f19601f820116820180604052508101906116ff919061212c565b1161173f576040517f08c379a000000000000000000000000000000000000000000000000000000000815260040161173690612516565b60405180910390fd5b60006117496104b8565b915050600061175783610aa4565b905080821161176557600080fd5b600560009054906101000a900473ffffffffffffffffffffffffffffffffffffffff1673ffffffffffffffffffffffffffffffffffffffff166323b872dd3330866040518463ffffffff1660e01b81526004016117c4939291906123e3565b602060405180830381600087803b1580156117de57600080fd5b505af11580156117f2573d6000803e3d6000fd5b505050506040513d601f19601f8201168201806040525081019061181691906120da565b50600660009054906101000a900473ffffffffffffffffffffffffffffffffffffffff1673ffffffffffffffffffffffffffffffffffffffff1663a9059cbb33836040518363ffffffff1660e01b815260040161187492919061241a565b602060405180830381600087803b15801561188e57600080fd5b505af11580156118a2573d6000803e3d6000fd5b505050506040513d601f19601f820116820180604052508101906118c691906120da565b50505050565b6000600160008473ffffffffffffffffffffffffffffffffffffffff1673ffffffffffffffffffffffffffffffffffffffff16815260200190815260200160002060008373ffffffffffffffffffffffffffffffffffffffff1673ffffffffffffffffffffffffffffffffffffffff16815260200190815260200160002054905092915050565b600033905090565b600073ffffffffffffffffffffffffffffffffffffffff168373ffffffffffffffffffffffffffffffffffffffff1614156119cb576040517f08c379a00000000000000000000000000000000000000000000000000000000081526004016119c2906125b6565b60405180910390fd5b600073ffffffffffffffffffffffffffffffffffffffff168273ffffffffffffffffffffffffffffffffffffffff161415611a3b576040517f08c379a0000000000000000000000000000000000000000000000000000000008152600401611a32906124d6565b60405180910390fd5b80600160008573ffffffffffffffffffffffffffffffffffffffff1673ffffffffffffffffffffffffffffffffffffffff16815260200190815260200160002060008473ffffffffffffffffffffffffffffffffffffffff1673ffffffffffffffffffffffffffffffffffffffff168152602001908152602001600020819055508173ffffffffffffffffffffffffffffffffffffffff168373ffffffffffffffffffffffffffffffffffffffff167f8c5be1e5ebec7d5bd14f71427d1e84f3dd0314c0f7b2291e5b200ac8c7c3b92583604051611b199190612636565b60405180910390a3505050565b600073ffffffffffffffffffffffffffffffffffffffff168373ffffffffffffffffffffffffffffffffffffffff161415611b96576040517f08c379a0000000000000000000000000000000000000000000000000000000008152600401611b8d90612596565b60405180910390fd5b600073ffffffffffffffffffffffffffffffffffffffff168273ffffffffffffffffffffffffffffffffffffffff161415611c06576040517f08c379a0000000000000000000000000000000000000000000000000000000008152600401611bfd906124b6565b60405180910390fd5b611c11838383611f91565b60008060008573ffffffffffffffffffffffffffffffffffffffff1673ffffffffffffffffffffffffffffffffffffffff16815260200190815260200160002054905081811015611c97576040517f08c379a0000000000000000000000000000000000000000000000000000000008152600401611c8e906124f6565b60405180910390fd5b8181611ca39190612792565b6000808673ffffffffffffffffffffffffffffffffffffffff1673ffffffffffffffffffffffffffffffffffffffff16815260200190815260200160002081905550816000808573ffffffffffffffffffffffffffffffffffffffff1673ffffffffffffffffffffffffffffffffffffffff1681526020019081526020016000206000828254611d3391906126b1565b925050819055508273ffffffffffffffffffffffffffffffffffffffff168473ffffffffffffffffffffffffffffffffffffffff167fddf252ad1be2c89b69c2b068fc378daa952ba7f163c4a11628f55a4df523b3ef84604051611d979190612636565b60405180910390a350505050565b600080831415611db85760009050611e08565b8183611dc49190612738565b9050818382611dd39190612707565b14611e07577f4e487b7100000000000000000000000000000000000000000000000000000000600052600160045260246000fd5b5b92915050565b60008183611e1c9190612707565b905092915050565b6000818310611e335781611e35565b825b905092915050565b600073ffffffffffffffffffffffffffffffffffffffff168273ffffffffffffffffffffffffffffffffffffffff161415611ead576040517f08c379a0000000000000000000000000000000000000000000000000000000008152600401611ea490612616565b60405180910390fd5b611eb960008383611f91565b8060026000828254611ecb91906126b1565b92505081905550806000808473ffffffffffffffffffffffffffffffffffffffff1673ffffffffffffffffffffffffffffffffffffffff1681526020019081526020016000206000828254611f2091906126b1565b925050819055508173ffffffffffffffffffffffffffffffffffffffff16600073ffffffffffffffffffffffffffffffffffffffff167fddf252ad1be2c89b69c2b068fc378daa952ba7f163c4a11628f55a4df523b3ef83604051611f859190612636565b60405180910390a35050565b505050565b600081359050611fa581612c5c565b92915050565b600081519050611fba81612c73565b92915050565b600081359050611fcf81612c8a565b92915050565b600081519050611fe481612c8a565b92915050565b600060208284031215611ffc57600080fd5b600061200a84828501611f96565b91505092915050565b6000806040838503121561202657600080fd5b600061203485828601611f96565b925050602061204585828601611f96565b9150509250929050565b60008060006060848603121561206457600080fd5b600061207286828701611f96565b935050602061208386828701611f96565b925050604061209486828701611fc0565b9150509250925092565b600080604083850312156120b157600080fd5b60006120bf85828601611f96565b92505060206120d085828601611fc0565b9150509250929050565b6000602082840312156120ec57600080fd5b60006120fa84828501611fab565b91505092915050565b60006020828403121561211557600080fd5b600061212384828501611fc0565b91505092915050565b60006020828403121561213e57600080fd5b600061214c84828501611fd5565b91505092915050565b6000806040838503121561216857600080fd5b600061217685828601611fc0565b925050602061218785828601611fc0565b9150509250929050565b61219a816127c6565b82525050565b6121a9816127d8565b82525050565b6121b88161281b565b82525050565b6121c78161283f565b82525050565b60006121d882612695565b6121e281856126a0565b93506121f2818560208601612863565b6121fb81612955565b840191505092915050565b60006122136023836126a0565b915061221e82612966565b604082019050919050565b60006122366022836126a0565b9150612241826129b5565b604082019050919050565b60006122596026836126a0565b915061226482612a04565b604082019050919050565b600061227c6014836126a0565b915061228782612a53565b602082019050919050565b600061229f6014836126a0565b91506122aa82612a7c565b602082019050919050565b60006122c26028836126a0565b91506122cd82612aa5565b604082019050919050565b60006122e56016836126a0565b91506122f082612af4565b602082019050919050565b60006123086025836126a0565b915061231382612b1d565b604082019050919050565b600061232b6024836126a0565b915061233682612b6c565b604082019050919050565b600061234e6005836126a0565b915061235982612bbb565b602082019050919050565b60006123716025836126a0565b915061237c82612be4565b604082019050919050565b6000612394601f836126a0565b915061239f82612c33565b602082019050919050565b6123b381612804565b82525050565b6123c28161280e565b82525050565b60006020820190506123dd6000830184612191565b92915050565b60006060820190506123f86000830186612191565b6124056020830185612191565b61241260408301846123aa565b949350505050565b600060408201905061242f6000830185612191565b61243c60208301846123aa565b9392505050565b600060208201905061245860008301846121a0565b92915050565b600060208201905061247360008301846121af565b92915050565b600060208201905061248e60008301846121be565b92915050565b600060208201905081810360008301526124ae81846121cd565b905092915050565b600060208201905081810360008301526124cf81612206565b9050919050565b600060208201905081810360008301526124ef81612229565b9050919050565b6000602082019050818103600083015261250f8161224c565b9050919050565b6000602082019050818103600083015261252f8161226f565b9050919050565b6000602082019050818103600083015261254f81612292565b9050919050565b6000602082019050818103600083015261256f816122b5565b9050919050565b6000602082019050818103600083015261258f816122d8565b9050919050565b600060208201905081810360008301526125af816122fb565b9050919050565b600060208201905081810360008301526125cf8161231e565b9050919050565b600060208201905081810360008301526125ef81612341565b9050919050565b6000602082019050818103600083015261260f81612364565b9050919050565b6000602082019050818103600083015261262f81612387565b9050919050565b600060208201905061264b60008301846123aa565b92915050565b600060408201905061266660008301856123aa565b61267360208301846123aa565b9392505050565b600060208201905061268f60008301846123b9565b92915050565b600081519050919050565b600082825260208201905092915050565b60006126bc82612804565b91506126c783612804565b9250827fffffffffffffffffffffffffffffffffffffffffffffffffffffffffffffffff038211156126fc576126fb6128c8565b5b828201905092915050565b600061271282612804565b915061271d83612804565b92508261272d5761272c6128f7565b5b828204905092915050565b600061274382612804565b915061274e83612804565b9250817fffffffffffffffffffffffffffffffffffffffffffffffffffffffffffffffff0483118215151615612787576127866128c8565b5b828202905092915050565b600061279d82612804565b91506127a883612804565b9250828210156127bb576127ba6128c8565b5b828203905092915050565b60006127d1826127e4565b9050919050565b60008115159050919050565b600073ffffffffffffffffffffffffffffffffffffffff82169050919050565b6000819050919050565b600060ff82169050919050565b60006128268261282d565b9050919050565b6000612838826127e4565b9050919050565b600061284a82612851565b9050919050565b600061285c826127e4565b9050919050565b60005b83811015612881578082015181840152602081019050612866565b83811115612890576000848401525b50505050565b600060028204905060018216806128ae57607f821691505b602082108114156128c2576128c1612926565b5b50919050565b7f4e487b7100000000000000000000000000000000000000000000000000000000600052601160045260246000fd5b7f4e487b7100000000000000000000000000000000000000000000000000000000600052601260045260246000fd5b7f4e487b7100000000000000000000000000000000000000000000000000000000600052602260045260246000fd5b6000601f19601f8301169050919050565b7f45524332303a207472616e7366657220746f20746865207a65726f206164647260008201527f6573730000000000000000000000000000000000000000000000000000000000602082015250565b7f45524332303a20617070726f766520746f20746865207a65726f20616464726560008201527f7373000000000000000000000000000000000000000000000000000000000000602082015250565b7f45524332303a207472616e7366657220616d6f756e742065786365656473206260008201527f616c616e63650000000000000000000000000000000000000000000000000000602082015250565b7f6e6f7420456e6f7567682042544320546f6b656e000000000000000000000000600082015250565b7f6e6f7420456e6f7567682059554e20546f6b656e000000000000000000000000600082015250565b7f45524332303a207472616e7366657220616d6f756e742065786365656473206160008201527f6c6c6f77616e6365000000000000000000000000000000000000000000000000602082015250565b7f70726f706f7274696f6e2069736e277420726967687400000000000000000000600082015250565b7f45524332303a207472616e736665722066726f6d20746865207a65726f20616460008201527f6472657373000000000000000000000000000000000000000000000000000000602082015250565b7f45524332303a20617070726f76652066726f6d20746865207a65726f2061646460008201527f7265737300000000000000000000000000000000000000000000000000000000602082015250565b7f4572726f72000000000000000000000000000000000000000000000000000000600082015250565b7f45524332303a2064656372656173656420616c6c6f77616e63652062656c6f7760008201527f207a65726f000000000000000000000000000000000000000000000000000000602082015250565b7f45524332303a206d696e7420746f20746865207a65726f206164647265737300600082015250565b612c65816127c6565b8114612c7057600080fd5b50565b612c7c816127d8565b8114612c8757600080fd5b50565b612c9381612804565b8114612c9e57600080fd5b5056fea26469706673582212205cab6863c1b7fbe5ec12a2a126e8c154240f3c19e3c9339aa5f2b4fa6f7ce93164736f6c63430008040033",
  "immutableReferences": {},
  "source": "pragma solidity ^0.8.4;\r\n\r\nimport \"./BtcToken.sol\";\r\nimport \"./YunToken.sol\";\r\nimport \"./utils/Safemath.sol\";\r\nimport \"./utils/Math.sol\";\r\nimport \"./extensions/ERC20.sol\";\r\nimport \"./extensions/ERC20.sol\";\r\nimport \"./interfaces/IERC20.sol\";\r\n\r\ncontract YunBtcCake is ERC20 {\r\n    BtcToken public btcContract;\r\n    YunToken public yunContract;\r\n    using SafeMath for uint256;\r\n\r\n    constructor(BtcToken _btcContract, YunToken _yunContract) ERC20('Cake token for Bitcoin and Yunis', 'YB-LP'){\r\n        btcContract = _btcContract;\r\n        yunContract = _yunContract;\r\n    }\r\n\r\n    event AddLiquidity(address indexed sender, uint256 amountBTC, uint256 amountYUN, uint256 liquidity);\r\n    event Burn(address indexed sender, uint amountBTC, uint amountYUN);\r\n    event Debug(uint256);\r\n\r\n\r\n    function getReserves() public view returns (uint256 _reserveBTC, uint256 _reserveYUN) {\r\n        _reserveBTC = IERC20(btcContract).balanceOf(address(this));\r\n        _reserveYUN = IERC20(yunContract).balanceOf(address(this));\r\n    }\r\n\r\n    function removeLiquidity() public {\r\n        uint256 liquidity = balanceOf(msg.sender);\r\n        require(balanceOf(msg.sender) != 0);\r\n        (uint256 _reverseBTC, uint256  _reverseYUN) = getReserves();\r\n\r\n        uint256 amountBTC = liquidity.mul(_reverseBTC) / _totalSupply;\r\n\r\n        // using balances ensures pro-rata distribution\r\n        uint256 amountYUN = liquidity.mul(_reverseYUN) / _totalSupply;\r\n\r\n        IERC20(yunContract).transfer(msg.sender, amountBTC);\r\n        IERC20(btcContract).transfer(msg.sender, amountYUN);\r\n\r\n        emit Burn(msg.sender, amountBTC, amountYUN);\r\n    }\r\n\r\n    function addLiquidity(uint256 _amountInBtc, uint256 _amountInYun) public returns (uint256 liquidity) {\r\n        emit Debug(_amountInBtc);\r\n        emit Debug(_amountInYun);\r\n        //        require((_amountInBtc == 0) || (_amountInYun == 0), \"arguments can not be equal zero\");\r\n\r\n\r\n        (uint256 _reverseBTC,uint256 _reverseYUN) = getReserves();\r\n\r\n        if (_totalSupply == 0) {\r\n            liquidity = 1000;\r\n        } else {\r\n            require(\r\n                (_amountInBtc.div(_amountInYun) == _reverseBTC.div(_reverseYUN))\r\n                ||\r\n                (_amountInYun.div(_amountInBtc) == _reverseYUN.div(_reverseBTC)),\r\n                \"proportion isn't right\"\r\n            );\r\n\r\n            liquidity = Math.min(\r\n                _amountInBtc.mul(_totalSupply) / _reverseBTC,\r\n                _amountInYun.mul(_totalSupply) / _reverseYUN\r\n            );\r\n        }\r\n        require(liquidity != 0, \"Error\");\r\n\r\n        IERC20(btcContract).transferFrom(msg.sender, address(this), _amountInBtc);\r\n        IERC20(yunContract).transferFrom(msg.sender, address(this), _amountInYun);\r\n        _mint(msg.sender, liquidity);\r\n    }\r\n\r\n\r\n    function buyYunToken(uint256 _amountIn) public {\r\n        require(_amountIn != 0);\r\n        require(IERC20(btcContract).balanceOf(msg.sender) > _amountIn, \"not Enough BTC Token\");\r\n\r\n        (, uint256 _reserveYUN) = getReserves();\r\n\r\n\r\n        uint256 amountOut = getBtcTokenPrice(_amountIn);\r\n        require(_reserveYUN > amountOut);\r\n\r\n        IERC20(btcContract).transferFrom(msg.sender, address(this), _amountIn);\r\n        IERC20(yunContract).transfer(msg.sender, amountOut);\r\n    }\r\n\r\n\r\n    function buyBtcToken(uint256 _amountIn) public {\r\n        require(_amountIn != 0);\r\n        require(IERC20(yunContract).balanceOf(msg.sender) > _amountIn, \"not Enough YUN Token\");\r\n\r\n        (uint256 _reserveBTC,) = getReserves();\r\n\r\n\r\n        uint256 amountOut = getBtcTokenPrice(_amountIn);\r\n        require(_reserveBTC > amountOut);\r\n\r\n        IERC20(yunContract).transferFrom(msg.sender, address(this), _amountIn);\r\n        IERC20(btcContract).transfer(msg.sender, amountOut);\r\n\r\n\r\n    }\r\n\r\n    function getYunTokenPrice(uint256 _amountIn) public view returns (uint256 amountOut){\r\n\r\n\r\n        uint256 balanceBTC = IERC20(btcContract).balanceOf(address(this));\r\n        uint256 balanceYUN = IERC20(yunContract).balanceOf(address(this));\r\n\r\n        uint256 konstant0 = balanceYUN.mul(balanceBTC);\r\n        //        uint256 konstant1 = balanceYUN.mul(balanceBTC.add(_amount));\r\n        amountOut = balanceYUN - konstant0 / (balanceBTC + _amountIn);\r\n    }\r\n\r\n\r\n    function getBtcTokenPrice(uint256 _amountIn) public view returns (uint256 amountOut){\r\n        require(IERC20(yunContract).balanceOf(msg.sender) > _amountIn, \"not Enough BTC Token\");\r\n\r\n        uint256 balanceBTC = IERC20(btcContract).balanceOf(address(this));\r\n        uint256 balanceYUN = IERC20(yunContract).balanceOf(address(this));\r\n\r\n        uint256 konstant0 = balanceYUN.mul(balanceBTC);\r\n        //        uint256 konstant1 = balanceYUN.mul(balanceBTC.add(_amount));\r\n        amountOut = balanceBTC - konstant0 / (balanceYUN + _amountIn);\r\n    }\r\n}\r\n",
  "sourcePath": "C:/Users/Yunis/WebstormProjects/untitled/contracts/YunBtcCake.sol",
  "compiler": {
    "name": "solc",
    "version": "0.8.4+commit.c7e474f2.Emscripten.clang"
  },
  "schemaVersion": "3.4.0",
  "updatedAt": "2021-05-03T11:10:25.247Z",
  "networkType": "ethereum",
  "devdoc": {
    "kind": "dev",
    "methods": {
      "allowance(address,address)": {
        "details": "See {IERC20-allowance}."
      },
      "approve(address,uint256)": {
        "details": "See {IERC20-approve}. Requirements: - `spender` cannot be the zero address."
      },
      "balanceOf(address)": {
        "details": "See {IERC20-balanceOf}."
      },
      "decimals()": {
        "details": "Returns the number of decimals used to get its user representation. For example, if `decimals` equals `2`, a balance of `505` tokens should be displayed to a user as `5,05` (`505 / 10 ** 2`). Tokens usually opt for a value of 18, imitating the relationship between Ether and Wei. This is the value {ERC20} uses, unless this function is overridden; NOTE: This information is only used for _display_ purposes: it in no way affects any of the arithmetic of the contract, including {IERC20-balanceOf} and {IERC20-transfer}."
      },
      "decreaseAllowance(address,uint256)": {
        "details": "Atomically decreases the allowance granted to `spender` by the caller. This is an alternative to {approve} that can be used as a mitigation for problems described in {IERC20-approve}. Emits an {Approval} event indicating the updated allowance. Requirements: - `spender` cannot be the zero address. - `spender` must have allowance for the caller of at least `subtractedValue`."
      },
      "increaseAllowance(address,uint256)": {
        "details": "Atomically increases the allowance granted to `spender` by the caller. This is an alternative to {approve} that can be used as a mitigation for problems described in {IERC20-approve}. Emits an {Approval} event indicating the updated allowance. Requirements: - `spender` cannot be the zero address."
      },
      "name()": {
        "details": "Returns the name of the token."
      },
      "symbol()": {
        "details": "Returns the symbol of the token, usually a shorter version of the name."
      },
      "totalSupply()": {
        "details": "See {IERC20-totalSupply}."
      },
      "transfer(address,uint256)": {
        "details": "See {IERC20-transfer}. Requirements: - `recipient` cannot be the zero address. - the caller must have a balance of at least `amount`."
      },
      "transferFrom(address,address,uint256)": {
        "details": "See {IERC20-transferFrom}. Emits an {Approval} event indicating the updated allowance. This is not required by the EIP. See the note at the beginning of {ERC20}. Requirements: - `sender` and `recipient` cannot be the zero address. - `sender` must have a balance of at least `amount`. - the caller must have allowance for ``sender``'s tokens of at least `amount`."
      }
    },
    "version": 1
  },
  "userdoc": {
    "kind": "user",
    "methods": {},
    "version": 1
  }
}