{
  "contractName": "YunToken",
  "abi": [
    {
      "inputs": [
        {
          "internalType": "uint256",
          "name": "_initialSupply",
          "type": "uint256"
        },
        {
          "internalType": "uint256",
          "name": "_tokenPrice",
          "type": "uint256"
        },
        {
          "internalType": "uint256",
          "name": "_tokensAvailable",
          "type": "uint256"
        }
      ],
      "stateMutability": "nonpayable",
      "type": "constructor"
    },
    {
      "anonymous": false,
      "inputs": [
        {
          "indexed": true,
          "internalType": "address",
          "name": "owner",
          "type": "address"
        },
        {
          "indexed": true,
          "internalType": "address",
          "name": "spender",
          "type": "address"
        },
        {
          "indexed": false,
          "internalType": "uint256",
          "name": "value",
          "type": "uint256"
        }
      ],
      "name": "Approval",
      "type": "event"
    },
    {
      "anonymous": false,
      "inputs": [
        {
          "indexed": true,
          "internalType": "address",
          "name": "previousOwner",
          "type": "address"
        },
        {
          "indexed": true,
          "internalType": "address",
          "name": "newOwner",
          "type": "address"
        }
      ],
      "name": "OwnershipTransferred",
      "type": "event"
    },
    {
      "anonymous": false,
      "inputs": [
        {
          "indexed": false,
          "internalType": "address",
          "name": "_player",
          "type": "address"
        },
        {
          "indexed": false,
          "internalType": "uint256",
          "name": "_reward",
          "type": "uint256"
        }
      ],
      "name": "Roulette",
      "type": "event"
    },
    {
      "anonymous": false,
      "inputs": [
        {
          "indexed": false,
          "internalType": "address",
          "name": "_buyer",
          "type": "address"
        },
        {
          "indexed": false,
          "internalType": "uint256",
          "name": "_amount",
          "type": "uint256"
        }
      ],
      "name": "Sell",
      "type": "event"
    },
    {
      "anonymous": false,
      "inputs": [
        {
          "indexed": false,
          "internalType": "uint256",
          "name": "_tokenPrice",
          "type": "uint256"
        }
      ],
      "name": "SetTokenPrice",
      "type": "event"
    },
    {
      "anonymous": false,
      "inputs": [
        {
          "indexed": false,
          "internalType": "address",
          "name": "_player",
          "type": "address"
        },
        {
          "indexed": false,
          "internalType": "uint256",
          "name": "_reward",
          "type": "uint256"
        },
        {
          "indexed": false,
          "internalType": "uint256[3]",
          "name": "_wheelsValues",
          "type": "uint256[3]"
        }
      ],
      "name": "SlotMachine",
      "type": "event"
    },
    {
      "anonymous": false,
      "inputs": [],
      "name": "StartSelling",
      "type": "event"
    },
    {
      "anonymous": false,
      "inputs": [],
      "name": "StopSelling",
      "type": "event"
    },
    {
      "anonymous": false,
      "inputs": [
        {
          "indexed": true,
          "internalType": "address",
          "name": "from",
          "type": "address"
        },
        {
          "indexed": true,
          "internalType": "address",
          "name": "to",
          "type": "address"
        },
        {
          "indexed": false,
          "internalType": "uint256",
          "name": "value",
          "type": "uint256"
        }
      ],
      "name": "Transfer",
      "type": "event"
    },
    {
      "inputs": [
        {
          "internalType": "address",
          "name": "owner",
          "type": "address"
        },
        {
          "internalType": "address",
          "name": "spender",
          "type": "address"
        }
      ],
      "name": "allowance",
      "outputs": [
        {
          "internalType": "uint256",
          "name": "",
          "type": "uint256"
        }
      ],
      "stateMutability": "view",
      "type": "function",
      "constant": true
    },
    {
      "inputs": [
        {
          "internalType": "address",
          "name": "spender",
          "type": "address"
        },
        {
          "internalType": "uint256",
          "name": "amount",
          "type": "uint256"
        }
      ],
      "name": "approve",
      "outputs": [
        {
          "internalType": "bool",
          "name": "",
          "type": "bool"
        }
      ],
      "stateMutability": "nonpayable",
      "type": "function"
    },
    {
      "inputs": [
        {
          "internalType": "address",
          "name": "account",
          "type": "address"
        }
      ],
      "name": "balanceOf",
      "outputs": [
        {
          "internalType": "uint256",
          "name": "",
          "type": "uint256"
        }
      ],
      "stateMutability": "view",
      "type": "function",
      "constant": true
    },
    {
      "inputs": [],
      "name": "decimals",
      "outputs": [
        {
          "internalType": "uint8",
          "name": "",
          "type": "uint8"
        }
      ],
      "stateMutability": "view",
      "type": "function",
      "constant": true
    },
    {
      "inputs": [
        {
          "internalType": "address",
          "name": "spender",
          "type": "address"
        },
        {
          "internalType": "uint256",
          "name": "subtractedValue",
          "type": "uint256"
        }
      ],
      "name": "decreaseAllowance",
      "outputs": [
        {
          "internalType": "bool",
          "name": "",
          "type": "bool"
        }
      ],
      "stateMutability": "nonpayable",
      "type": "function"
    },
    {
      "inputs": [
        {
          "internalType": "address",
          "name": "spender",
          "type": "address"
        },
        {
          "internalType": "uint256",
          "name": "addedValue",
          "type": "uint256"
        }
      ],
      "name": "increaseAllowance",
      "outputs": [
        {
          "internalType": "bool",
          "name": "",
          "type": "bool"
        }
      ],
      "stateMutability": "nonpayable",
      "type": "function"
    },
    {
      "inputs": [],
      "name": "name",
      "outputs": [
        {
          "internalType": "string",
          "name": "",
          "type": "string"
        }
      ],
      "stateMutability": "view",
      "type": "function",
      "constant": true
    },
    {
      "inputs": [],
      "name": "onSale",
      "outputs": [
        {
          "internalType": "bool",
          "name": "",
          "type": "bool"
        }
      ],
      "stateMutability": "view",
      "type": "function",
      "constant": true
    },
    {
      "inputs": [],
      "name": "owner",
      "outputs": [
        {
          "internalType": "address",
          "name": "",
          "type": "address"
        }
      ],
      "stateMutability": "view",
      "type": "function",
      "constant": true
    },
    {
      "inputs": [],
      "name": "renounceOwnership",
      "outputs": [],
      "stateMutability": "nonpayable",
      "type": "function"
    },
    {
      "inputs": [],
      "name": "startSale",
      "outputs": [],
      "stateMutability": "nonpayable",
      "type": "function"
    },
    {
      "inputs": [],
      "name": "stopSale",
      "outputs": [],
      "stateMutability": "nonpayable",
      "type": "function"
    },
    {
      "inputs": [],
      "name": "symbol",
      "outputs": [
        {
          "internalType": "string",
          "name": "",
          "type": "string"
        }
      ],
      "stateMutability": "view",
      "type": "function",
      "constant": true
    },
    {
      "inputs": [],
      "name": "tokenPrice",
      "outputs": [
        {
          "internalType": "uint256",
          "name": "",
          "type": "uint256"
        }
      ],
      "stateMutability": "view",
      "type": "function",
      "constant": true
    },
    {
      "inputs": [],
      "name": "tokensSold",
      "outputs": [
        {
          "internalType": "uint256",
          "name": "",
          "type": "uint256"
        }
      ],
      "stateMutability": "view",
      "type": "function",
      "constant": true
    },
    {
      "inputs": [],
      "name": "totalSupply",
      "outputs": [
        {
          "internalType": "uint256",
          "name": "",
          "type": "uint256"
        }
      ],
      "stateMutability": "view",
      "type": "function",
      "constant": true
    },
    {
      "inputs": [
        {
          "internalType": "address",
          "name": "recipient",
          "type": "address"
        },
        {
          "internalType": "uint256",
          "name": "amount",
          "type": "uint256"
        }
      ],
      "name": "transfer",
      "outputs": [
        {
          "internalType": "bool",
          "name": "",
          "type": "bool"
        }
      ],
      "stateMutability": "nonpayable",
      "type": "function"
    },
    {
      "inputs": [
        {
          "internalType": "address",
          "name": "sender",
          "type": "address"
        },
        {
          "internalType": "address",
          "name": "recipient",
          "type": "address"
        },
        {
          "internalType": "uint256",
          "name": "amount",
          "type": "uint256"
        }
      ],
      "name": "transferFrom",
      "outputs": [
        {
          "internalType": "bool",
          "name": "",
          "type": "bool"
        }
      ],
      "stateMutability": "nonpayable",
      "type": "function"
    },
    {
      "inputs": [
        {
          "internalType": "address",
          "name": "newOwner",
          "type": "address"
        }
      ],
      "name": "transferOwnership",
      "outputs": [],
      "stateMutability": "nonpayable",
      "type": "function"
    },
    {
      "inputs": [
        {
          "internalType": "uint256",
          "name": "_numberOfTokens",
          "type": "uint256"
        }
      ],
      "name": "buyTokens",
      "outputs": [
        {
          "internalType": "bool",
          "name": "",
          "type": "bool"
        }
      ],
      "stateMutability": "payable",
      "type": "function",
      "payable": true
    },
    {
      "inputs": [
        {
          "internalType": "uint256",
          "name": "_tokenPrice",
          "type": "uint256"
        }
      ],
      "name": "setTokenPrice",
      "outputs": [],
      "stateMutability": "nonpayable",
      "type": "function"
    },
    {
      "inputs": [
        {
          "internalType": "uint256",
          "name": "_value",
          "type": "uint256"
        },
        {
          "internalType": "uint256",
          "name": "_color",
          "type": "uint256"
        }
      ],
      "name": "roulette",
      "outputs": [
        {
          "internalType": "uint256",
          "name": "_value_casino",
          "type": "uint256"
        },
        {
          "internalType": "uint256",
          "name": "_color_casino",
          "type": "uint256"
        },
        {
          "internalType": "uint256",
          "name": "reward",
          "type": "uint256"
        }
      ],
      "stateMutability": "nonpayable",
      "type": "function"
    },
    {
      "inputs": [],
      "name": "slotMachine",
      "outputs": [
        {
          "internalType": "uint256[3]",
          "name": "wheelsValues",
          "type": "uint256[3]"
        },
        {
          "internalType": "uint256",
          "name": "reward",
          "type": "uint256"
        }
      ],
      "stateMutability": "nonpayable",
      "type": "function"
    }
  ],
  "bytecode": "0x60806040526001600560146101000a81548160ff02191690831515021790555060006007553480156200003157600080fd5b50604051620031a2380380620031a28339818101604052810190620000579190620002d8565b6040518060400160405280600b81526020017f59756e697320546f6b656e0000000000000000000000000000000000000000008152506040518060400160405280600381526020017f59554e00000000000000000000000000000000000000000000000000000000008152508160039080519060200190620000db92919062000211565b508060049080519060200190620000f492919062000211565b5050506000620001096200020960201b60201c565b905080600560006101000a81548173ffffffffffffffffffffffffffffffffffffffff021916908373ffffffffffffffffffffffffffffffffffffffff1602179055508073ffffffffffffffffffffffffffffffffffffffff16600073ffffffffffffffffffffffffffffffffffffffff167f8be0079c531659141344cd1fd0a4f28419497f9722a3daafe3b4186f6b6457e060405160405180910390a350826000803373ffffffffffffffffffffffffffffffffffffffff1673ffffffffffffffffffffffffffffffffffffffff16815260200190815260200160002081905550826002819055508160088190555080600981905550505050620003b7565b600033905090565b8280546200021f9062000338565b90600052602060002090601f0160209004810192826200024357600085556200028f565b82601f106200025e57805160ff19168380011785556200028f565b828001600101855582156200028f579182015b828111156200028e57825182559160200191906001019062000271565b5b5090506200029e9190620002a2565b5090565b5b80821115620002bd576000816000905550600101620002a3565b5090565b600081519050620002d2816200039d565b92915050565b600080600060608486031215620002ee57600080fd5b6000620002fe86828701620002c1565b93505060206200031186828701620002c1565b92505060406200032486828701620002c1565b9150509250925092565b6000819050919050565b600060028204905060018216806200035157607f821691505b602082108114156200036857620003676200036e565b5b50919050565b7f4e487b7100000000000000000000000000000000000000000000000000000000600052602260045260246000fd5b620003a8816200032e565b8114620003b457600080fd5b50565b612ddb80620003c76000396000f3fe6080604052600436106101405760003560e01c8063715018a6116100b6578063b66a0e5d1161006f578063b66a0e5d1461047b578063cc4851de14610492578063dd62ed3e146104d1578063e36b0b371461050e578063e7c09ca914610525578063f2fde38b1461055157610140565b8063715018a6146103695780637ff9b596146103805780638da5cb5b146103ab57806395d89b41146103d6578063a457c2d714610401578063a9059cbb1461043e57610140565b8063326687b911610108578063326687b9146102405780633610724e1461026b578063395093511461029b578063518ab2a8146102d85780636a61e5fc1461030357806370a082311461032c57610140565b806306fdde0314610145578063095ea7b31461017057806318160ddd146101ad57806323b872dd146101d8578063313ce56714610215575b600080fd5b34801561015157600080fd5b5061015a61057a565b60405161016791906125bc565b60405180910390f35b34801561017c57600080fd5b50610197600480360381019061019291906121c3565b61060c565b6040516101a491906125a1565b60405180910390f35b3480156101b957600080fd5b506101c261062a565b6040516101cf91906126fe565b60405180910390f35b3480156101e457600080fd5b506101ff60048036038101906101fa9190612174565b610634565b60405161020c91906125a1565b60405180910390f35b34801561022157600080fd5b5061022a610735565b6040516102379190612750565b60405180910390f35b34801561024c57600080fd5b5061025561073e565b60405161026291906125a1565b60405180910390f35b610285600480360381019061028091906121ff565b610751565b60405161029291906125a1565b60405180910390f35b3480156102a757600080fd5b506102c260048036038101906102bd91906121c3565b610864565b6040516102cf91906125a1565b60405180910390f35b3480156102e457600080fd5b506102ed610910565b6040516102fa91906126fe565b60405180910390f35b34801561030f57600080fd5b5061032a600480360381019061032591906121ff565b610916565b005b34801561033857600080fd5b50610353600480360381019061034e919061210f565b6109d3565b60405161036091906126fe565b60405180910390f35b34801561037557600080fd5b5061037e610a1b565b005b34801561038c57600080fd5b50610395610b58565b6040516103a291906126fe565b60405180910390f35b3480156103b757600080fd5b506103c0610b5e565b6040516103cd91906124fd565b60405180910390f35b3480156103e257600080fd5b506103eb610b88565b6040516103f891906125bc565b60405180910390f35b34801561040d57600080fd5b50610428600480360381019061042391906121c3565b610c1a565b60405161043591906125a1565b60405180910390f35b34801561044a57600080fd5b50610465600480360381019061046091906121c3565b610d0e565b60405161047291906125a1565b60405180910390f35b34801561048757600080fd5b50610490610d2c565b005b34801561049e57600080fd5b506104b960048036038101906104b49190612228565b610df1565b6040516104c893929190612719565b60405180910390f35b3480156104dd57600080fd5b506104f860048036038101906104f39190612138565b610f8f565b60405161050591906126fe565b60405180910390f35b34801561051a57600080fd5b50610523611016565b005b34801561053157600080fd5b5061053a6110db565b604051610548929190612578565b60405180910390f35b34801561055d57600080fd5b506105786004803603810190610573919061210f565b6119fb565b005b60606003805461058990612951565b80601f01602080910402602001604051908101604052809291908181526020018280546105b590612951565b80156106025780601f106105d757610100808354040283529160200191610602565b820191906000526020600020905b8154815290600101906020018083116105e557829003601f168201915b5050505050905090565b6000610620610619611ba7565b8484611baf565b6001905092915050565b6000600254905090565b6000610641848484611d7a565b6000600160008673ffffffffffffffffffffffffffffffffffffffff1673ffffffffffffffffffffffffffffffffffffffff168152602001908152602001600020600061068c611ba7565b73ffffffffffffffffffffffffffffffffffffffff1673ffffffffffffffffffffffffffffffffffffffff1681526020019081526020016000205490508281101561070c576040517f08c379a00000000000000000000000000000000000000000000000000000000081526004016107039061265e565b60405180910390fd5b61072985610718611ba7565b85846107249190612895565b611baf565b60019150509392505050565b60006012905090565b600560149054906101000a900460ff1681565b6000600560149054906101000a900460ff1661076c57600080fd5b61078160085483611ff990919063ffffffff16565b341461078c57600080fd5b81600954101561079b57600080fd5b816000803373ffffffffffffffffffffffffffffffffffffffff1673ffffffffffffffffffffffffffffffffffffffff16815260200190815260200160002060008282546107e991906127b4565b92505081905550816006600082825461080291906127b4565b92505081905550816009600082825461081b9190612895565b925050819055507f5e5e995ce3133561afceaa51a9a154d5db228cd7525d34df5185582c18d3df093383604051610853929190612518565b60405180910390a160019050919050565b6000610906610871611ba7565b84846001600061087f611ba7565b73ffffffffffffffffffffffffffffffffffffffff1673ffffffffffffffffffffffffffffffffffffffff16815260200190815260200160002060008873ffffffffffffffffffffffffffffffffffffffff1673ffffffffffffffffffffffffffffffffffffffff1681526020019081526020016000205461090191906127b4565b611baf565b6001905092915050565b60065481565b61091e611ba7565b73ffffffffffffffffffffffffffffffffffffffff1661093c610b5e565b73ffffffffffffffffffffffffffffffffffffffff1614610992576040517f08c379a00000000000000000000000000000000000000000000000000000000081526004016109899061267e565b60405180910390fd5b806008819055507f84391573dc31ee16afb3c5a2d6d906918acde4227b720393ca2e6a3cbf893222816040516109c891906126fe565b60405180910390a150565b60008060008373ffffffffffffffffffffffffffffffffffffffff1673ffffffffffffffffffffffffffffffffffffffff168152602001908152602001600020549050919050565b610a23611ba7565b73ffffffffffffffffffffffffffffffffffffffff16610a41610b5e565b73ffffffffffffffffffffffffffffffffffffffff1614610a97576040517f08c379a0000000000000000000000000000000000000000000000000000000008152600401610a8e9061267e565b60405180910390fd5b600073ffffffffffffffffffffffffffffffffffffffff16600560009054906101000a900473ffffffffffffffffffffffffffffffffffffffff1673ffffffffffffffffffffffffffffffffffffffff167f8be0079c531659141344cd1fd0a4f28419497f9722a3daafe3b4186f6b6457e060405160405180910390a36000600560006101000a81548173ffffffffffffffffffffffffffffffffffffffff021916908373ffffffffffffffffffffffffffffffffffffffff160217905550565b60085481565b6000600560009054906101000a900473ffffffffffffffffffffffffffffffffffffffff16905090565b606060048054610b9790612951565b80601f0160208091040260200160405190810160405280929190818152602001828054610bc390612951565b8015610c105780601f10610be557610100808354040283529160200191610c10565b820191906000526020600020905b815481529060010190602001808311610bf357829003601f168201915b5050505050905090565b60008060016000610c29611ba7565b73ffffffffffffffffffffffffffffffffffffffff1673ffffffffffffffffffffffffffffffffffffffff16815260200190815260200160002060008573ffffffffffffffffffffffffffffffffffffffff1673ffffffffffffffffffffffffffffffffffffffff16815260200190815260200160002054905082811015610ce6576040517f08c379a0000000000000000000000000000000000000000000000000000000008152600401610cdd906126de565b60405180910390fd5b610d03610cf1611ba7565b858584610cfe9190612895565b611baf565b600191505092915050565b6000610d22610d1b611ba7565b8484611d7a565b6001905092915050565b610d34611ba7565b73ffffffffffffffffffffffffffffffffffffffff16610d52610b5e565b73ffffffffffffffffffffffffffffffffffffffff1614610da8576040517f08c379a0000000000000000000000000000000000000000000000000000000008152600401610d9f9061267e565b60405180910390fd5b6001600560146101000a81548160ff0219169083151502179055507f2970f486ad806233ea3b1e73f4ddd8c09c6051509aec326fb4ea2cad7dacce9c60405160405180910390a1565b600080600060016000803373ffffffffffffffffffffffffffffffffffffffff1673ffffffffffffffffffffffffffffffffffffffff168152602001908152602001600020541015610e4257600080fd5b60038410610e4f57600080fd5b60258510610e5c57600080fd5b60016000803373ffffffffffffffffffffffffffffffffffffffff1673ffffffffffffffffffffffffffffffffffffffff1681526020019081526020016000206000828254610eab9190612895565b92505081905550610ebc6025612062565b9250610ec86002612062565b9150600085148015610eda5750600083145b80610eef57508285148015610eee57508184145b5b15610f4f576103e89050806000803373ffffffffffffffffffffffffffffffffffffffff1673ffffffffffffffffffffffffffffffffffffffff1681526020019081526020016000206000828254610f4791906127b4565b925050819055505b7fc6ad5866a591a580fca3c0c2c1f2120be9857fabaf8306215e9eba5b59bff2ca3382604051610f80929190612518565b60405180910390a19250925092565b6000600160008473ffffffffffffffffffffffffffffffffffffffff1673ffffffffffffffffffffffffffffffffffffffff16815260200190815260200160002060008373ffffffffffffffffffffffffffffffffffffffff1673ffffffffffffffffffffffffffffffffffffffff16815260200190815260200160002054905092915050565b61101e611ba7565b73ffffffffffffffffffffffffffffffffffffffff1661103c610b5e565b73ffffffffffffffffffffffffffffffffffffffff1614611092576040517f08c379a00000000000000000000000000000000000000000000000000000000081526004016110899061267e565b60405180910390fd5b6000600560146101000a81548160ff0219169083151502179055507f8838583ad4691f61e626167788a96d8d37104b56c175347b02da48a7a3a9882860405160405180910390a1565b6110e36120c3565b600060016000803373ffffffffffffffffffffffffffffffffffffffff1673ffffffffffffffffffffffffffffffffffffffff16815260200190815260200160002054101561113157600080fd5b60016000803373ffffffffffffffffffffffffffffffffffffffff1673ffffffffffffffffffffffffffffffffffffffff16815260200190815260200160002060008282546111809190612895565b925050819055506000905060016111976005612062565b6111a191906127b4565b826000600381106111db577f4e487b7100000000000000000000000000000000000000000000000000000000600052603260045260246000fd5b60200201818152505060016111f06005612062565b6111fa91906127b4565b82600160038110611234577f4e487b7100000000000000000000000000000000000000000000000000000000600052603260045260246000fd5b60200201818152505060016112496005612062565b61125391906127b4565b8260026003811061128d577f4e487b7100000000000000000000000000000000000000000000000000000000600052603260045260246000fd5b6020020181815250506001826000600381106112d2577f4e487b7100000000000000000000000000000000000000000000000000000000600052603260045260246000fd5b6020020151148015611323575060018260016003811061131b577f4e487b7100000000000000000000000000000000000000000000000000000000600052603260045260246000fd5b602002015114155b156113315760029050611967565b60018260006003811061136d577f4e487b7100000000000000000000000000000000000000000000000000000000600052603260045260246000fd5b60200201511480156113bd57506001826001600381106113b6577f4e487b7100000000000000000000000000000000000000000000000000000000600052603260045260246000fd5b6020020151145b80156114085750600182600260038110611400577f4e487b7100000000000000000000000000000000000000000000000000000000600052603260045260246000fd5b602002015114155b156114165760059050611966565b600182600060038110611452577f4e487b7100000000000000000000000000000000000000000000000000000000600052603260045260246000fd5b60200201511480156114a2575060018260016003811061149b577f4e487b7100000000000000000000000000000000000000000000000000000000600052603260045260246000fd5b6020020151145b80156114ec57506001826002600381106114e5577f4e487b7100000000000000000000000000000000000000000000000000000000600052603260045260246000fd5b6020020151145b156114fa5760079050611965565b600282600060038110611536577f4e487b7100000000000000000000000000000000000000000000000000000000600052603260045260246000fd5b6020020151148015611586575060028260016003811061157f577f4e487b7100000000000000000000000000000000000000000000000000000000600052603260045260246000fd5b6020020151145b801561161957506002826002600381106115c9577f4e487b7100000000000000000000000000000000000000000000000000000000600052603260045260246000fd5b602002015114806116185750600382600260038110611611577f4e487b7100000000000000000000000000000000000000000000000000000000600052603260045260246000fd5b6020020151145b5b1561162757600a9050611964565b600482600060038110611663577f4e487b7100000000000000000000000000000000000000000000000000000000600052603260045260246000fd5b60200201511480156116b357506004826001600381106116ac577f4e487b7100000000000000000000000000000000000000000000000000000000600052603260045260246000fd5b6020020151145b801561174657506004826002600381106116f6577f4e487b7100000000000000000000000000000000000000000000000000000000600052603260045260246000fd5b60200201511480611745575060038260026003811061173e577f4e487b7100000000000000000000000000000000000000000000000000000000600052603260045260246000fd5b6020020151145b5b1561175457600e9050611963565b600582600060038110611790577f4e487b7100000000000000000000000000000000000000000000000000000000600052603260045260246000fd5b60200201511480156117e057506005826001600381106117d9577f4e487b7100000000000000000000000000000000000000000000000000000000600052603260045260246000fd5b6020020151145b80156118735750600582600260038110611823577f4e487b7100000000000000000000000000000000000000000000000000000000600052603260045260246000fd5b60200201511480611872575060038260026003811061186b577f4e487b7100000000000000000000000000000000000000000000000000000000600052603260045260246000fd5b6020020151145b5b156118815760149050611962565b6003826000600381106118bd577f4e487b7100000000000000000000000000000000000000000000000000000000600052603260045260246000fd5b602002015114801561190d5750600382600160038110611906577f4e487b7100000000000000000000000000000000000000000000000000000000600052603260045260246000fd5b6020020151145b80156119575750600382600260038110611950577f4e487b7100000000000000000000000000000000000000000000000000000000600052603260045260246000fd5b6020020151145b156119615760fa90505b5b5b5b5b5b5b806000803373ffffffffffffffffffffffffffffffffffffffff1673ffffffffffffffffffffffffffffffffffffffff16815260200190815260200160002060008282546119b591906127b4565b925050819055507f86913a807785d6220f0c697d5f32c1fda6b5e308bd15d23ca745b8e633abbe113382846040516119ef93929190612541565b60405180910390a19091565b611a03611ba7565b73ffffffffffffffffffffffffffffffffffffffff16611a21610b5e565b73ffffffffffffffffffffffffffffffffffffffff1614611a77576040517f08c379a0000000000000000000000000000000000000000000000000000000008152600401611a6e9061267e565b60405180910390fd5b600073ffffffffffffffffffffffffffffffffffffffff168173ffffffffffffffffffffffffffffffffffffffff161415611ae7576040517f08c379a0000000000000000000000000000000000000000000000000000000008152600401611ade906125fe565b60405180910390fd5b8073ffffffffffffffffffffffffffffffffffffffff16600560009054906101000a900473ffffffffffffffffffffffffffffffffffffffff1673ffffffffffffffffffffffffffffffffffffffff167f8be0079c531659141344cd1fd0a4f28419497f9722a3daafe3b4186f6b6457e060405160405180910390a380600560006101000a81548173ffffffffffffffffffffffffffffffffffffffff021916908373ffffffffffffffffffffffffffffffffffffffff16021790555050565b600033905090565b600073ffffffffffffffffffffffffffffffffffffffff168373ffffffffffffffffffffffffffffffffffffffff161415611c1f576040517f08c379a0000000000000000000000000000000000000000000000000000000008152600401611c16906126be565b60405180910390fd5b600073ffffffffffffffffffffffffffffffffffffffff168273ffffffffffffffffffffffffffffffffffffffff161415611c8f576040517f08c379a0000000000000000000000000000000000000000000000000000000008152600401611c869061261e565b60405180910390fd5b80600160008573ffffffffffffffffffffffffffffffffffffffff1673ffffffffffffffffffffffffffffffffffffffff16815260200190815260200160002060008473ffffffffffffffffffffffffffffffffffffffff1673ffffffffffffffffffffffffffffffffffffffff168152602001908152602001600020819055508173ffffffffffffffffffffffffffffffffffffffff168373ffffffffffffffffffffffffffffffffffffffff167f8c5be1e5ebec7d5bd14f71427d1e84f3dd0314c0f7b2291e5b200ac8c7c3b92583604051611d6d91906126fe565b60405180910390a3505050565b600073ffffffffffffffffffffffffffffffffffffffff168373ffffffffffffffffffffffffffffffffffffffff161415611dea576040517f08c379a0000000000000000000000000000000000000000000000000000000008152600401611de19061269e565b60405180910390fd5b600073ffffffffffffffffffffffffffffffffffffffff168273ffffffffffffffffffffffffffffffffffffffff161415611e5a576040517f08c379a0000000000000000000000000000000000000000000000000000000008152600401611e51906125de565b60405180910390fd5b611e658383836120be565b60008060008573ffffffffffffffffffffffffffffffffffffffff1673ffffffffffffffffffffffffffffffffffffffff16815260200190815260200160002054905081811015611eeb576040517f08c379a0000000000000000000000000000000000000000000000000000000008152600401611ee29061263e565b60405180910390fd5b8181611ef79190612895565b6000808673ffffffffffffffffffffffffffffffffffffffff1673ffffffffffffffffffffffffffffffffffffffff16815260200190815260200160002081905550816000808573ffffffffffffffffffffffffffffffffffffffff1673ffffffffffffffffffffffffffffffffffffffff1681526020019081526020016000206000828254611f8791906127b4565b925050819055508273ffffffffffffffffffffffffffffffffffffffff168473ffffffffffffffffffffffffffffffffffffffff167fddf252ad1be2c89b69c2b068fc378daa952ba7f163c4a11628f55a4df523b3ef84604051611feb91906126fe565b60405180910390a350505050565b60008083141561200c576000905061205c565b8183612018919061283b565b9050818382612027919061280a565b1461205b577f4e487b7100000000000000000000000000000000000000000000000000000000600052600160045260246000fd5b5b92915050565b60006007600081548092919061207790612983565b9190505550814233600754604051602001612094939291906124c0565b6040516020818303038152906040528051906020012060001c6120b791906129fa565b9050919050565b505050565b6040518060600160405280600390602082028036833780820191505090505090565b6000813590506120f481612d77565b92915050565b60008135905061210981612d8e565b92915050565b60006020828403121561212157600080fd5b600061212f848285016120e5565b91505092915050565b6000806040838503121561214b57600080fd5b6000612159858286016120e5565b925050602061216a858286016120e5565b9150509250929050565b60008060006060848603121561218957600080fd5b6000612197868287016120e5565b93505060206121a8868287016120e5565b92505060406121b9868287016120fa565b9150509250925092565b600080604083850312156121d657600080fd5b60006121e4858286016120e5565b92505060206121f5858286016120fa565b9150509250929050565b60006020828403121561221157600080fd5b600061221f848285016120fa565b91505092915050565b6000806040838503121561223b57600080fd5b6000612249858286016120fa565b925050602061225a858286016120fa565b9150509250929050565b6000612270838361247c565b60208301905092915050565b612285816128c9565b82525050565b61229c612297826128c9565b6129cc565b82525050565b6122ab81612775565b6122b58184612798565b92506122c08261276b565b8060005b838110156122f15781516122d88782612264565b96506122e38361278b565b9250506001810190506122c4565b505050505050565b612302816128db565b82525050565b600061231382612780565b61231d81856127a3565b935061232d81856020860161291e565b61233681612ab8565b840191505092915050565b600061234e6023836127a3565b915061235982612ad6565b604082019050919050565b60006123716026836127a3565b915061237c82612b25565b604082019050919050565b60006123946022836127a3565b915061239f82612b74565b604082019050919050565b60006123b76026836127a3565b91506123c282612bc3565b604082019050919050565b60006123da6028836127a3565b91506123e582612c12565b604082019050919050565b60006123fd6020836127a3565b915061240882612c61565b602082019050919050565b60006124206025836127a3565b915061242b82612c8a565b604082019050919050565b60006124436024836127a3565b915061244e82612cd9565b604082019050919050565b60006124666025836127a3565b915061247182612d28565b604082019050919050565b61248581612907565b82525050565b61249481612907565b82525050565b6124ab6124a682612907565b6129f0565b82525050565b6124ba81612911565b82525050565b60006124cc828661249a565b6020820191506124dc828561228b565b6014820191506124ec828461249a565b602082019150819050949350505050565b6000602082019050612512600083018461227c565b92915050565b600060408201905061252d600083018561227c565b61253a602083018461248b565b9392505050565b600060a082019050612556600083018661227c565b612563602083018561248b565b61257060408301846122a2565b949350505050565b600060808201905061258d60008301856122a2565b61259a606083018461248b565b9392505050565b60006020820190506125b660008301846122f9565b92915050565b600060208201905081810360008301526125d68184612308565b905092915050565b600060208201905081810360008301526125f781612341565b9050919050565b6000602082019050818103600083015261261781612364565b9050919050565b6000602082019050818103600083015261263781612387565b9050919050565b60006020820190508181036000830152612657816123aa565b9050919050565b60006020820190508181036000830152612677816123cd565b9050919050565b60006020820190508181036000830152612697816123f0565b9050919050565b600060208201905081810360008301526126b781612413565b9050919050565b600060208201905081810360008301526126d781612436565b9050919050565b600060208201905081810360008301526126f781612459565b9050919050565b6000602082019050612713600083018461248b565b92915050565b600060608201905061272e600083018661248b565b61273b602083018561248b565b612748604083018461248b565b949350505050565b600060208201905061276560008301846124b1565b92915050565b6000819050919050565b600060039050919050565b600081519050919050565b6000602082019050919050565b600081905092915050565b600082825260208201905092915050565b60006127bf82612907565b91506127ca83612907565b9250827fffffffffffffffffffffffffffffffffffffffffffffffffffffffffffffffff038211156127ff576127fe612a2b565b5b828201905092915050565b600061281582612907565b915061282083612907565b9250826128305761282f612a5a565b5b828204905092915050565b600061284682612907565b915061285183612907565b9250817fffffffffffffffffffffffffffffffffffffffffffffffffffffffffffffffff048311821515161561288a57612889612a2b565b5b828202905092915050565b60006128a082612907565b91506128ab83612907565b9250828210156128be576128bd612a2b565b5b828203905092915050565b60006128d4826128e7565b9050919050565b60008115159050919050565b600073ffffffffffffffffffffffffffffffffffffffff82169050919050565b6000819050919050565b600060ff82169050919050565b60005b8381101561293c578082015181840152602081019050612921565b8381111561294b576000848401525b50505050565b6000600282049050600182168061296957607f821691505b6020821081141561297d5761297c612a89565b5b50919050565b600061298e82612907565b91507fffffffffffffffffffffffffffffffffffffffffffffffffffffffffffffffff8214156129c1576129c0612a2b565b5b600182019050919050565b60006129d7826129de565b9050919050565b60006129e982612ac9565b9050919050565b6000819050919050565b6000612a0582612907565b9150612a1083612907565b925082612a2057612a1f612a5a565b5b828206905092915050565b7f4e487b7100000000000000000000000000000000000000000000000000000000600052601160045260246000fd5b7f4e487b7100000000000000000000000000000000000000000000000000000000600052601260045260246000fd5b7f4e487b7100000000000000000000000000000000000000000000000000000000600052602260045260246000fd5b6000601f19601f8301169050919050565b60008160601b9050919050565b7f45524332303a207472616e7366657220746f20746865207a65726f206164647260008201527f6573730000000000000000000000000000000000000000000000000000000000602082015250565b7f4f776e61626c653a206e6577206f776e657220697320746865207a65726f206160008201527f6464726573730000000000000000000000000000000000000000000000000000602082015250565b7f45524332303a20617070726f766520746f20746865207a65726f20616464726560008201527f7373000000000000000000000000000000000000000000000000000000000000602082015250565b7f45524332303a207472616e7366657220616d6f756e742065786365656473206260008201527f616c616e63650000000000000000000000000000000000000000000000000000602082015250565b7f45524332303a207472616e7366657220616d6f756e742065786365656473206160008201527f6c6c6f77616e6365000000000000000000000000000000000000000000000000602082015250565b7f4f776e61626c653a2063616c6c6572206973206e6f7420746865206f776e6572600082015250565b7f45524332303a207472616e736665722066726f6d20746865207a65726f20616460008201527f6472657373000000000000000000000000000000000000000000000000000000602082015250565b7f45524332303a20617070726f76652066726f6d20746865207a65726f2061646460008201527f7265737300000000000000000000000000000000000000000000000000000000602082015250565b7f45524332303a2064656372656173656420616c6c6f77616e63652062656c6f7760008201527f207a65726f000000000000000000000000000000000000000000000000000000602082015250565b612d80816128c9565b8114612d8b57600080fd5b50565b612d9781612907565b8114612da257600080fd5b5056fea264697066735822122031562dea2231e84e20655dff05c2b019062cf36ba729f6ae7f874a745db21f1064736f6c63430008040033",
  "immutableReferences": {},
  "source": "pragma solidity ^0.8.4;\r\n\r\nimport \"./utils/Safemath.sol\";\r\nimport \"./extensions/Ownable.sol\";\r\nimport \"./extensions/ERC20.sol\";\r\nimport \"./extensions/Saleable.sol\";\r\n\r\ncontract YunToken is ERC20, Ownable,Saleable {\r\n    using SafeMath for uint256;\r\n\r\n    //Casino\r\n    uint256 private randNonceCasino = 0;\r\n\r\n    //Selling\r\n    uint256 public  tokenPrice;\r\n    uint256 private tokenAvailableForSale;\r\n\r\n    //Events\r\n    //Casino\r\n    //Roulette\r\n    event Roulette(address _player, uint256 _reward);\r\n    //SlotMachine\r\n    event SlotMachine(address _player, uint256 _reward, uint[3] _wheelsValues);\r\n\r\n    //Selling\r\n\r\n    event SetTokenPrice(uint256 _tokenPrice);\r\n\r\n\r\n\r\n    constructor(uint256 _initialSupply, uint256 _tokenPrice, uint256 _tokensAvailable) ERC20('Yunis Token', 'YUN') {\r\n        _balances[msg.sender] = _initialSupply;\r\n        _totalSupply = _initialSupply;\r\n        tokenPrice = _tokenPrice;\r\n        tokenAvailableForSale = _tokensAvailable;\r\n    }\r\n\r\n    //Selling Tokens\r\n    //__________________________________________________________________________________________________________________\r\n    function buyTokens(uint256 _numberOfTokens) public payable returns (bool){\r\n        //Check Tokens re on the sale\r\n        require(onSale);\r\n\r\n        //Require that value is equal to tokens\r\n        require(msg.value == _numberOfTokens.mul(tokenPrice));\r\n\r\n        //Require that the available tokens is enough\r\n        require(tokenAvailableForSale >= _numberOfTokens);\r\n\r\n        //Send tokens\r\n        _balances[msg.sender] += _numberOfTokens;\r\n\r\n        //Require that a transfer is successful\r\n        tokensSold += _numberOfTokens;\r\n\r\n        //Reduce available tokens for selling\r\n        tokenAvailableForSale -= _numberOfTokens;\r\n\r\n        //Trigger Sell event\r\n        emit Sell(msg.sender, _numberOfTokens);\r\n        return true;\r\n    }\r\n\r\n    function setTokenPrice(uint256 _tokenPrice) public onlyOwner {\r\n\r\n        //Set token Price\r\n        tokenPrice = _tokenPrice;\r\n        emit SetTokenPrice(_tokenPrice);\r\n\r\n    }\r\n\r\n\r\n    //Casino\r\n    //__________________________________________________________________________________________________________________\r\n    //Random Num\r\n    function rand(uint _modulus) private returns (uint)  {\r\n        randNonceCasino++;\r\n        return uint(keccak256(abi.encodePacked(block.timestamp, msg.sender, randNonceCasino))) % _modulus;\r\n\r\n    }\r\n\r\n    //Roulette casino\r\n    function roulette(uint _value, uint _color) public returns (uint _value_casino, uint _color_casino, uint256 reward){\r\n        //Exception if account doesn't have enough\r\n        require(_balances[msg.sender] >= 1);\r\n\r\n        //Correctly input arguments\r\n        require(_color < 3);\r\n        require(_value < 37);\r\n\r\n        //Client pay token for spinning\r\n        _balances[msg.sender] -= 1;\r\n\r\n        _value_casino = rand(37);\r\n        _color_casino = rand(2);\r\n\r\n        //  If Zero                                 //If other color or number\r\n        if (((_value == 0) && (_value_casino == 0)) || ((_value == _value_casino) && (_color == _color_casino))) {\r\n            // If ZERO\r\n            //Pay reward\r\n            reward = 1000;\r\n            _balances[msg.sender] += reward;\r\n        }\r\n\r\n        emit Roulette(msg.sender, reward);\r\n        return (_value_casino, _color_casino, reward);\r\n    }\r\n\r\n\r\n    //Slot-machine\r\n    function slotMachine() public returns (uint[3] memory wheelsValues, uint reward){\r\n        //Exception if account doesn't have enough\r\n        require(_balances[msg.sender] >= 1);\r\n\r\n        //Client pay token for spinning\r\n        _balances[msg.sender] -= 1;\r\n\r\n        reward = 0;\r\n        wheelsValues[0] = rand(5) + 1;\r\n        wheelsValues[1] = rand(5) + 1;\r\n        wheelsValues[2] = rand(5) + 1;\r\n\r\n\r\n        if ((wheelsValues[0] == 1) && (wheelsValues[1] != 1)) {\r\n            reward = 2;\r\n        } else if ((wheelsValues[0] == 1) && (wheelsValues[1] == 1) && (wheelsValues[2] != 1)) {\r\n            reward = 5;\r\n        } else if ((wheelsValues[0] == 1) && (wheelsValues[1] == 1) && (wheelsValues[2] == 1)) {\r\n            reward = 7;\r\n        } else if ((wheelsValues[0] == 2) && (wheelsValues[1] == 2) && ((wheelsValues[2] == 2) || (wheelsValues[2] == 3))) {\r\n            reward = 10;\r\n        } else if ((wheelsValues[0] == 4) && (wheelsValues[1] == 4) && ((wheelsValues[2] == 4) || (wheelsValues[2] == 3))) {\r\n            reward = 14;\r\n        } else if ((wheelsValues[0] == 5) && (wheelsValues[1] == 5) && ((wheelsValues[2] == 5) || (wheelsValues[2] == 3))) {\r\n            reward = 20;\r\n        } else if ((wheelsValues[0] == 3) && (wheelsValues[1] == 3) && (wheelsValues[2] == 3)) {\r\n            //jackPot\r\n            reward = 250;\r\n        }\r\n\r\n        //Pay reward\r\n        _balances[msg.sender] += reward;\r\n\r\n\r\n        emit SlotMachine(msg.sender, reward, wheelsValues);\r\n        return (wheelsValues, reward);\r\n    }\r\n}\r\n",
  "sourcePath": "C:/Users/Yunis/WebstormProjects/untitled/contracts/YunToken.sol",
  "compiler": {
    "name": "solc",
    "version": "0.8.4+commit.c7e474f2.Emscripten.clang"
  },
  "schemaVersion": "3.4.0",
  "updatedAt": "2021-05-03T11:10:25.174Z",
  "networkType": "ethereum",
  "devdoc": {
    "kind": "dev",
    "methods": {
      "allowance(address,address)": {
        "details": "See {IERC20-allowance}."
      },
      "approve(address,uint256)": {
        "details": "See {IERC20-approve}. Requirements: - `spender` cannot be the zero address."
      },
      "balanceOf(address)": {
        "details": "See {IERC20-balanceOf}."
      },
      "decimals()": {
        "details": "Returns the number of decimals used to get its user representation. For example, if `decimals` equals `2`, a balance of `505` tokens should be displayed to a user as `5,05` (`505 / 10 ** 2`). Tokens usually opt for a value of 18, imitating the relationship between Ether and Wei. This is the value {ERC20} uses, unless this function is overridden; NOTE: This information is only used for _display_ purposes: it in no way affects any of the arithmetic of the contract, including {IERC20-balanceOf} and {IERC20-transfer}."
      },
      "decreaseAllowance(address,uint256)": {
        "details": "Atomically decreases the allowance granted to `spender` by the caller. This is an alternative to {approve} that can be used as a mitigation for problems described in {IERC20-approve}. Emits an {Approval} event indicating the updated allowance. Requirements: - `spender` cannot be the zero address. - `spender` must have allowance for the caller of at least `subtractedValue`."
      },
      "increaseAllowance(address,uint256)": {
        "details": "Atomically increases the allowance granted to `spender` by the caller. This is an alternative to {approve} that can be used as a mitigation for problems described in {IERC20-approve}. Emits an {Approval} event indicating the updated allowance. Requirements: - `spender` cannot be the zero address."
      },
      "name()": {
        "details": "Returns the name of the token."
      },
      "owner()": {
        "details": "Returns the address of the current owner."
      },
      "renounceOwnership()": {
        "details": "Leaves the contract without owner. It will not be possible to call `onlyOwner` functions anymore. Can only be called by the current owner. NOTE: Renouncing ownership will leave the contract without an owner, thereby removing any functionality that is only available to the owner."
      },
      "symbol()": {
        "details": "Returns the symbol of the token, usually a shorter version of the name."
      },
      "totalSupply()": {
        "details": "See {IERC20-totalSupply}."
      },
      "transfer(address,uint256)": {
        "details": "See {IERC20-transfer}. Requirements: - `recipient` cannot be the zero address. - the caller must have a balance of at least `amount`."
      },
      "transferFrom(address,address,uint256)": {
        "details": "See {IERC20-transferFrom}. Emits an {Approval} event indicating the updated allowance. This is not required by the EIP. See the note at the beginning of {ERC20}. Requirements: - `sender` and `recipient` cannot be the zero address. - `sender` must have a balance of at least `amount`. - the caller must have allowance for ``sender``'s tokens of at least `amount`."
      },
      "transferOwnership(address)": {
        "details": "Transfers ownership of the contract to a new account (`newOwner`). Can only be called by the current owner."
      }
    },
    "version": 1
  },
  "userdoc": {
    "kind": "user",
    "methods": {},
    "version": 1
  }
}