{
  "contractName": "YunTokenSale",
  "abi": [
    {
      "inputs": [
        {
          "internalType": "contract YunToken",
          "name": "_tokenContract",
          "type": "address"
        },
        {
          "internalType": "uint256",
          "name": "_tokenPrice",
          "type": "uint256"
        }
      ],
      "stateMutability": "nonpayable",
      "type": "constructor"
    },
    {
      "anonymous": false,
      "inputs": [
        {
          "indexed": false,
          "internalType": "uint256",
          "name": "_value",
          "type": "uint256"
        }
      ],
      "name": "Info",
      "type": "event"
    },
    {
      "anonymous": false,
      "inputs": [
        {
          "indexed": false,
          "internalType": "address",
          "name": "_buyer",
          "type": "address"
        },
        {
          "indexed": false,
          "internalType": "uint256",
          "name": "_amount",
          "type": "uint256"
        }
      ],
      "name": "Sell",
      "type": "event"
    },
    {
      "inputs": [],
      "name": "tokenContract",
      "outputs": [
        {
          "internalType": "contract YunToken",
          "name": "",
          "type": "address"
        }
      ],
      "stateMutability": "view",
      "type": "function",
      "constant": true
    },
    {
      "inputs": [],
      "name": "tokenPrice",
      "outputs": [
        {
          "internalType": "uint256",
          "name": "",
          "type": "uint256"
        }
      ],
      "stateMutability": "view",
      "type": "function",
      "constant": true
    },
    {
      "inputs": [],
      "name": "tokensSold",
      "outputs": [
        {
          "internalType": "uint256",
          "name": "",
          "type": "uint256"
        }
      ],
      "stateMutability": "view",
      "type": "function",
      "constant": true
    },
    {
      "inputs": [
        {
          "internalType": "uint256",
          "name": "_numberOfTokens",
          "type": "uint256"
        }
      ],
      "name": "buyTokens",
      "outputs": [],
      "stateMutability": "payable",
      "type": "function",
      "payable": true
    },
    {
      "inputs": [],
      "name": "endSale",
      "outputs": [],
      "stateMutability": "payable",
      "type": "function",
      "payable": true
    }
  ],
  "bytecode": "0x60806040523480156200001157600080fd5b5060405162000d7b38038062000d7b8339818101604052810190620000379190620002be565b336000806101000a81548173ffffffffffffffffffffffffffffffffffffffff021916908373ffffffffffffffffffffffffffffffffffffffff16021790555081600160006101000a81548173ffffffffffffffffffffffffffffffffffffffff021916908373ffffffffffffffffffffffffffffffffffffffff16021790555080600281905550600160009054906101000a900473ffffffffffffffffffffffffffffffffffffffff1673ffffffffffffffffffffffffffffffffffffffff1663a9059cbb60008054906101000a900473ffffffffffffffffffffffffffffffffffffffff16600160009054906101000a900473ffffffffffffffffffffffffffffffffffffffff1673ffffffffffffffffffffffffffffffffffffffff166370a08231306040518263ffffffff1660e01b81526004016200017b91906200034d565b60206040518083038186803b1580156200019457600080fd5b505afa158015620001a9573d6000803e3d6000fd5b505050506040513d601f19601f82011682018060405250810190620001cf9190620002ff565b6040518363ffffffff1660e01b8152600401620001ee9291906200036a565b602060405180830381600087803b1580156200020957600080fd5b505af11580156200021e573d6000803e3d6000fd5b505050506040513d601f19601f8201168201806040525081019062000244919062000292565b50505062000443565b6000815190506200025e81620003f5565b92915050565b60008151905062000275816200040f565b92915050565b6000815190506200028c8162000429565b92915050565b600060208284031215620002a557600080fd5b6000620002b5848285016200024d565b91505092915050565b60008060408385031215620002d257600080fd5b6000620002e28582860162000264565b9250506020620002f5858286016200027b565b9150509250929050565b6000602082840312156200031257600080fd5b600062000322848285016200027b565b91505092915050565b620003368162000397565b82525050565b6200034781620003eb565b82525050565b60006020820190506200036460008301846200032b565b92915050565b60006040820190506200038160008301856200032b565b6200039060208301846200033c565b9392505050565b6000620003a482620003cb565b9050919050565b60008115159050919050565b6000620003c48262000397565b9050919050565b600073ffffffffffffffffffffffffffffffffffffffff82169050919050565b6000819050919050565b6200040081620003ab565b81146200040c57600080fd5b50565b6200041a81620003b7565b81146200042657600080fd5b50565b6200043481620003eb565b81146200044057600080fd5b50565b61092880620004536000396000f3fe60806040526004361061004a5760003560e01c80633610724e1461004f578063380d831b1461006b578063518ab2a81461007557806355a373d6146100a05780637ff9b596146100cb575b600080fd5b61006960048036038101906100649190610620565b6100f6565b005b6100736102da565b005b34801561008157600080fd5b5061008a61051d565b60405161009791906106fe565b60405180910390f35b3480156100ac57600080fd5b506100b5610523565b6040516100c291906106e3565b60405180910390f35b3480156100d757600080fd5b506100e0610549565b6040516100ed91906106fe565b60405180910390f35b61010b6002548261054f90919063ffffffff16565b341461011657600080fd5b80600160009054906101000a900473ffffffffffffffffffffffffffffffffffffffff1673ffffffffffffffffffffffffffffffffffffffff166370a08231306040518263ffffffff1660e01b8152600401610172919061069f565b60206040518083038186803b15801561018a57600080fd5b505afa15801561019e573d6000803e3d6000fd5b505050506040513d601f19601f820116820180604052508101906101c29190610649565b10156101cd57600080fd5b600160009054906101000a900473ffffffffffffffffffffffffffffffffffffffff1673ffffffffffffffffffffffffffffffffffffffff1663a9059cbb33836040518363ffffffff1660e01b815260040161022a9291906106ba565b602060405180830381600087803b15801561024457600080fd5b505af1158015610258573d6000803e3d6000fd5b505050506040513d601f19601f8201168201806040525081019061027c91906105f7565b61028557600080fd5b80600360008282546102979190610719565b925050819055507f5e5e995ce3133561afceaa51a9a154d5db228cd7525d34df5185582c18d3df0933826040516102cf9291906106ba565b60405180910390a150565b60008054906101000a900473ffffffffffffffffffffffffffffffffffffffff1673ffffffffffffffffffffffffffffffffffffffff163373ffffffffffffffffffffffffffffffffffffffff161461033257600080fd5b600160009054906101000a900473ffffffffffffffffffffffffffffffffffffffff1673ffffffffffffffffffffffffffffffffffffffff1663a9059cbb60008054906101000a900473ffffffffffffffffffffffffffffffffffffffff16600160009054906101000a900473ffffffffffffffffffffffffffffffffffffffff1673ffffffffffffffffffffffffffffffffffffffff166370a08231306040518263ffffffff1660e01b81526004016103ec919061069f565b60206040518083038186803b15801561040457600080fd5b505afa158015610418573d6000803e3d6000fd5b505050506040513d601f19601f8201168201806040525081019061043c9190610649565b6040518363ffffffff1660e01b81526004016104599291906106ba565b602060405180830381600087803b15801561047357600080fd5b505af1158015610487573d6000803e3d6000fd5b505050506040513d601f19601f820116820180604052508101906104ab91906105f7565b6104b457600080fd5b60008054906101000a900473ffffffffffffffffffffffffffffffffffffffff1673ffffffffffffffffffffffffffffffffffffffff166108fc479081150290604051600060405180830381858888f1935050505015801561051a573d6000803e3d6000fd5b50565b60035481565b600160009054906101000a900473ffffffffffffffffffffffffffffffffffffffff1681565b60025481565b60008083141561056257600090506105b2565b818361056e91906107a0565b905081838261057d919061076f565b146105b1577f4e487b7100000000000000000000000000000000000000000000000000000000600052600160045260246000fd5b5b92915050565b6000815190506105c7816108c4565b92915050565b6000813590506105dc816108db565b92915050565b6000815190506105f1816108db565b92915050565b60006020828403121561060957600080fd5b6000610617848285016105b8565b91505092915050565b60006020828403121561063257600080fd5b6000610640848285016105cd565b91505092915050565b60006020828403121561065b57600080fd5b6000610669848285016105e2565b91505092915050565b61067b816107fa565b82525050565b61068a81610842565b82525050565b61069981610838565b82525050565b60006020820190506106b46000830184610672565b92915050565b60006040820190506106cf6000830185610672565b6106dc6020830184610690565b9392505050565b60006020820190506106f86000830184610681565b92915050565b60006020820190506107136000830184610690565b92915050565b600061072482610838565b915061072f83610838565b9250827fffffffffffffffffffffffffffffffffffffffffffffffffffffffffffffffff0382111561076457610763610866565b5b828201905092915050565b600061077a82610838565b915061078583610838565b92508261079557610794610895565b5b828204905092915050565b60006107ab82610838565b91506107b683610838565b9250817fffffffffffffffffffffffffffffffffffffffffffffffffffffffffffffffff04831182151516156107ef576107ee610866565b5b828202905092915050565b600061080582610818565b9050919050565b60008115159050919050565b600073ffffffffffffffffffffffffffffffffffffffff82169050919050565b6000819050919050565b600061084d82610854565b9050919050565b600061085f82610818565b9050919050565b7f4e487b7100000000000000000000000000000000000000000000000000000000600052601160045260246000fd5b7f4e487b7100000000000000000000000000000000000000000000000000000000600052601260045260246000fd5b6108cd8161080c565b81146108d857600080fd5b50565b6108e481610838565b81146108ef57600080fd5b5056fea2646970667358221220aaa94b470702ad3e1532864c5f0d762957c5e5023b5f1f4430eaa5126b246e9d64736f6c63430008040033",
  "immutableReferences": {},
  "source": "pragma solidity ^0.8.4;\r\n\r\nimport \"./YunToken.sol\";\r\nimport \"./Safemath.sol\";\r\n\r\ncontract YunTokenSale {\r\n    using SafeMath for uint256;\r\n\r\n    address admin;\r\n    YunToken public tokenContract;\r\n    uint256 public  tokenPrice;\r\n    uint256 public tokensSold;\r\n\r\n    constructor(YunToken _tokenContract, uint256 _tokenPrice) {\r\n        //Set admin\r\n        admin = msg.sender;\r\n        tokenContract = _tokenContract;\r\n        tokenPrice = _tokenPrice;\r\n        tokenContract.transfer(admin, tokenContract.balanceOf(address(this)));\r\n    }\r\n\r\n    event Sell(address _buyer, uint256 _amount);\r\n    event Info(uint256 _value);\r\n\r\n\r\n    function buyTokens(uint256 _numberOfTokens) public payable {\r\n        //Require that value is equal to tokens\r\n        require(msg.value == _numberOfTokens.mul(tokenPrice));\r\n\r\n        //Require that the contract has enough tokens\r\n        require(tokenContract.balanceOf(address(this)) >= _numberOfTokens);\r\n\r\n        //Send tokens\r\n        require(tokenContract.transfer(msg.sender, _numberOfTokens));\r\n\r\n        //Require that a transfer is successful\r\n        tokensSold += _numberOfTokens;\r\n\r\n        //Keep track of tokensSold\r\n\r\n        //Trigger Sell event\r\n        emit Sell(msg.sender, _numberOfTokens);\r\n\r\n    }\r\n\r\n    function endSale() public payable {\r\n        //Require admin\r\n        require(msg.sender == admin);\r\n\r\n        //Transfer remaining yun tokens to admin\r\n        require(tokenContract.transfer(admin, tokenContract.balanceOf(address(this))));\r\n\r\n        payable(admin).transfer(address(this).balance);\r\n\r\n    }\r\n}\r\n",
  "sourcePath": "C:/Users/Yunis/WebstormProjects/untitled/contracts/YunTokenSale.sol",
  "compiler": {
    "name": "solc",
    "version": "0.8.4+commit.c7e474f2.Emscripten.clang"
  },
  "schemaVersion": "3.3.4",
  "updatedAt": "2021-04-25T17:37:34.561Z",
  "networkType": "ethereum",
  "devdoc": {
    "kind": "dev",
    "methods": {},
    "version": 1
  },
  "userdoc": {
    "kind": "user",
    "methods": {},
    "version": 1
  }
}