{
  "contractName": "YunToken",
  "abi": [
    {
      "inputs": [
        {
          "internalType": "uint256",
          "name": "_initialSupply",
          "type": "uint256"
        },
        {
          "internalType": "uint256",
          "name": "_tokenPrice",
          "type": "uint256"
        },
        {
          "internalType": "uint256",
          "name": "_tokensAvailable",
          "type": "uint256"
        }
      ],
      "stateMutability": "nonpayable",
      "type": "constructor"
    },
    {
      "anonymous": false,
      "inputs": [
        {
          "indexed": true,
          "internalType": "address",
          "name": "_owner",
          "type": "address"
        },
        {
          "indexed": true,
          "internalType": "address",
          "name": "_spender",
          "type": "address"
        },
        {
          "indexed": false,
          "internalType": "uint256",
          "name": "_value",
          "type": "uint256"
        }
      ],
      "name": "Approval",
      "type": "event"
    },
    {
      "anonymous": false,
      "inputs": [
        {
          "indexed": false,
          "internalType": "address",
          "name": "_player",
          "type": "address"
        },
        {
          "indexed": false,
          "internalType": "uint256",
          "name": "_reward",
          "type": "uint256"
        }
      ],
      "name": "Roulette",
      "type": "event"
    },
    {
      "anonymous": false,
      "inputs": [
        {
          "indexed": false,
          "internalType": "address",
          "name": "_buyer",
          "type": "address"
        },
        {
          "indexed": false,
          "internalType": "uint256",
          "name": "_amount",
          "type": "uint256"
        }
      ],
      "name": "Sell",
      "type": "event"
    },
    {
      "anonymous": false,
      "inputs": [
        {
          "indexed": false,
          "internalType": "uint256",
          "name": "_tokenPrice",
          "type": "uint256"
        }
      ],
      "name": "SetTokenPrice",
      "type": "event"
    },
    {
      "anonymous": false,
      "inputs": [
        {
          "indexed": false,
          "internalType": "address",
          "name": "_player",
          "type": "address"
        },
        {
          "indexed": false,
          "internalType": "uint256",
          "name": "_reward",
          "type": "uint256"
        },
        {
          "indexed": false,
          "internalType": "uint256[3]",
          "name": "_wheelsValues",
          "type": "uint256[3]"
        }
      ],
      "name": "SlotMachine",
      "type": "event"
    },
    {
      "anonymous": false,
      "inputs": [],
      "name": "StartSelling",
      "type": "event"
    },
    {
      "anonymous": false,
      "inputs": [],
      "name": "StopSelling",
      "type": "event"
    },
    {
      "anonymous": false,
      "inputs": [
        {
          "indexed": true,
          "internalType": "address",
          "name": "_from",
          "type": "address"
        },
        {
          "indexed": true,
          "internalType": "address",
          "name": "_to",
          "type": "address"
        },
        {
          "indexed": false,
          "internalType": "uint256",
          "name": "_value",
          "type": "uint256"
        }
      ],
      "name": "Transfer",
      "type": "event"
    },
    {
      "inputs": [
        {
          "internalType": "address",
          "name": "",
          "type": "address"
        },
        {
          "internalType": "address",
          "name": "",
          "type": "address"
        }
      ],
      "name": "allowance",
      "outputs": [
        {
          "internalType": "uint256",
          "name": "",
          "type": "uint256"
        }
      ],
      "stateMutability": "view",
      "type": "function",
      "constant": true
    },
    {
      "inputs": [
        {
          "internalType": "address",
          "name": "",
          "type": "address"
        }
      ],
      "name": "balanceOf",
      "outputs": [
        {
          "internalType": "uint256",
          "name": "",
          "type": "uint256"
        }
      ],
      "stateMutability": "view",
      "type": "function",
      "constant": true
    },
    {
      "inputs": [],
      "name": "name",
      "outputs": [
        {
          "internalType": "string",
          "name": "",
          "type": "string"
        }
      ],
      "stateMutability": "view",
      "type": "function",
      "constant": true
    },
    {
      "inputs": [],
      "name": "onSale",
      "outputs": [
        {
          "internalType": "bool",
          "name": "",
          "type": "bool"
        }
      ],
      "stateMutability": "view",
      "type": "function",
      "constant": true
    },
    {
      "inputs": [],
      "name": "standard",
      "outputs": [
        {
          "internalType": "string",
          "name": "",
          "type": "string"
        }
      ],
      "stateMutability": "view",
      "type": "function",
      "constant": true
    },
    {
      "inputs": [],
      "name": "symbol",
      "outputs": [
        {
          "internalType": "string",
          "name": "",
          "type": "string"
        }
      ],
      "stateMutability": "view",
      "type": "function",
      "constant": true
    },
    {
      "inputs": [],
      "name": "tokenPrice",
      "outputs": [
        {
          "internalType": "uint256",
          "name": "",
          "type": "uint256"
        }
      ],
      "stateMutability": "view",
      "type": "function",
      "constant": true
    },
    {
      "inputs": [],
      "name": "tokensSold",
      "outputs": [
        {
          "internalType": "uint256",
          "name": "",
          "type": "uint256"
        }
      ],
      "stateMutability": "view",
      "type": "function",
      "constant": true
    },
    {
      "inputs": [],
      "name": "totalSupply",
      "outputs": [
        {
          "internalType": "uint256",
          "name": "",
          "type": "uint256"
        }
      ],
      "stateMutability": "view",
      "type": "function",
      "constant": true
    },
    {
      "inputs": [
        {
          "internalType": "address",
          "name": "_to",
          "type": "address"
        },
        {
          "internalType": "uint256",
          "name": "_value",
          "type": "uint256"
        }
      ],
      "name": "transfer",
      "outputs": [
        {
          "internalType": "bool",
          "name": "success",
          "type": "bool"
        }
      ],
      "stateMutability": "nonpayable",
      "type": "function"
    },
    {
      "inputs": [
        {
          "internalType": "address",
          "name": "_spender",
          "type": "address"
        },
        {
          "internalType": "uint256",
          "name": "_value",
          "type": "uint256"
        }
      ],
      "name": "approve",
      "outputs": [
        {
          "internalType": "bool",
          "name": "success",
          "type": "bool"
        }
      ],
      "stateMutability": "nonpayable",
      "type": "function"
    },
    {
      "inputs": [
        {
          "internalType": "address",
          "name": "_from",
          "type": "address"
        },
        {
          "internalType": "address",
          "name": "_to",
          "type": "address"
        },
        {
          "internalType": "uint256",
          "name": "_value",
          "type": "uint256"
        }
      ],
      "name": "transferFrom",
      "outputs": [
        {
          "internalType": "bool",
          "name": "success",
          "type": "bool"
        }
      ],
      "stateMutability": "nonpayable",
      "type": "function"
    },
    {
      "inputs": [
        {
          "internalType": "uint256",
          "name": "_numberOfTokens",
          "type": "uint256"
        }
      ],
      "name": "buyTokens",
      "outputs": [
        {
          "internalType": "bool",
          "name": "",
          "type": "bool"
        }
      ],
      "stateMutability": "payable",
      "type": "function",
      "payable": true
    },
    {
      "inputs": [],
      "name": "stopSale",
      "outputs": [],
      "stateMutability": "nonpayable",
      "type": "function"
    },
    {
      "inputs": [],
      "name": "startSale",
      "outputs": [],
      "stateMutability": "nonpayable",
      "type": "function"
    },
    {
      "inputs": [
        {
          "internalType": "uint256",
          "name": "_tokenPrice",
          "type": "uint256"
        }
      ],
      "name": "setTokenPrice",
      "outputs": [],
      "stateMutability": "nonpayable",
      "type": "function"
    },
    {
      "inputs": [
        {
          "internalType": "uint256",
          "name": "_value",
          "type": "uint256"
        },
        {
          "internalType": "uint256",
          "name": "_color",
          "type": "uint256"
        }
      ],
      "name": "roulette",
      "outputs": [
        {
          "internalType": "uint256",
          "name": "_value_casino",
          "type": "uint256"
        },
        {
          "internalType": "uint256",
          "name": "_color_casino",
          "type": "uint256"
        },
        {
          "internalType": "uint256",
          "name": "reward",
          "type": "uint256"
        }
      ],
      "stateMutability": "nonpayable",
      "type": "function"
    },
    {
      "inputs": [],
      "name": "slotMachine",
      "outputs": [
        {
          "internalType": "uint256[3]",
          "name": "wheelsValues",
          "type": "uint256[3]"
        },
        {
          "internalType": "uint256",
          "name": "reward",
          "type": "uint256"
        }
      ],
      "stateMutability": "nonpayable",
      "type": "function"
    }
  ],
  "bytecode": "0x60806040526040518060400160405280600b81526020017f59756e697320546f6b656e0000000000000000000000000000000000000000008152506000908051906020019062000051929190620001e4565b506040518060400160405280600381526020017f59554e0000000000000000000000000000000000000000000000000000000000815250600190805190602001906200009f929190620001e4565b506040518060400160405280601081526020017f59756e697320546f6b656e2076312e300000000000000000000000000000000081525060029080519060200190620000ed929190620001e4565b5060006006556001600760006101000a81548160ff0219169083151502179055503480156200011b57600080fd5b506040516200252d3803806200252d8339818101604052810190620001419190620002ab565b33600760016101000a81548173ffffffffffffffffffffffffffffffffffffffff021916908373ffffffffffffffffffffffffffffffffffffffff16021790555082600460003373ffffffffffffffffffffffffffffffffffffffff1673ffffffffffffffffffffffffffffffffffffffff16815260200190815260200160002081905550826003819055508160088190555080600a819055505050506200038a565b828054620001f2906200030b565b90600052602060002090601f01602090048101928262000216576000855562000262565b82601f106200023157805160ff191683800117855562000262565b8280016001018555821562000262579182015b828111156200026157825182559160200191906001019062000244565b5b50905062000271919062000275565b5090565b5b808211156200029057600081600090555060010162000276565b5090565b600081519050620002a58162000370565b92915050565b600080600060608486031215620002c157600080fd5b6000620002d18682870162000294565b9350506020620002e48682870162000294565b9250506040620002f78682870162000294565b9150509250925092565b6000819050919050565b600060028204905060018216806200032457607f821691505b602082108114156200033b576200033a62000341565b5b50919050565b7f4e487b7100000000000000000000000000000000000000000000000000000000600052602260045260246000fd5b6200037b8162000301565b81146200038757600080fd5b50565b612193806200039a6000396000f3fe6080604052600436106101095760003560e01c806370a0823111610095578063b66a0e5d11610064578063b66a0e5d14610388578063cc4851de1461039f578063dd62ed3e146103de578063e36b0b371461041b578063e7c09ca91461043257610109565b806370a08231146102b85780637ff9b596146102f557806395d89b4114610320578063a9059cbb1461034b57610109565b8063326687b9116100dc578063326687b9146101de5780633610724e14610209578063518ab2a8146102395780635a3b7e42146102645780636a61e5fc1461028f57610109565b806306fdde031461010e578063095ea7b31461013957806318160ddd1461017657806323b872dd146101a1575b600080fd5b34801561011a57600080fd5b5061012361045e565b6040516101309190611d5d565b60405180910390f35b34801561014557600080fd5b50610160600480360381019061015b9190611ac9565b6104ec565b60405161016d9190611d42565b60405180910390f35b34801561018257600080fd5b5061018b6105de565b6040516101989190611d7f565b60405180910390f35b3480156101ad57600080fd5b506101c860048036038101906101c39190611a7a565b6105e4565b6040516101d59190611d42565b60405180910390f35b3480156101ea57600080fd5b506101f361086a565b6040516102009190611d42565b60405180910390f35b610223600480360381019061021e9190611b05565b61087d565b6040516102309190611d42565b60405180910390f35b34801561024557600080fd5b5061024e610991565b60405161025b9190611d7f565b60405180910390f35b34801561027057600080fd5b50610279610997565b6040516102869190611d5d565b60405180910390f35b34801561029b57600080fd5b506102b660048036038101906102b19190611b05565b610a25565b005b3480156102c457600080fd5b506102df60048036038101906102da9190611a15565b610ac0565b6040516102ec9190611d7f565b60405180910390f35b34801561030157600080fd5b5061030a610ad8565b6040516103179190611d7f565b60405180910390f35b34801561032c57600080fd5b50610335610ade565b6040516103429190611d5d565b60405180910390f35b34801561035757600080fd5b50610372600480360381019061036d9190611ac9565b610b6c565b60405161037f9190611d42565b60405180910390f35b34801561039457600080fd5b5061039d610cd5565b005b3480156103ab57600080fd5b506103c660048036038101906103c19190611b2e565b610d78565b6040516103d593929190611d9a565b60405180910390f35b3480156103ea57600080fd5b5061040560048036038101906104009190611a3e565b610f19565b6040516104129190611d7f565b60405180910390f35b34801561042757600080fd5b50610430610f3e565b005b34801561043e57600080fd5b50610447610fe1565b604051610455929190611d19565b60405180910390f35b6000805461046b90611faa565b80601f016020809104026020016040519081016040528092919081815260200182805461049790611faa565b80156104e45780601f106104b9576101008083540402835291602001916104e4565b820191906000526020600020905b8154815290600101906020018083116104c757829003601f168201915b505050505081565b600081600560003373ffffffffffffffffffffffffffffffffffffffff1673ffffffffffffffffffffffffffffffffffffffff16815260200190815260200160002060008573ffffffffffffffffffffffffffffffffffffffff1673ffffffffffffffffffffffffffffffffffffffff168152602001908152602001600020819055508273ffffffffffffffffffffffffffffffffffffffff163373ffffffffffffffffffffffffffffffffffffffff167f8c5be1e5ebec7d5bd14f71427d1e84f3dd0314c0f7b2291e5b200ac8c7c3b925846040516105cc9190611d7f565b60405180910390a36001905092915050565b60035481565b6000600460008573ffffffffffffffffffffffffffffffffffffffff1673ffffffffffffffffffffffffffffffffffffffff1681526020019081526020016000205482111561063257600080fd5b600560008573ffffffffffffffffffffffffffffffffffffffff1673ffffffffffffffffffffffffffffffffffffffff16815260200190815260200160002060003373ffffffffffffffffffffffffffffffffffffffff1673ffffffffffffffffffffffffffffffffffffffff168152602001908152602001600020548211156106bb57600080fd5b81600460008673ffffffffffffffffffffffffffffffffffffffff1673ffffffffffffffffffffffffffffffffffffffff168152602001908152602001600020600082825461070a9190611efb565b9250508190555081600460008573ffffffffffffffffffffffffffffffffffffffff1673ffffffffffffffffffffffffffffffffffffffff16815260200190815260200160002060008282546107609190611e1a565b9250508190555081600560008673ffffffffffffffffffffffffffffffffffffffff1673ffffffffffffffffffffffffffffffffffffffff16815260200190815260200160002060003373ffffffffffffffffffffffffffffffffffffffff1673ffffffffffffffffffffffffffffffffffffffff16815260200190815260200160002060008282546107f39190611efb565b925050819055508273ffffffffffffffffffffffffffffffffffffffff168473ffffffffffffffffffffffffffffffffffffffff167fddf252ad1be2c89b69c2b068fc378daa952ba7f163c4a11628f55a4df523b3ef846040516108579190611d7f565b60405180910390a3600190509392505050565b600760009054906101000a900460ff1681565b6000600760009054906101000a900460ff1661089857600080fd5b6108ad6008548361190490919063ffffffff16565b34146108b857600080fd5b81600a5410156108c757600080fd5b81600460003373ffffffffffffffffffffffffffffffffffffffff1673ffffffffffffffffffffffffffffffffffffffff16815260200190815260200160002060008282546109169190611e1a565b92505081905550816009600082825461092f9190611e1a565b9250508190555081600a60008282546109489190611efb565b925050819055507f5e5e995ce3133561afceaa51a9a154d5db228cd7525d34df5185582c18d3df093383604051610980929190611cb9565b60405180910390a160019050919050565b60095481565b600280546109a490611faa565b80601f01602080910402602001604051908101604052809291908181526020018280546109d090611faa565b8015610a1d5780601f106109f257610100808354040283529160200191610a1d565b820191906000526020600020905b815481529060010190602001808311610a0057829003601f168201915b505050505081565b600760019054906101000a900473ffffffffffffffffffffffffffffffffffffffff1673ffffffffffffffffffffffffffffffffffffffff163373ffffffffffffffffffffffffffffffffffffffff1614610a7f57600080fd5b806008819055507f84391573dc31ee16afb3c5a2d6d906918acde4227b720393ca2e6a3cbf89322281604051610ab59190611d7f565b60405180910390a150565b60046020528060005260406000206000915090505481565b60085481565b60018054610aeb90611faa565b80601f0160208091040260200160405190810160405280929190818152602001828054610b1790611faa565b8015610b645780601f10610b3957610100808354040283529160200191610b64565b820191906000526020600020905b815481529060010190602001808311610b4757829003601f168201915b505050505081565b600081600460003373ffffffffffffffffffffffffffffffffffffffff1673ffffffffffffffffffffffffffffffffffffffff168152602001908152602001600020541015610bba57600080fd5b81600460003373ffffffffffffffffffffffffffffffffffffffff1673ffffffffffffffffffffffffffffffffffffffff1681526020019081526020016000206000828254610c099190611efb565b9250508190555081600460008573ffffffffffffffffffffffffffffffffffffffff1673ffffffffffffffffffffffffffffffffffffffff1681526020019081526020016000206000828254610c5f9190611e1a565b925050819055508273ffffffffffffffffffffffffffffffffffffffff163373ffffffffffffffffffffffffffffffffffffffff167fddf252ad1be2c89b69c2b068fc378daa952ba7f163c4a11628f55a4df523b3ef84604051610cc39190611d7f565b60405180910390a36001905092915050565b600760019054906101000a900473ffffffffffffffffffffffffffffffffffffffff1673ffffffffffffffffffffffffffffffffffffffff163373ffffffffffffffffffffffffffffffffffffffff1614610d2f57600080fd5b6001600760006101000a81548160ff0219169083151502179055507f2970f486ad806233ea3b1e73f4ddd8c09c6051509aec326fb4ea2cad7dacce9c60405160405180910390a1565b60008060006001600460003373ffffffffffffffffffffffffffffffffffffffff1673ffffffffffffffffffffffffffffffffffffffff168152602001908152602001600020541015610dca57600080fd5b60038410610dd757600080fd5b60258510610de457600080fd5b6001600460003373ffffffffffffffffffffffffffffffffffffffff1673ffffffffffffffffffffffffffffffffffffffff1681526020019081526020016000206000828254610e349190611efb565b92505081905550610e45602561196d565b9250610e51600261196d565b9150600085148015610e635750600083145b80610e7857508285148015610e7757508184145b5b15610ed9576103e8905080600460003373ffffffffffffffffffffffffffffffffffffffff1673ffffffffffffffffffffffffffffffffffffffff1681526020019081526020016000206000828254610ed19190611e1a565b925050819055505b7fc6ad5866a591a580fca3c0c2c1f2120be9857fabaf8306215e9eba5b59bff2ca3382604051610f0a929190611cb9565b60405180910390a19250925092565b6005602052816000526040600020602052806000526040600020600091509150505481565b600760019054906101000a900473ffffffffffffffffffffffffffffffffffffffff1673ffffffffffffffffffffffffffffffffffffffff163373ffffffffffffffffffffffffffffffffffffffff1614610f9857600080fd5b6000600760006101000a81548160ff0219169083151502179055507f8838583ad4691f61e626167788a96d8d37104b56c175347b02da48a7a3a9882860405160405180910390a1565b610fe96119c9565b60006001600460003373ffffffffffffffffffffffffffffffffffffffff1673ffffffffffffffffffffffffffffffffffffffff16815260200190815260200160002054101561103857600080fd5b6001600460003373ffffffffffffffffffffffffffffffffffffffff1673ffffffffffffffffffffffffffffffffffffffff16815260200190815260200160002060008282546110889190611efb565b9250508190555060009050600161109f600561196d565b6110a99190611e1a565b826000600381106110e3577f4e487b7100000000000000000000000000000000000000000000000000000000600052603260045260246000fd5b60200201818152505060016110f8600561196d565b6111029190611e1a565b8260016003811061113c577f4e487b7100000000000000000000000000000000000000000000000000000000600052603260045260246000fd5b6020020181815250506001611151600561196d565b61115b9190611e1a565b82600260038110611195577f4e487b7100000000000000000000000000000000000000000000000000000000600052603260045260246000fd5b6020020181815250506001826000600381106111da577f4e487b7100000000000000000000000000000000000000000000000000000000600052603260045260246000fd5b602002015114801561122b5750600182600160038110611223577f4e487b7100000000000000000000000000000000000000000000000000000000600052603260045260246000fd5b602002015114155b15611239576002905061186f565b600182600060038110611275577f4e487b7100000000000000000000000000000000000000000000000000000000600052603260045260246000fd5b60200201511480156112c557506001826001600381106112be577f4e487b7100000000000000000000000000000000000000000000000000000000600052603260045260246000fd5b6020020151145b80156113105750600182600260038110611308577f4e487b7100000000000000000000000000000000000000000000000000000000600052603260045260246000fd5b602002015114155b1561131e576005905061186e565b60018260006003811061135a577f4e487b7100000000000000000000000000000000000000000000000000000000600052603260045260246000fd5b60200201511480156113aa57506001826001600381106113a3577f4e487b7100000000000000000000000000000000000000000000000000000000600052603260045260246000fd5b6020020151145b80156113f457506001826002600381106113ed577f4e487b7100000000000000000000000000000000000000000000000000000000600052603260045260246000fd5b6020020151145b15611402576007905061186d565b60028260006003811061143e577f4e487b7100000000000000000000000000000000000000000000000000000000600052603260045260246000fd5b602002015114801561148e5750600282600160038110611487577f4e487b7100000000000000000000000000000000000000000000000000000000600052603260045260246000fd5b6020020151145b801561152157506002826002600381106114d1577f4e487b7100000000000000000000000000000000000000000000000000000000600052603260045260246000fd5b602002015114806115205750600382600260038110611519577f4e487b7100000000000000000000000000000000000000000000000000000000600052603260045260246000fd5b6020020151145b5b1561152f57600a905061186c565b60048260006003811061156b577f4e487b7100000000000000000000000000000000000000000000000000000000600052603260045260246000fd5b60200201511480156115bb57506004826001600381106115b4577f4e487b7100000000000000000000000000000000000000000000000000000000600052603260045260246000fd5b6020020151145b801561164e57506004826002600381106115fe577f4e487b7100000000000000000000000000000000000000000000000000000000600052603260045260246000fd5b6020020151148061164d5750600382600260038110611646577f4e487b7100000000000000000000000000000000000000000000000000000000600052603260045260246000fd5b6020020151145b5b1561165c57600e905061186b565b600582600060038110611698577f4e487b7100000000000000000000000000000000000000000000000000000000600052603260045260246000fd5b60200201511480156116e857506005826001600381106116e1577f4e487b7100000000000000000000000000000000000000000000000000000000600052603260045260246000fd5b6020020151145b801561177b575060058260026003811061172b577f4e487b7100000000000000000000000000000000000000000000000000000000600052603260045260246000fd5b6020020151148061177a5750600382600260038110611773577f4e487b7100000000000000000000000000000000000000000000000000000000600052603260045260246000fd5b6020020151145b5b15611789576014905061186a565b6003826000600381106117c5577f4e487b7100000000000000000000000000000000000000000000000000000000600052603260045260246000fd5b6020020151148015611815575060038260016003811061180e577f4e487b7100000000000000000000000000000000000000000000000000000000600052603260045260246000fd5b6020020151145b801561185f5750600382600260038110611858577f4e487b7100000000000000000000000000000000000000000000000000000000600052603260045260246000fd5b6020020151145b156118695760fa90505b5b5b5b5b5b5b80600460003373ffffffffffffffffffffffffffffffffffffffff1673ffffffffffffffffffffffffffffffffffffffff16815260200190815260200160002060008282546118be9190611e1a565b925050819055507f86913a807785d6220f0c697d5f32c1fda6b5e308bd15d23ca745b8e633abbe113382846040516118f893929190611ce2565b60405180910390a19091565b6000808314156119175760009050611967565b81836119239190611ea1565b90508183826119329190611e70565b14611966577f4e487b7100000000000000000000000000000000000000000000000000000000600052600160045260246000fd5b5b92915050565b60006006600081548092919061198290611fdc565b919050555081423360065460405160200161199f93929190611c7c565b6040516020818303038152906040528051906020012060001c6119c29190612053565b9050919050565b6040518060600160405280600390602082028036833780820191505090505090565b6000813590506119fa8161212f565b92915050565b600081359050611a0f81612146565b92915050565b600060208284031215611a2757600080fd5b6000611a35848285016119eb565b91505092915050565b60008060408385031215611a5157600080fd5b6000611a5f858286016119eb565b9250506020611a70858286016119eb565b9150509250929050565b600080600060608486031215611a8f57600080fd5b6000611a9d868287016119eb565b9350506020611aae868287016119eb565b9250506040611abf86828701611a00565b9150509250925092565b60008060408385031215611adc57600080fd5b6000611aea858286016119eb565b9250506020611afb85828601611a00565b9150509250929050565b600060208284031215611b1757600080fd5b6000611b2584828501611a00565b91505092915050565b60008060408385031215611b4157600080fd5b6000611b4f85828601611a00565b9250506020611b6085828601611a00565b9150509250929050565b6000611b768383611c47565b60208301905092915050565b611b8b81611f2f565b82525050565b611ba2611b9d82611f2f565b612025565b82525050565b611bb181611ddb565b611bbb8184611dfe565b9250611bc682611dd1565b8060005b83811015611bf7578151611bde8782611b6a565b9650611be983611df1565b925050600181019050611bca565b505050505050565b611c0881611f41565b82525050565b6000611c1982611de6565b611c238185611e09565b9350611c33818560208601611f77565b611c3c81612111565b840191505092915050565b611c5081611f6d565b82525050565b611c5f81611f6d565b82525050565b611c76611c7182611f6d565b612049565b82525050565b6000611c888286611c65565b602082019150611c988285611b91565b601482019150611ca88284611c65565b602082019150819050949350505050565b6000604082019050611cce6000830185611b82565b611cdb6020830184611c56565b9392505050565b600060a082019050611cf76000830186611b82565b611d046020830185611c56565b611d116040830184611ba8565b949350505050565b6000608082019050611d2e6000830185611ba8565b611d3b6060830184611c56565b9392505050565b6000602082019050611d576000830184611bff565b92915050565b60006020820190508181036000830152611d778184611c0e565b905092915050565b6000602082019050611d946000830184611c56565b92915050565b6000606082019050611daf6000830186611c56565b611dbc6020830185611c56565b611dc96040830184611c56565b949350505050565b6000819050919050565b600060039050919050565b600081519050919050565b6000602082019050919050565b600081905092915050565b600082825260208201905092915050565b6000611e2582611f6d565b9150611e3083611f6d565b9250827fffffffffffffffffffffffffffffffffffffffffffffffffffffffffffffffff03821115611e6557611e64612084565b5b828201905092915050565b6000611e7b82611f6d565b9150611e8683611f6d565b925082611e9657611e956120b3565b5b828204905092915050565b6000611eac82611f6d565b9150611eb783611f6d565b9250817fffffffffffffffffffffffffffffffffffffffffffffffffffffffffffffffff0483118215151615611ef057611eef612084565b5b828202905092915050565b6000611f0682611f6d565b9150611f1183611f6d565b925082821015611f2457611f23612084565b5b828203905092915050565b6000611f3a82611f4d565b9050919050565b60008115159050919050565b600073ffffffffffffffffffffffffffffffffffffffff82169050919050565b6000819050919050565b60005b83811015611f95578082015181840152602081019050611f7a565b83811115611fa4576000848401525b50505050565b60006002820490506001821680611fc257607f821691505b60208210811415611fd657611fd56120e2565b5b50919050565b6000611fe782611f6d565b91507fffffffffffffffffffffffffffffffffffffffffffffffffffffffffffffffff82141561201a57612019612084565b5b600182019050919050565b600061203082612037565b9050919050565b600061204282612122565b9050919050565b6000819050919050565b600061205e82611f6d565b915061206983611f6d565b925082612079576120786120b3565b5b828206905092915050565b7f4e487b7100000000000000000000000000000000000000000000000000000000600052601160045260246000fd5b7f4e487b7100000000000000000000000000000000000000000000000000000000600052601260045260246000fd5b7f4e487b7100000000000000000000000000000000000000000000000000000000600052602260045260246000fd5b6000601f19601f8301169050919050565b60008160601b9050919050565b61213881611f2f565b811461214357600080fd5b50565b61214f81611f6d565b811461215a57600080fd5b5056fea26469706673582212203a6660415ea86b78bbcef5dc515bb252f350c1f2a5e0e30703c39f375c71b48a64736f6c63430008040033",
  "immutableReferences": {},
  "source": "pragma solidity ^0.8.4;\r\n\r\nimport \"./Safemath.sol\";\r\n\r\ncontract YunToken {\r\n    using SafeMath for uint256;\r\n\r\n    //Settings\r\n    string public name = \"Yunis Token\";\r\n    string public symbol = \"YUN\";\r\n    string public standard = \"Yunis Token v1.0\";\r\n\r\n    //ERC-20\r\n    uint public totalSupply;\r\n    mapping(address => uint256) public balanceOf;\r\n    mapping(address => mapping(address => uint256)) public allowance;\r\n\r\n    //Casino\r\n    uint256 private randNonceCasino = 0;\r\n\r\n    //Selling\r\n    bool public onSale = true;\r\n    address admin;\r\n    uint256 public  tokenPrice;\r\n    uint256 public tokensSold;\r\n    uint256 private tokenAvailableForSale;\r\n\r\n    //Events\r\n\r\n    //Transfer\r\n    event Transfer(address indexed _from, address indexed _to, uint256 _value);\r\n    //Approval\r\n    event Approval(address indexed _owner, address indexed _spender, uint256 _value);\r\n\r\n    //Casino\r\n    //Roulette\r\n    event Roulette(address _player, uint256 _reward);\r\n    //SlotMachine\r\n    event SlotMachine(address _player, uint256 _reward, uint[3] _wheelsValues);\r\n\r\n    //Selling\r\n    event Sell(address _buyer, uint256 _amount);\r\n    event StopSelling();\r\n    event StartSelling();\r\n    event SetTokenPrice(uint256 _tokenPrice);\r\n\r\n\r\n\r\n    constructor(uint256 _initialSupply, uint256 _tokenPrice, uint256 _tokensAvailable) {\r\n        admin = msg.sender;\r\n        balanceOf[msg.sender] = _initialSupply;\r\n        totalSupply = _initialSupply;\r\n        tokenPrice = _tokenPrice;\r\n        tokenAvailableForSale = _tokensAvailable;\r\n    }\r\n\r\n    //ERC-20\r\n    //__________________________________________________________________________________________________________________\r\n    //Transfer\r\n    function transfer(address _to, uint256 _value) public returns (bool success){\r\n        //Exception if account doesn't have enough\r\n        require(balanceOf[msg.sender] >= _value);\r\n        //Transfer the balance\r\n        balanceOf[msg.sender] -= _value;\r\n        balanceOf[_to] += _value;\r\n\r\n        //Transfer Event\r\n        emit Transfer(msg.sender, _to, _value);\r\n        //Return boolean\r\n        return true;\r\n    }\r\n\r\n    //Approve\r\n    function approve(address _spender, uint256 _value) public returns (bool success){\r\n        //allowance\r\n        allowance[msg.sender][_spender] = _value;\r\n        //Approve event\r\n        emit Approval(msg.sender, _spender, _value);\r\n        return true;\r\n    }\r\n\r\n    //Transfer From\r\n    function transferFrom(address _from, address _to, uint256 _value) public returns (bool success){\r\n        //require _from has enough tokens\r\n        require(_value <= balanceOf[_from]);\r\n\r\n        //require allowance is big enough\r\n        require(_value <= allowance[_from][msg.sender]);\r\n\r\n        //change the balance\r\n        balanceOf[_from] -= _value;\r\n        balanceOf[_to] += _value;\r\n\r\n        //update the allowance\r\n        allowance[_from][msg.sender] -= _value;\r\n\r\n        //Transfer event\r\n        emit Transfer(_from, _to, _value);\r\n\r\n        //return true\r\n        return true;\r\n    }\r\n\r\n\r\n    //Selling Tokens\r\n    //__________________________________________________________________________________________________________________\r\n    function buyTokens(uint256 _numberOfTokens) public payable returns (bool){\r\n        //Check Tokens re on the sale\r\n        require(onSale);\r\n\r\n        //Require that value is equal to tokens\r\n        require(msg.value == _numberOfTokens.mul(tokenPrice));\r\n\r\n        //Require that the available tokens is enough\r\n        require(tokenAvailableForSale >= _numberOfTokens);\r\n\r\n        //Send tokens\r\n        balanceOf[msg.sender] += _numberOfTokens;\r\n\r\n        //Require that a transfer is successful\r\n        tokensSold += _numberOfTokens;\r\n\r\n        //Reduce available tokens for selling\r\n        tokenAvailableForSale -= _numberOfTokens;\r\n\r\n        //Trigger Sell event\r\n        emit Sell(msg.sender, _numberOfTokens);\r\n        return true;\r\n    }\r\n\r\n    function stopSale() public {\r\n        //Require admin\r\n        require(msg.sender == admin);\r\n\r\n        onSale = false;\r\n        emit StopSelling();\r\n    }\r\n\r\n    function startSale() public {\r\n        //Require admin\r\n        require(msg.sender == admin);\r\n\r\n        onSale = true;\r\n        emit StartSelling();\r\n    }\r\n\r\n    function setTokenPrice(uint256 _tokenPrice) public {\r\n        //Require admin\r\n        require(msg.sender == admin);\r\n\r\n\r\n        //Set token Price\r\n        tokenPrice = _tokenPrice;\r\n        emit SetTokenPrice(_tokenPrice);\r\n\r\n    }\r\n\r\n\r\n    //Casino\r\n    //__________________________________________________________________________________________________________________\r\n    //Random Num\r\n    function rand(uint _modulus) private returns (uint)  {\r\n        randNonceCasino++;\r\n        return uint(keccak256(abi.encodePacked(block.timestamp, msg.sender, randNonceCasino))) % _modulus;\r\n\r\n    }\r\n\r\n    //Roulette casino\r\n    function roulette(uint _value, uint _color) public returns (uint _value_casino, uint _color_casino, uint256 reward){\r\n        //Exception if account doesn't have enough\r\n        require(balanceOf[msg.sender] >= 1);\r\n\r\n        //Correctly input arguments\r\n        require(_color < 3);\r\n        require(_value < 37);\r\n\r\n        //Client pay token for spinning\r\n        balanceOf[msg.sender] -= 1;\r\n\r\n        _value_casino = rand(37);\r\n        _color_casino = rand(2);\r\n\r\n        //  If Zero                                 //If other color or number\r\n        if (((_value == 0) && (_value_casino == 0)) || ((_value == _value_casino) && (_color == _color_casino))) {\r\n            // If ZERO\r\n            //Pay reward\r\n            reward = 1000;\r\n            balanceOf[msg.sender] += reward;\r\n        }\r\n\r\n        emit Roulette(msg.sender, reward);\r\n        return (_value_casino, _color_casino, reward);\r\n    }\r\n\r\n\r\n    //Slot-machine\r\n    function slotMachine() public returns (uint[3] memory wheelsValues, uint reward){\r\n        //Exception if account doesn't have enough\r\n        require(balanceOf[msg.sender] >= 1);\r\n\r\n        //Client pay token for spinning\r\n        balanceOf[msg.sender] -= 1;\r\n\r\n        reward = 0;\r\n        wheelsValues[0] = rand(5) + 1;\r\n        wheelsValues[1] = rand(5) + 1;\r\n        wheelsValues[2] = rand(5) + 1;\r\n\r\n\r\n        if ((wheelsValues[0] == 1) && (wheelsValues[1] != 1)) {\r\n            reward = 2;\r\n        } else if ((wheelsValues[0] == 1) && (wheelsValues[1] == 1) && (wheelsValues[2] != 1)) {\r\n            reward = 5;\r\n        } else if ((wheelsValues[0] == 1) && (wheelsValues[1] == 1) && (wheelsValues[2] == 1)) {\r\n            reward = 7;\r\n        } else if ((wheelsValues[0] == 2) && (wheelsValues[1] == 2) && ((wheelsValues[2] == 2) || (wheelsValues[2] == 3))) {\r\n            reward = 10;\r\n        } else if ((wheelsValues[0] == 4) && (wheelsValues[1] == 4) && ((wheelsValues[2] == 4) || (wheelsValues[2] == 3))) {\r\n            reward = 14;\r\n        } else if ((wheelsValues[0] == 5) && (wheelsValues[1] == 5) && ((wheelsValues[2] == 5) || (wheelsValues[2] == 3))) {\r\n            reward = 20;\r\n        } else if ((wheelsValues[0] == 3) && (wheelsValues[1] == 3) && (wheelsValues[2] == 3)) {\r\n            //jackPot\r\n            reward = 250;\r\n        }\r\n\r\n        //Pay reward\r\n        balanceOf[msg.sender] += reward;\r\n\r\n\r\n        emit SlotMachine(msg.sender, reward, wheelsValues);\r\n        return (wheelsValues, reward);\r\n    }\r\n}\r\n",
  "sourcePath": "C:/Users/Yunis/WebstormProjects/untitled/contracts/YunToken.sol",
  "compiler": {
    "name": "solc",
    "version": "0.8.4+commit.c7e474f2.Emscripten.clang"
  },
  "schemaVersion": "3.3.4",
  "updatedAt": "2021-04-26T15:28:37.713Z",
  "networkType": "ethereum",
  "devdoc": {
    "kind": "dev",
    "methods": {},
    "version": 1
  },
  "userdoc": {
    "kind": "user",
    "methods": {},
    "version": 1
  }
}